:100000000C94A0000C94C8000C94C8000C94C80078
:100010000C94C8000C94C8000C94C8000C94C80040
:100020000C94C8000C94C8000C94C8000C94C80030
:100030000C94C8000C94C8000C94C8000C94C80020
:100040000C9433040C94C8000C94A3040C947D0409
:100050000C94C8000C94C8000C94C8000C94C80000
:100060000C94C8000C94C8007C4543484F5F55531E
:100070003A00455252007C444953543A007C434D67
:10008000443A007C50484153453A007C52554E3A20
:10009000007C4E3A004155544F7C55503A00415532
:1000A000544F3A52454144593A31004552523A432D
:1000B0004F4D4D414E4400504F4E47004155544F17
:1000C0003A52454144593A31004F4B3A5354415208
:1000D00054004F4B3A53544F50004552523A4C49FA
:1000E0004E4500000000002300260029000000000B
:1000F00000240027002A0000000000250028002B13
:1001000000040404040404040402020202020203C0
:1001100003030303030102040810204080010204CA
:10012000081020010204081020000000080002014D
:100130000000030407000000000000000000530856
:1001400011241FBECFEFD8E0DEBFCDBF11E0A0E08D
:10015000B1E0EEEDF5E102C005900D92A836B107D1
:10016000D9F722E0A8E6B1E001C01D92AC33B20796
:10017000E1F710E0C0EAD0E004C02197FE010E9440
:10018000DE0ACF39D107C9F70E941A050C94ED0A8F
:100190000C94000090E0FC01E75DFE4F2491FC010F
:1001A000EB5EFE4F3491FC01EF5FFE4FE491EE23D6
:1001B000C9F0222339F0233001F1A8F4213019F1DC
:1001C000223029F1F0E0EE0FFF1FE950FF4FA5911B
:1001D000B4918FB7F894EC91611126C030953E230D
:1001E0003C938FBF08952730A9F02830C9F0243000
:1001F00049F7809180008F7D03C0809180008F77C8
:1002000080938000DFCF84B58F7784BDDBCF84B54A
:100210008F7DFBCF8091B0008F778093B000D2CFDD
:100220008091B0008F7DF9CF3E2BDACFCF93DF9353
:1002300090E0FC01EB5EFE4F24918F5F9E4FFC012E
:1002400084918823D1F090E0880F991FFC01E3513D
:10025000FF4FA591B491FC01E950FF4FC591D49196
:1002600061110EC09FB7F8948C91E22FE0958E2318
:100270008C932881E223E8839FBFDF91CF9108957B
:100280008FB7F894EC91E22BEC938FBFF6CF2FB79A
:10029000F89460919B0170919C0180919D019091D7
:1002A0009E012FBF0895AF92BF92CF92DF92EF923F
:1002B000FF920F931F93CF93DF936C017B018B0110
:1002C000040F151FEB015E01AE18BF08C017D10760
:1002D00059F06991D601ED91FC910190F081E02DEA
:1002E000C6010995892B79F7C501DF91CF911F913F
:1002F0000F91FF90EF90DF90CF90BF90AF90089557
:10030000FC01538D448D252F30E0842F90E0821B1B
:10031000930B541710F0CF96089501970895FC01A0
:10032000918D828D981761F0A28DAE0FBF2FB11DF8
:100330005D968C91928D9F5F9F73928F90E0089550
:100340008FEF9FEF0895FC01918D828D981731F00A
:10035000828DE80FF11D858D90E008958FEF9FEF5E
:100360000895FC01918D228D892F90E0805C9F4F34
:10037000821B91098F73992708958FE991E00E945C
:10038000B10121E0892B09F420E0822F089580E05B
:1003900090E0892B29F00E94BD0181110C9400008E
:1003A0000895FC01A48DA80FB92FB11DA35ABF4F0A
:1003B0002C91848D90E001968F739927848FA68964
:1003C000B7892C93A089B1898C91837080648C93B8
:1003D000938D848D981306C00288F389E02D808167
:1003E0008F7D80830895EF92FF920F931F93CF9399
:1003F000DF93EC0181E0888F9B8D8C8D98131AC060
:10040000E889F989808185FF15C09FB7F894EE8946
:10041000FF896083E889F9898081837080648083A3
:100420009FBF81E090E0DF91CF911F910F91FF90EE
:10043000EF900895F62E0B8D10E00F5F1F4F0F7396
:100440001127E02E8C8D8E110CC00FB607FCFACF51
:10045000E889F989808185FFF5CFCE010E94D1011D
:10046000F1CFEB8DEC0FFD2FF11DE35AFF4FF08222
:100470009FB7F8940B8FEA89FB8980818062CFCF88
:100480000F931F93CF93DF938C01D0E0C0E0F8016E
:10049000EC0FFD1F6491662341F08FE991E00E940B
:1004A000F301892B11F02196F2CFCE01DF91CF918C
:1004B0001F910F910895CF93DF93EC01888D8823CE
:1004C000B9F0AA89BB89E889F9898C9185FD03C0B7
:1004D000808186FD0DC00FB607FCF7CF8C9185FF9C
:1004E000F2CF808185FFEDCFCE010E94D101E9CF0F
:1004F000DF91CF910895EF92FF920F931F93CF93C7
:10050000DF93E82EF62ED42FC22F60E087E00E9402
:10051000CA0060E086E00E94CA0060E085E00E94B8
:10052000CA0060E084E00E94CA006E2D87E00E944D
:10053000CA006F2D86E00E94CA006D2F85E00E94E0
:10054000CA006C2F84E00E94CA001093010100933E
:100550000001DF91CF911F910F91FF90EF900895CF
:100560000F931F9390938C0180938B01409386018E
:1005700050938701609388017093890184309105BD
:1005800079F086309105B9F00AE111E021E040E010
:100590000297C9F005E311E020E040E060E014C0FC
:1005A00001E211E020E041E060E081E00E947B0296
:1005B0001F910F91089580910201882339F004E280
:1005C00011E020E041E061E080E0F0CF0CE211E0DA
:1005D00021E040E0E9CFFC0101900020E9F73197EC
:1005E000AF01481B590BBC018FE991E00C945301FA
:1005F0008F929F92AF92BF920F931F93CF93DF93EF
:10060000CDB7DEB7A1970FB6F894DEBF0FBECDBF52
:1006100019A2423008F44AE08E010F5D1F4F842E6C
:10062000912CB12CA12CA50194010E94BC0AE62FAB
:10063000B901CA01EA30F4F4E05DD801EE938D010E
:10064000232B242B252B79F790E080E0109719F0CD
:10065000CD010E94EB02A1960FB6F894DEBF0FBE4B
:10066000CDBFDF91CF911F910F91BF90AF909F9021
:100670008F900895E95CE1CFCF93DF930E94400211
:10068000EC018BE391E00E94EB028C0F9D1FDF9148
:10069000CF9108958F929F92AF92BF92CF92DF92A7
:1006A000EF92FF9285E990E00E9440020E9447018C
:1006B0004AE00E94F80281E990E00E9440026091C5
:1006C0007E0170917F0180918001909181014AE0CB
:1006D0000E94F8028BE890E00E9440026091910134
:1006E00070E090E080E04AE00E94F80283E890E049
:1006F0000E94400260918B0170E090E080E04AE04F
:100700000E94F8028DE790E00E9440028091000173
:1007100090910101009711F00E94EB0286E790E0B2
:100720000E944002C0900401D0900501E0900601B3
:10073000F090070120E030E0A901C701B6010E9456
:10074000ED0887FF1FC082E790E00E94400288E624
:1007500090E00E944002609182017091830180913B
:100760008401909185014AE00E94F8028BE391E0B8
:10077000FF90EF90DF90CF90BF90AF909F908F90C1
:100780000C94EB02A7019601C701B6010E94B70ABB
:10079000882329F08EE391E00E94EB02D8CF460136
:1007A0005701E894B7F82FEF3FEF4FE75FE7C50138
:1007B000B4010E94B70A81110DC02FEF3FEF4FE740
:1007C0005FE7C501B4010E94ED0818161CF482E42D
:1007D00091E0E2CF2FEF3FEF4FE75FE4C701B601B3
:1007E0000E94450A18161CF486E491E0D5CF2FEF3D
:1007F0003FEF4FE75FECC701B6010E94ED0887FDB0
:10080000F3CF2DEC3CEC4CE45DE3C701B6010E9454
:1008100081084B015C010E9464096B017C010E940C
:1008200093099B01AC01C501B4010E9480084B01F2
:100830005C014AE0C701B6010E94F8026EE28FE94E
:1008400091E00E94F30120E030E040E251E4C50174
:10085000B4010E944A0A0E94640990E080E04AE0E4
:100860000E94F80274CF1F920F920FB60F921124BC
:100870002F933F938F939F93AF93BF9380919B014F
:1008800090919C01A0919D01B0919E0130919A019F
:1008900023E0230F2D3758F50196A11DB11D20939C
:1008A0009A0180939B0190939C01A0939D01B0932A
:1008B0009E018091960190919701A0919801B0912D
:1008C00099010196A11DB11D809396019093970106
:1008D000A0939801B0939901BF91AF919F918F918F
:1008E0003F912F910F900FBE0F901F90189526E803
:1008F000230F0296A11DB11DD2CF1F920F920FB6EA
:100900000F9211242F933F934F935F936F937F9395
:100910008F939F93AF93BF93EF93FF938FE991E0F2
:100920000E94D101FF91EF91BF91AF919F918F9163
:100930007F916F915F914F913F912F910F900FBEDB
:100940000F901F9018951F920F920FB60F921124BF
:100950002F938F939F93EF93FF93E091AF01F091CB
:10096000B0018081E091B501F091B60182FD1BC01C
:1009700090818091B8018F5F8F732091B9018217A8
:1009800041F0E091B801F0E0E156FE4F958F809381
:10099000B801FF91EF919F918F912F910F900FBE12
:1009A0000F901F9018958081F4CFCF92DF92EF9235
:1009B000FF920F931F93E82FF92F05C001501109E3
:1009C0002109310961F1908196239417B9F305C08B
:1009D000015011092109310911F1908196239413D5
:1009E000F7CFC12CD12CE12CF12C0AC08FEFC81A03
:1009F000D80AE80AF80A0C151D052E053F0579F0FE
:100A000080818623841791F36C2D7D2D8E2D9F2D53
:100A10001F910F91FF90EF90DF90CF90089560E0CD
:100A200070E080E090E01F910F91FF90EF90DF90D9
:100A3000CF900895789484B5826084BD84B5816038
:100A400084BD85B5826085BD85B5816085BD809199
:100A50006E00816080936E00109281008091810011
:100A60008260809381008091810081608093810009
:100A7000809180008160809380008091B1008460CB
:100A80008093B1008091B00081608093B00080912C
:100A90007A00846080937A0080917A0082608093EB
:100AA0007A0080917A00816080937A0080917A0048
:100AB000806880937A001092C10061E087E00E9414
:100AC000160161E086E00E94160161E085E00E9467
:100AD000160161E084E00E94160161E083E00E945B
:100AE000160160E082E00E94160160E083E00E944F
:100AF000CA000E944701AB01BC011092910190E035
:100B000080E00E94B002E091AF01F091B00182E07C
:100B10008083E091AB01F091AC011082E091AD01D6
:100B2000F091AE018FEC80831092B701E091B30198
:100B3000F091B40186E08083E091B101F091B201BF
:100B4000808180618083E091B101F091B201808168
:100B500088608083E091B101F091B201808180686A
:100B60008083E091B101F091B20180818F7D80831B
:100B70008EE990E00E943C039FE0292E312C412C0D
:100B8000512C20E8622E2FEB722E0E9447016B0140
:100B90007C01C1E38FE991E00E94B101892B09F446
:100BA0009BC0C15009F498C08FE991E00E948F0169
:100BB00090917D018A3019F08D3009F06CC091114F
:100BC00062C0E0917C01EE2309F45DC0F0E0E859D9
:100BD000FE4F10826BE471E088E691E00E94E40A27
:100BE000892B41F06AE471E088E691E00E94E40A12
:100BF000892B69F410929101B701A60190E080E081
:100C00000E94B00282ED90E00E943C033CC060E58F
:100C100071E088E691E00E94E40A892BA1F48091BA
:100C2000910181110DC021E02093910120930301D6
:100C300010928A01B701A60181E090E00E94B00203
:100C400089EC90E0E1CF66E571E088E691E00E94F2
:100C5000E40A892B19F48CEB90E0D6CF6CE571E0B7
:100C600088E691E00E94E40A892B19F487EB90E072
:100C7000CBCF61E671E088E691E00E94E40A892B1F
:100C800039F40E944A0310927C0110927D0182CFB8
:100C90008BEA90E0B9CF91117DCFE0917C01E331F7
:100CA00048F491E09E0F90937C01F0E0E859FE4FEC
:100CB000808370CF10927C0131E030937D011092DF
:100CC0009101B701A60190E080E00E94B0028AED98
:100CD00090E00E943C035ECF0E944701C0908D01CE
:100CE000D0908E01E0908F01F09090019B01AC01BB
:100CF0002C193D094E095F0969017A0130E5C316D7
:100D0000D104E104F10408F48EC060938D01709366
:100D10008E0180938F019093900160E083E00E94A8
:100D2000CA00C1010197F1F761E083E00E94CA00A7
:100D300083E290E00197F1F760E083E00E94CA004F
:100D4000E7E1F1E06491E3E0F1E08491E82FF0E085
:100D5000EE0FFF1FED51FF4F8591949108EA11E6C8
:100D600020E030E0462F0E94D5046B017C01C114C5
:100D7000D104E104F10439F0FFEFCF1ADF0AEF0AE2
:100D8000FF0A2FE0F222C0928201D0928301E0920A
:100D90008401F092850180917E0190917F01A09164
:100DA0008001B09181010196A11DB11D80937E014A
:100DB00090937F01A0938001B0938101C701B60198
:100DC0000E94930920E030E048E652E40E94F208D5
:100DD0004B015C018092040190920501A0920601F2
:100DE000B0920701CD28CE28CF2899F020E030E03E
:100DF00040E050E40E94ED0887FD0BC020E030E0A9
:100E000048EC53E4C501B4010E94450A18160CF0E1
:100E10006FC04092040150920501609206017092E9
:100E2000070110928A010E9447016B017C018091A9
:100E30009101882389F18090040190900501A09090
:100E40000601B0900701C0918B01D0918C0120E088
:100E500030E0A901C501B4010E94ED0887FD15C06D
:100E600080918D0190918E01A0918F01B0919001A0
:100E7000A7019601281B390B4A0B5B0BDA01C9014C
:100E8000893C9105A105B105E0F1B701A60187E014
:100E900090E0279709F09AC00E944701C090920104
:100EA000D0909301E0909401F09095016C197D0928
:100EB0008E099F096C3271408105910560F00E9496
:100EC00047016093920170939301809394019093F2
:100ED00095010E944A0380E090E0892B09F455CEE9
:100EE0000E94BD01882309F450CE0E9400004DCE1F
:100EF00080918A01823008F096CF8F5F80938A01BB
:100F000092CFC730D10549F480918A01823020F216
:100F1000B701A60181E090E059C0C330D10509F4C2
:100F20006FC0E0F4C130D105D9F1229709F0B4CFF8
:100F300020E030E04CE052E4C501B4010E94ED082D
:100F400018160CF4A9CF8091020141E08427809308
:100F50000201B701A60183E090E038C0C530D10599
:100F600009F486C008F469C0269709F095CF8091EE
:100F7000860190918701A0918801B0918901A70114
:100F80009601281B390B4A0B5B0BDA01C9018A3821
:100F90009240A105B10508F47FCF10928A01B8CF25
:100FA00080918A01823008F477CF20E030E04CE075
:100FB00052E4C501B4010E94450A181654F431E008
:100FC00030930301B701A60182E090E00E94B002D5
:100FD00063CF20E030E04CE052E4C501B4010E9450
:100FE000ED0818160CF458CF80910301882329F0DE
:100FF00083E090E0B701A601E9CF85E090E0FACF69
:101000008091860190918701A0918801B09189011A
:10101000A7019601281B390B4A0B5B0BDA01C901AA
:1010200086399105A105B10508F436CF1092030168
:10103000B701A60184E090E0C9CF8091860190912C
:101040008701A0918801B0918901A7019601281B11
:10105000390B4A0B5B0BDA01C90180399140A105BC
:10106000B10508F419CFB701A60185E090E0AECF35
:101070008091860190918701A0918801B0918901AA
:10108000A7019601281B390B4A0B5B0BDA01C9013A
:1010900086399105A105B10508F4FECEB701A60178
:1010A00086E090E093CFEFE9F1E01382128288EEC0
:1010B00093E0A0E0B0E084839583A683B7838CE0BF
:1010C00091E09183808385EC90E09587848784EC20
:1010D00090E09787868780EC90E0918B808B81EC05
:1010E00090E0938B828B82EC90E0958B848B86ECE6
:1010F00090E0978B868B118E128E138E148E08952E
:101100005058BB27AA270E9498080C940B0A0E94EB
:10111000FD0938F00E94040A20F039F49F3F19F4C9
:1011200026F40C94FA090EF4E095E7FB0C94F4090C
:10113000E92F0E941C0A58F3BA1762077307840745
:10114000950720F079F4A6F50C943E0A0EF4E0958C
:101150000B2EBA2FA02D0B01B90190010C01CA0171
:10116000A0011124FF27591B99F0593F50F4503E1C
:1011700068F11A16F040A22F232F342F4427585F0E
:10118000F3CF469537952795A795F0405395C9F726
:101190007EF41F16BA0B620B730B840BBAF09150DE
:1011A000A1F0FF0FBB1F661F771F881FC2F70EC07D
:1011B000BA0F621F731F841F48F487957795679550
:1011C000B795F7959E3F08F0B0CF9395880F08F03C
:1011D0009927EE0F9795879508950E94D00908F4F6
:1011E00081E008950E9406090C940B0A0E94040AEB
:1011F00058F00E94FD0940F029F45F3F29F00C945B
:10120000F40951110C943F0A0C94FA090E941C0A2B
:1012100068F39923B1F3552391F3951B550BBB2725
:10122000AA2762177307840738F09F5F5F4F220F6A
:10123000331F441FAA1FA9F335D00E2E3AF0E0E861
:1012400032D091505040E695001CCAF72BD0FE2FAB
:1012500029D0660F771F881FBB1F2617370748073F
:10126000AB07B0E809F0BB0B802DBF01FF279358F7
:101270005F4F3AF09E3F510578F00C94F4090C94BE
:101280003F0A5F3FE4F3983ED4F3869577956795E0
:10129000B795F7959F5FC9F7880F911D969587952C
:1012A00097F90895E1E0660F771F881FBB1F62174B
:1012B00073078407BA0720F0621B730B840BBA0B09
:1012C000EE1F88F7E09508950E94240A88F09F5742
:1012D00098F0B92F9927B751B0F0E1F0660F771F5A
:1012E000881F991F1AF0BA95C9F714C0B13091F050
:1012F0000E943E0AB1E008950C943E0A672F782FB1
:101300008827B85F39F0B93FCCF386957795679514
:10131000B395D9F73EF490958095709561957F4F80
:101320008F4F9F4F0895E89409C097FB3EF4909526
:101330008095709561957F4F8F4F9F4F9923A9F0AE
:10134000F92F96E9BB279395F6958795779567953D
:10135000B795F111F8CFFAF4BB0F11F460FF1BC081
:101360006F5F7F4F8F4F9F4F16C0882311F096E914
:1013700011C0772321F09EE8872F762F05C06623C2
:1013800071F096E8862F70E060E02AF09A95660F7B
:10139000771F881FDAF7880F9695879597F9089534
:1013A000990F0008550FAA0BE0E8FEEF1616170676
:1013B000E807F907C0F012161306E407F50798F0DE
:1013C000621B730B840B950B39F40A2661F0232BF7
:1013D000242B252B21F408950A2609F4A140A69573
:1013E0008FEF811D811D089597F99F6780E870E058
:1013F00060E008959FEF80EC089500240A9416168B
:10140000170618060906089500240A9412161306F2
:10141000140605060895092E0394000C11F4882380
:1014200052F0BB0F40F4BF2B11F460FF04C06F5F9C
:101430007F4F8F4F9F4F089557FD9058440F551F72
:1014400059F05F3F71F04795880F97FB991F61F046
:101450009F3F79F087950895121613061406551FBD
:10146000F2CF4695F1DF08C0161617061806991F29
:10147000F1CF86957105610508940895E894BB271E
:1014800066277727CB0197F908950E94D00908F4C1
:101490008FEF08950E945D0A0C940B0A0E94FD09CB
:1014A00038F00E94040A20F0952311F00C94F409FE
:1014B0000C94FA0911240C943F0A0E941C0A70F340
:1014C000959FC1F3950F50E0551F629FF001729FE9
:1014D000BB27F00DB11D639FAA27F00DB11DAA1FF8
:1014E000649F6627B00DA11D661F829F2227B00D45
:1014F000A11D621F739FB00DA11D621F839FA00DD0
:10150000611D221F749F3327A00D611D231F849F1F
:10151000600D211D822F762F6A2F11249F57504076
:101520009AF0F1F088234AF0EE0FFF1FBB1F661FF1
:10153000771F881F91505040A9F79E3F510580F0BA
:101540000C94F4090C943F0A5F3FE4F3983ED4F303
:10155000869577956795B795F795E7959F5FC1F75E
:10156000FE2B880F911D9695879597F908950E94F7
:10157000D009880B990B0895A1E21A2EAA1BBB1B58
:10158000FD010DC0AA1FBB1FEE1FFF1FA217B3074F
:10159000E407F50720F0A21BB30BE40BF50B661F65
:1015A000771F881F991F1A9469F760957095809529
:1015B00090959B01AC01BD01CF010895EE0FFF1F77
:1015C0000590F491E02D0994FB01DC018D910190CF
:0E15D00080190110D9F3990B0895F894FFCFFC
:1015DE0035010101000080BF00000000F30153013E
:1015EE0080015B02B1018F01A3014652454E544565
:1015FE000052450044495245495441004553515506
:10160E0045524441005041524152000D0A006E6154
:10161E006E00696E66006F7666004553544F50003B
:10162E0053544152540048454C4C4F0050494E477C
:08163E000053544154555300C0
:00000001FF
