:100000000C94A7000C94CF000C94CF000C94CF005C
:100010000C94CF000C94CF000C94CF000C94CF0024
:100020000C94CF000C94CF000C94CF000C94CF0014
:100030000C94CF000C94CF000C94CF000C94CF0004
:100040000C945E040C94CF000C94CE040C94A80481
:100050000C94CF000C94CF000C94CF000C94CF00E4
:100060000C94CF000C94CF007C434C4541523A0095
:100070007C4E4541523A007C4543484F5F55533AC8
:1000800000455252007C444953543A007C434D444D
:100090003A007C50484153453A007C52554E3A0054
:1000A0007C4E3A004155544F7C55503A00415554CE
:1000B0004F3A52454144593A32004552523A434F21
:1000C0004D4D414E4400504F4E47004155544F3A1C
:1000D00052454144593A32004F4B3A5354415254DD
:1000E000004F4B3A53544F50004552523A4C494EF0
:1000F0004500000000002300260029000000000049
:10010000240027002A0000000000250028002B0002
:1001100004040404040404040202020202020303AD
:1001200003030303010204081020408001020408B5
:100130001020010204081020000000080002010045
:1001400000030407000000000000000098081124CC
:100150001FBECFEFD8E0DEBFCDBF11E0A0E0B1E021
:10016000E8E6F6E102C005900D92A836B107D9F78E
:1001700022E0A8E6B1E001C01D92AE33B207E1F77C
:1001800010E0C7EAD0E004C02197FE010E94230BD3
:10019000C63AD107C9F70E9445050C94320B0C945E
:1001A000000090E0FC01E85CFE4F2491FC01EC5D56
:1001B000FE4F3491FC01E05FFE4FE491EE23C9F065
:1001C000222339F0233001F1A8F4213019F1223033
:1001D00029F1F0E0EE0FFF1FEA5FFE4FA591B49109
:1001E0008FB7F894EC91611126C030953E233C9373
:1001F0008FBF08952730A9F02830C9F0243049F77F
:10020000809180008F7D03C0809180008F778093E4
:100210008000DFCF84B58F7784BDDBCF84B58F7D41
:10022000FBCF8091B0008F778093B000D2CF8091C8
:10023000B0008F7DF9CF3E2BDACFCF93DF9390E0E4
:10024000FC01EC5DFE4F2491805F9E4FFC01849188
:100250008823D1F090E0880F991FFC01E450FF4FF4
:10026000A591B491FC01EA5FFE4FC591D491611153
:100270000EC09FB7F8948C91E22FE0958E238C935B
:100280002881E223E8839FBFDF91CF9108958FB744
:10029000F894EC91E22BEC938FBFF6CF2FB7F89444
:1002A00060919D0170919E0180919F019091A001AC
:1002B0002FBF0895AF92BF92CF92DF92EF92FF923D
:1002C0000F931F93CF93DF936C017B018B01040F7E
:1002D000151FEB015E01AE18BF08C017D10759F01A
:1002E0006991D601ED91FC910190F081E02DC6015C
:1002F0000995892B79F7C501DF91CF911F910F9156
:10030000FF90EF90DF90CF90BF90AF900895FC01E9
:10031000538D448D252F30E0842F90E0821B930B6A
:10032000541710F0CF96089501970895FC01918D10
:10033000828D981761F0A28DAE0FBF2FB11D5D9613
:100340008C91928D9F5F9F73928F90E008958FEFB5
:100350009FEF0895FC01918D828D981731F0828D69
:10036000E80FF11D858D90E008958FEF9FEF0895C0
:10037000FC01918D228D892F90E0805C9F4F821B24
:1003800091098F739927089581EA91E00E94B8013D
:1003900021E0892B09F420E0822F089580E090E08D
:1003A000892B29F00E94C40181110C94000008954A
:1003B000FC01A48DA80FB92FB11DA35ABF4F2C91DA
:1003C000848D90E001968F739927848FA689B789D1
:1003D0002C93A089B1898C91837080648C93938DC8
:1003E000848D981306C00288F389E02D80818F7D6B
:1003F00080830895EF92FF920F931F93CF93DF9323
:10040000EC0181E0888F9B8D8C8D98131AC0E88950
:10041000F989808185FF15C09FB7F894EE89FF891F
:100420006083E889F98980818370806480839FBFBD
:1004300081E090E0DF91CF911F910F91FF90EF90BD
:100440000895F62E0B8D10E00F5F1F4F0F731127CD
:10045000E02E8C8D8E110CC00FB607FCFACFE88908
:10046000F989808185FFF5CFCE010E94D801F1CFB7
:10047000EB8DEC0FFD2FF11DE35AFF4FF0829FB77C
:10048000F8940B8FEA89FB8980818062CFCF0F932C
:100490001F93CF93DF938C01D0E0C0E0F801EC0F05
:1004A000FD1F6491662341F081EA91E00E94FA0108
:1004B000892B11F02196F2CFCE01DF91CF911F91C0
:1004C0000F910895CF93DF93EC01888D8823B9F0C5
:1004D000AA89BB89E889F9898C9185FD03C080814F
:1004E00086FD0DC00FB607FCF7CF8C9185FFF2CFCC
:1004F000808185FFEDCFCE010E94D801E9CFDF9149
:10050000CF910895EF92FF920F931F93CF93DF93B4
:10051000E82EF62ED42FC22F60E087E00E94D10093
:1005200060E086E00E94D10060E085E00E94D1009A
:1005300060E084E00E94D1006E2D87E00E94D1002F
:100540006F2D86E00E94D1006D2F85E00E94D100C2
:100550006C2F84E00E94D1001093010100930001F0
:10056000DF91CF911F910F91FF90EF9008950F931E
:100570001F9390938E0180938D0140938601509339
:10058000870160938801709389018730910519F084
:100590008230910530F410928C0110928A011092F1
:1005A0008B018430910579F086309105B9F00AE12C
:1005B00011E021E040E00297C9F005E311E020E0FE
:1005C00040E060E014C001E211E020E041E060E0C2
:1005D00081E00E9482021F910F9108958091020193
:1005E000882339F004E211E020E041E061E080E09E
:1005F000F0CF0CE211E021E040E0E9CFFC010190F6
:100600000020E9F73197AF01481B590BBC0181EA83
:1006100091E00C945A018F929F92AF92BF920F93E8
:100620001F93CF93DF93CDB7DEB7A1970FB6F894A2
:10063000DEBF0FBECDBF19A2423008F44AE08E01E2
:100640000F5D1F4F842E912CB12CA12CA50194017C
:100650000E94010BE62FB901CA01EA30F4F4E05D13
:10066000D801EE938D01232B242B252B79F790E0D5
:1006700080E0109719F0CD010E94FE02A1960FB6FE
:10068000F894DEBF0FBECDBFDF91CF911F910F91C8
:10069000BF90AF909F908F900895E95CE1CFCF938A
:1006A000DF930E944702EC018BE391E00E94FE027F
:1006B0008C0F9D1FDF91CF9108958F929F92AF92E3
:1006C000BF92CF92DF92EF92FF9284EA90E00E9475
:1006D00047020E944E014AE00E940B0380EA90E02C
:1006E0000E94470260917E0170917F01809180019C
:1006F000909181014AE00E940B038AE990E00E94F8
:1007000047026091930170E090E080E04AE00E942F
:100710000B0382E990E00E94470260918D0170E036
:1007200090E080E04AE00E940B038CE890E00E9499
:1007300047028091000190910101009711F00E9401
:10074000FE0285E890E00E944702C0900401D0902C
:100750000501E0900601F090070120E030E0A901DA
:10076000C701B6010E94320987FF37C081E890E0D7
:100770000E94470287E790E00E9447026091820151
:100780007091830180918401909185014AE00E94DB
:100790000B0380E790E00E94470260918A0170E0BD
:1007A00090E080E04AE00E940B0388E690E00E941F
:1007B000470260918B0170E090E080E04AE00E9487
:1007C0000B038BE391E0FF90EF90DF90CF90BF9011
:1007D000AF909F908F900C94FE02A7019601C701E5
:1007E000B6010E94FC0A882329F08EE391E00E9462
:1007F000FE02C0CF46015701E894B7F82FEF3FEF54
:100800004FE75FE7C501B4010E94FC0A81110DC0EA
:100810002FEF3FEF4FE75FE7C501B4010E943209B8
:1008200018161CF482E491E0E2CF2FEF3FEF4FE780
:100830005FE4C701B6010E948A0A18161CF486E418
:1008400091E0D5CF2FEF3FEF4FE75FECC701B60147
:100850000E94320987FDF3CF2DEC3CEC4CE45DE3C4
:10086000C701B6010E94C6084B015C010E94A9099C
:100870006B017C010E94D8099B01AC01C501B40148
:100880000E94C5084B015C014AE0C701B6010E9405
:100890000B036EE281EA91E00E94FA0120E030E071
:1008A00040E251E4C501B4010E948F0A0E94A909E7
:1008B00090E080E04AE00E940B035CCF1F920F9211
:1008C0000FB60F9211242F933F938F939F93AF9363
:1008D000BF9380919D0190919E01A0919F01B09145
:1008E000A00130919C0123E0230F2D3758F501968C
:1008F000A11DB11D20939C0180939D0190939E01A9
:10090000A0939F01B093A0018091980190919901CB
:10091000A0919A01B0919B010196A11DB11D8093F8
:10092000980190939901A0939A01B0939B01BF9174
:10093000AF919F918F913F912F910F900FBE0F908C
:100940001F90189526E8230F0296A11DB11DD2CF46
:100950001F920F920FB60F9211242F933F934F9334
:100960005F936F937F938F939F93AF93BF93EF9317
:10097000FF9381EA91E00E94D801FF91EF91BF912E
:10098000AF919F918F917F916F915F914F913F9127
:100990002F910F900FBE0F901F9018951F920F92DE
:1009A0000FB60F9211242F938F939F93EF93FF9382
:1009B000E091B101F091B2018081E091B701F09135
:1009C000B80182FD1BC090818091BA018F5F8F7347
:1009D0002091BB01821741F0E091BA01F0E0EF55A0
:1009E000FE4F958F8093BA01FF91EF919F918F9168
:1009F0002F910F900FBE0F901F9018958081F4CF0C
:100A0000CF92DF92EF92FF920F931F93E82FF92F6F
:100A100005C0015011092109310961F19081962326
:100A20009417B9F305C0015011092109310911F1D9
:100A3000908196239413F7CFC12CD12CE12CF12C6B
:100A40000AC08FEFC81AD80AE80AF80A0C151D0563
:100A50002E053F0579F080818623841791F36C2D54
:100A60007D2D8E2D9F2D1F910F91FF90EF90DF9088
:100A7000CF90089560E070E080E090E01F910F91CA
:100A8000FF90EF90DF90CF900895789484B58260C6
:100A900084BD84B5816084BD85B5826085BD85B522
:100AA000816085BD80916E00816080936E001092A0
:100AB000810080918100826080938100809181001B
:100AC00081608093810080918000816080938000AC
:100AD0008091B10084608093B1008091B00081600A
:100AE0008093B00080917A00846080937A00809136
:100AF0007A00826080937A0080917A00816080938E
:100B00007A0080917A00806880937A001092C10008
:100B100061E087E00E941D0161E086E00E941D0106
:100B200061E085E00E941D0161E084E00E941D01FA
:100B300061E083E00E941D0160E082E00E941D01EF
:100B400060E083E00E94D1000E944E01AB01BC0135
:100B50001092930190E080E00E94B702E091B10111
:100B6000F091B20182E08083E091AD01F091AE019D
:100B70001082E091AF01F091B0018FEC8083109270
:100B8000B901E091B501F091B60186E08083E09172
:100B9000B301F091B401808180618083E091B30161
:100BA000F091B401808188608083E091B301F0917D
:100BB000B401808180688083E091B301F091B40139
:100BC00080818F7D80838DEA90E00E944F0393E2C5
:100BD000292E312C412C512C20E8622E2FEB722E25
:100BE0000E944E016B017C01C1E381EA91E00E9409
:100BF000B801892B09F49BC0C15009F498C081EA5F
:100C000091E00E94960190917D018A3019F08D301B
:100C100009F06CC0911162C0E0917C01EE2309F4EF
:100C20005DC0F0E0E859FE4F10826BE471E088E6A9
:100C300091E00E94290B892B41F06AE471E088E67B
:100C400091E00E94290B892B69F410929301B7015E
:100C5000A60190E080E00E94B70281EE90E00E9441
:100C60004F033CC060E571E088E691E00E94290BEB
:100C7000892BA1F48091930181110DC021E0209373
:100C800093012093030110928C01B701A60181E02A
:100C900090E00E94B70288ED90E0E1CF66E571E058
:100CA00088E691E00E94290B892B19F48BEC90E0E7
:100CB000D6CF6CE571E088E691E00E94290B892B84
:100CC00019F486EC90E0CBCF61E671E088E691E024
:100CD0000E94290B892B39F40E945D0310927C013C
:100CE00010927D0182CF8AEB90E0B9CF91117DCF38
:100CF000E0917C01E33148F491E09E0F90937C01F8
:100D0000F0E0E859FE4F808370CF10927C0131E013
:100D100030937D0110929301B701A60190E080E02D
:100D20000E94B70289EE90E00E944F035ECF0E94BE
:100D30004E01C0908F01D0909001E0909101F09011
:100D400092019B01AC012C193D094E095F09690113
:100D50007A0130E5C316D104E104F10408F492C02D
:100D600060938F0170939001809391019093920111
:100D700060E083E00E94D1008FE090E00197F1F7FE
:100D800061E083E00E94D100C1010197F1F760E0CA
:100D900083E00E94D100E6E2F1E06491E2E1F1E05B
:100DA0008491E82FF0E0EE0FFF1FEE50FF4F85918A
:100DB000949108EA11E620E030E0462F0E940005F9
:100DC0006B017C01C114D104E104F10439F0FFEF9F
:100DD000CF1ADF0AEF0AFF0A2FE0F222C092820147
:100DE000D0928301E0928401F092850180917E018E
:100DF00090917F01A0918001B09181010196A11D88
:100E0000B11D80937E0190937F01A0938001B093E8
:100E10008101C701B6010E94D80920E030E048E610
:100E200052E40E9437094B015C01809204019092C8
:100E30000501A0920601B0920701CD28CE28CF2847
:100E400099F020E030E040E050E40E94320987FD54
:100E50000BC020E030E048EC53E4C501B4010E942F
:100E60008A0A18160CF074C04092040150920501D1
:100E7000609206017092070110928C0110928A0113
:100E800010928B010E944E016B017C0180919301B5
:100E9000882391F18090040190900501A0900601B3
:100EA000B0900701C0918D01D0918E0120E030E01B
:100EB000A901C501B4010E94320987FD16C08091C5
:100EC0008F0190919001A0919101B0919201A701A1
:100ED0009601281B390B4A0B5B0BDA01C901893CCF
:100EE0009105A105B10508F45AC0B701A60187E034
:100EF00090E0279709F0A4C00E944E01C090940191
:100F0000D0909501E0909601F09097016C197D09C1
:100F10008E099F096C3271408105910560F00E9435
:100F20004E01609394017093950180939601909384
:100F300097010E945D0380E090E0892B09F450CE78
:100F40000E94C401882309F44BCE0E94000048CEC1
:100F500080918C01823018F48F5F80938C0120E0A7
:100F600030E04CE052E4C501B4010E943209181689
:100F70005CF010928B0180918A01823008F082CF60
:100F80008F5F80938A017ECF10928A0180918B01BE
:100F9000823008F077CF8F5F80938B0173CFC7309B
:100FA000D10551F480918C01823008F4A5CFB701AE
:100FB000A60181E090E044C0C330D10509F45AC0D5
:100FC00090F4C130D10589F1229709F095CF20E046
:100FD00030E04CE052E4C501B4010E943209181619
:100FE0000CF48ACFE4CFC530D10509F486C008F4EB
:100FF00069C0269709F080CF809186019091870182
:10100000A0918801B0918901A7019601281B390B95
:101010004A0B5B0BDA01C9018A389240A105B10580
:1010200008F46ACF10928C01C2CF80918B0182307C
:1010300050F031E030930301B701A60182E090E067
:101040000E94B70259CF80918A01823008F454CFB0
:1010500080910301882359F08091020141E08427A7
:101060008093020183E090E0B701A601E9CF85E01B
:1010700090E0FACF20E030E04CE052E4C501B4014A
:101080000E948A0A18160CF492CF809186019091E2
:101090008701A0918801B0918901A7019601281BC1
:1010A000390B4A0B5B0BDA01C90186399105A105A1
:1010B000B10508F421CF10920301B701A60184E025
:1010C00090E0BECF8091860190918701A091880128
:1010D000B0918901A7019601281B390B4A0B5B0BC4
:1010E000DA01C90180399140A105B10508F404CFA6
:1010F000B701A60185E090E0A3CF80918601909191
:101100008701A0918801B0918901A7019601281B50
:10111000390B4A0B5B0BDA01C90186399105A10530
:10112000B10508F4E9CEB701A60186E090E088CFCA
:10113000E1EAF1E01382128288EE93E0A0E0B0E0F1
:1011400084839583A683B7838CE091E09183808329
:1011500085EC90E09587848784EC90E0978786877C
:1011600080EC90E0918B808B81EC90E0938B828B74
:1011700082EC90E0958B848B86EC90E0978B868B4D
:10118000118E128E138E148E08955058BB27AA27E5
:101190000E94DD080C94500A0E94420A38F00E9416
:1011A000490A20F039F49F3F19F426F40C943F0AC1
:1011B0000EF4E095E7FB0C94390AE92F0E94610ACE
:1011C00058F3BA17620773078407950720F079F47C
:1011D000A6F50C94830A0EF4E0950B2EBA2FA02DE1
:1011E0000B01B90190010C01CA01A0011124FF27D4
:1011F000591B99F0593F50F4503E68F11A16F040CF
:10120000A22F232F342F4427585FF3CF46953795CD
:101210002795A795F0405395C9F77EF41F16BA0B92
:10122000620B730B840BBAF09150A1F0FF0FBB1F40
:10123000661F771F881FC2F70EC0BA0F621F731F89
:10124000841F48F4879577956795B795F7959E3FE6
:1012500008F0B0CF9395880F08F09927EE0F979577
:10126000879508950E94150A08F481E008950E9468
:101270004B090C94500A0E94490A58F00E94420AF5
:1012800040F029F45F3F29F00C94390A51110C9475
:10129000840A0C943F0A0E94610A68F39923B1F30F
:1012A000552391F3951B550BBB27AA27621773078C
:1012B000840738F09F5F5F4F220F331F441FAA1F20
:1012C000A9F335D00E2E3AF0E0E832D091505040DC
:1012D000E695001CCAF72BD0FE2F29D0660F771F8A
:1012E000881FBB1F261737074807AB07B0E809F070
:1012F000BB0B802DBF01FF2793585F4F3AF09E3FF5
:10130000510578F00C94390A0C94840A5F3FE4F399
:10131000983ED4F3869577956795B795F7959F5F37
:10132000C9F7880F911D9695879597F90895E1E083
:10133000660F771F881FBB1F621773078407BA07E2
:1013400020F0621B730B840BBA0BEE1F88F7E0953D
:1013500008950E94690A88F09F5798F0B92F99273D
:10136000B751B0F0E1F0660F771F881F991F1AF090
:10137000BA95C9F714C0B13091F00E94830AB1E068
:1013800008950C94830A672F782F8827B85F39F067
:10139000B93FCCF3869577956795B395D9F73EF429
:1013A00090958095709561957F4F8F4F9F4F0895D1
:1013B000E89409C097FB3EF49095809570956195EF
:1013C0007F4F8F4F9F4F9923A9F0F92F96E9BB27A5
:1013D0009395F695879577956795B795F111F8CF21
:1013E000FAF4BB0F11F460FF1BC06F5F7F4F8F4F8C
:1013F0009F4F16C0882311F096E911C0772321F082
:101400009EE8872F762F05C0662371F096E8862F19
:1014100070E060E02AF09A95660F771F881FDAF770
:10142000880F9695879597F90895990F0008550F9D
:10143000AA0BE0E8FEEF16161706E807F907C0F05A
:1014400012161306E407F50798F0621B730B840B62
:10145000950B39F40A2661F0232B242B252B21F43C
:1014600008950A2609F4A140A6958FEF811D811DDC
:10147000089597F99F6780E870E060E008959FEF16
:1014800080EC089500240A9416161706180609061B
:10149000089500240A9412161306140605060895EA
:1014A000092E0394000C11F4882352F0BB0F40F472
:1014B000BF2B11F460FF04C06F5F7F4F8F4F9F4FB2
:1014C000089557FD9058440F551F59F05F3F71F034
:1014D0004795880F97FB991F61F09F3F79F087959B
:1014E0000895121613061406551FF2CF4695F1DF24
:1014F00008C0161617061806991FF1CF86957105B4
:10150000610508940895E894BB2766277727CB01E7
:1015100097F908950E94150A08F48FEF08950E9424
:10152000A20A0C94500A0E94420A38F00E94490A0A
:1015300020F0952311F00C94390A0C943F0A1124E1
:101540000C94840A0E94610A70F3959FC1F3950F71
:1015500050E0551F629FF001729FBB27F00DB11D37
:10156000639FAA27F00DB11DAA1F649F6627B00DC7
:10157000A11D661F829F2227B00DA11D621F739FB0
:10158000B00DA11D621F839FA00D611D221F749FBE
:101590003327A00D611D231F849F600D211D822F05
:1015A000762F6A2F11249F5750409AF0F1F088232C
:1015B0004AF0EE0FFF1FBB1F661F771F881F915059
:1015C0005040A9F79E3F510580F00C94390A0C94C5
:1015D000840A5F3FE4F3983ED4F386957795679548
:1015E000B795F795E7959F5FC1F7FE2B880F911D83
:1015F0009695879597F908950E94150A880B990B7F
:101600000895A1E21A2EAA1BBB1BFD010DC0AA1F43
:10161000BB1FEE1FFF1FA217B307E407F50720F05B
:10162000A21BB30BE40BF50B661F771F881F991FD6
:101630001A9469F760957095809590959B01AC011F
:10164000BD01CF010895EE0FFF1F0590F491E02D2D
:101650000994FB01DC018D91019080190110D9F3EF
:08166000990B0895F894FFCFE7
:1016680035010101000080BF00000000FA015A01A5
:1016780087016202B8019601AA014652454E5445B7
:10168800005245004449524549544100455351557B
:1016980045524441005041524152000D0A006E61CA
:1016A8006E00696E66006F7666004553544F5000B1
:1016B80053544152540048454C4C4F0050494E47F2
:0816C800005354415455530036
:00000001FF
