:100000000C94F1000C9419010C9419010C94190131
:100010000C9419010C9419010C9419010C941901F8
:100020000C9419010C9419010C9419010C941901E8
:100030000C9419010C9419010C9419010C941901D8
:100040000C9495060C9419010C9405070C94DF068A
:100050000C9419010C9419010C9419010C941901B8
:100060000C9419010C94190147495241520045530F
:100070005155455244410044495245495441005468
:10008000524153004652454E5445004F4B3A434D62
:10009000443A004552524F3A434F4D414E444F5F10
:1000A000494E56414C49444F00504F4E4700515421
:1000B0003A52454144593A5635004F4B3A5245530E
:1000C00045545F4553544F50004F4B3A4553544F9E
:1000D00050004552524F3A4C494E48415F4C4F4EAA
:1000E000474100474553544F5300534547554952E4
:1000F000004155544F4E4F4D4F0050415241520018
:100100004445535649414E444F004C494E4B5F576E
:10011000414954004553544F50007C535441544579
:100120003A007C434D443A00455252007C444953C6
:10013000543A0051547C4D4F44453A004F4B3A4D90
:100140004F44453A004F4B3A4D4F44453A310051E8
:10015000543A52454144593A5635000000000023B4
:1001600000260029004556454E544F3A43555256F5
:10017000415F4558545241004556454E544F3A440C
:10018000455356494F5F494E49434941444F00004A
:10019000000000240027002A00000000002500289D
:1001A000002B0004040404040404040202020202FA
:1001B000020303030303030102040810204080012B
:1001C00002040810200102040810200000000800AA
:1001D000020100000304070000000000000000000E
:1001E000990A11241FBECFEFD8E0DEBFCDBF11E0CA
:1001F000A0E0B1E0EAE6FAE102C005900D92A83A6B
:10020000B107D9F722E0A8EAB1E001C01D92AD38EC
:10021000B207E1F710E0C1EFD0E004C02197FE0182
:100220000E94240DC03FD107C9F70E947C070C949F
:10023000330D0C94000090E0FC01E553FE4F249137
:10024000FC01E954FE4F3491FC01ED55FE4FE49161
:10025000EE23C9F0222339F0233001F1A8F4213034
:1002600019F1223029F1F0E0EE0FFF1FE756FE4FA3
:10027000A591B4918FB7F894EC91611126C0309597
:100280003E233C938FBF08952730A9F02830C9F052
:10029000243049F7809180008F7D03C080918000D9
:1002A0008F7780938000DFCF84B58F7784BDDBCFDD
:1002B00084B58F7DFBCF8091B0008F778093B000A5
:1002C000D2CF8091B0008F7DF9CF3E2BDACFCF9384
:1002D000DF9390E0FC01E954FE4F24918D559E4F31
:1002E000FC0184918823D1F090E0880F991FFC01D4
:1002F000E157FE4FA591B491FC01E756FE4FC59121
:10030000D49161110EC09FB7F8948C91E22FE095C3
:100310008E238C932881E223E8839FBFDF91CF91C6
:1003200008958FB7F894EC91E22BEC938FBFF6CF42
:100330003FB7F8948091E8019091E901A091EA011A
:10034000B091EB0126B5A89B05C02F3F19F001968F
:10035000A11DB11D3FBFBA2FA92F982F8827BC011F
:10036000CD01620F711D811D911D42E0660F771F47
:10037000881F991F4A95D1F708958F929F92AF9247
:10038000BF92CF92DF92EF92FF924B015C010E94ED
:1003900098016B017C010E9498016C197D098E09FE
:1003A0009F09683E734081059105A8F321E0821AF8
:1003B0009108A108B10888EEC80E83E0D81EE11CA0
:1003C000F11C81149104A104B10429F7FF90EF906E
:1003D000DF90CF90BF90AF909F908F9008952FB7F0
:1003E000F8946091E4017091E5018091E6019091AB
:1003F000E7012FBF0895AF92BF92CF92DF92EF92A5
:10040000FF920F931F93CF93DF936C017B018B01BE
:10041000040F151FEB015E01AE18BF08C017D1070E
:1004200059F06991D601ED91FC910190F081E02D98
:10043000C6010995892B79F7C501DF91CF911F91ED
:100440000F91FF90EF90DF90CF90BF90AF90089505
:10045000FC01538D448D252F30E0842F90E0821BCA
:10046000930B541710F0CF96089501970895FC014F
:10047000918D828D981761F0A28DAE0FBF2FB11DA7
:100480005D968C91928D9F5F9F73928F90E00895FF
:100490008FEF9FEF0895FC01918D828D981731F0B9
:1004A000828DE80FF11D858D90E008958FEF9FEF0D
:1004B0000895FC01918D228D892F90E0805C9F4FE3
:1004C000821B91098F739927089580EF91E00E9414
:1004D000590221E0892B09F420E0822F089580E061
:1004E00090E0892B29F00E94650281110C94000094
:1004F0000895FC01A48DA80FB92FB11DA35ABF4FB9
:100500002C91848D90E001968F739927848FA68912
:10051000B7892C93A089B1898C91837080648C9366
:10052000938D848D981306C00288F389E02D808115
:100530008F7D80830895EF92FF920F931F93CF9347
:10054000DF93EC0181E0888F9B8D8C8D98131AC00E
:10055000E889F989808185FF15C09FB7F894EE89F5
:10056000FF896083E889F989808183708064808352
:100570009FBF81E090E0DF91CF911F910F91FF909D
:10058000EF900895F62E0B8D10E00F5F1F4F0F7345
:100590001127E02E8C8D8E110CC00FB607FCFACF00
:1005A000E889F989808185FFF5CFCE010E94790223
:1005B000F1CFEB8DEC0FFD2FF11DE35AFF4FF082D1
:1005C0009FB7F8940B8FEA89FB8980818062CFCF37
:1005D0000F931F93CF93DF938C01D0E0C0E0F8011D
:1005E000EC0FFD1F6491662341F080EF91E00E94C3
:1005F0009B02892B11F02196F2CFCE01DF91CF9192
:100600001F910F910895CF93DF93EC01888D88237C
:10061000B9F0AA89BB89E889F9898C9185FD03C065
:10062000808186FD0DC00FB607FCF7CF8C9185FF4A
:10063000F2CF808185FFEDCFCE010E947902E9CF14
:10064000DF91CF91089561E087E00E941B0160E097
:1006500086E00E941B0160E085E00E941B0161E0D2
:1006600084E00E941B0184E090E09093D801809385
:10067000D701089560E087E00E941B0161E086E0F9
:100680000E941B0161E085E00E941B0160E084E0A4
:100690000E941B0183E090E09093D8018093D701E2
:1006A00008951F93CF93DF93162FD42FC22F682F57
:1006B00087E00E941B01612F86E00E941B016D2FC5
:1006C00085E00E941B016C2F84E0DF91CF911F9188
:1006D0000C941B0120E041E060E081E00E945103A6
:1006E00082E090E09093D8018093D701089521E0B3
:1006F00040E061E080E00E94510381E090E090934F
:10070000D8018093D701089520E040E060E080E0C8
:100710000E9451031092D8011092D70108951092AF
:10072000DA011092D9011092D5010C948403FC01D6
:1007300001900020E9F73197AF01481B590BBC012C
:1007400080EF91E00C94FB018F929F92AF92BF9249
:100750000F931F93CF93DF93CDB7DEB7A1970FB65B
:10076000F894DEBF0FBECDBF19A2423008F44AE0B4
:100770008E010F5D1F4F842E912CB12CA12CA50151
:1007800094010E94020DE62FB901CA01EA30F4F487
:10079000E05DD801EE938D01232B242B252B79F7D7
:1007A00090E080E0109719F0CD010E949703A19688
:1007B0000FB6F894DEBF0FBECDBFDF91CF911F9172
:1007C0000F91BF90AF909F908F900895E95CE1CF1B
:1007D000CF93DF930E94E802EC0184E291E00E9453
:1007E00097038C0F9D1FDF91CF910895CF93DF93D7
:1007F000EC019093DC018093DB014093DD01509389
:10080000DE016093DF017093E00181E08093E101FC
:10081000209749F08091000190910101019729F002
:10082000C230D10511F40E948F038BE890E00E9442
:10083000E80221978AEF90E0C530D10530F4CC0F63
:10084000DD1FC85FDE4F88819981DF91CF910C94C5
:10085000E803CF93C82F90E09093010180930001AB
:1008600081E090E0C13011F090E080E09093DC01F5
:100870008093DB014093DD015093DE016093DF0143
:100880007093E0010E948F038CE391E00E94E802E4
:100890006C2F70E090E080E04AE00E94A40384E2C4
:1008A00091E0CF910C9497038F929F92AF92BF9259
:1008B000CF92DF92EF92FF926093EC017093ED0183
:1008C0008093EE019093EF0183E391E00E94E802B0
:1008D0006091000170E090E080E04AE00E94A40393
:1008E0008CE291E00E94E802C0900201D0900301E6
:1008F000E0900401F090050120E030E0A901C7017B
:10090000B6010E94330B87FF33C088E291E00E945A
:10091000E80282E291E00E94E8028091D701909182
:10092000D80101978530910508F093C0880F991F71
:10093000FC01E85FFE4F808191810E94E8028AE11C
:1009400091E00E94E8028091E201882309F484C0CA
:1009500084E191E00E94E80284E291E0FF90EF9050
:10096000DF90CF90BF90AF909F908F900C949703A3
:10097000A7019601C701B6010E94FD0C882329F04A
:1009800087E291E00E949703C4CF46015701E894A3
:10099000B7F82FEF3FEF4FE75FE7C501B4010E94C3
:1009A000FD0C81110DC02FEF3FEF4FE75FE7C50151
:1009B000B4010E94330B18161CF48BE291E0E2CFD5
:1009C0002FEF3FEF4FE75FE4C701B6010E948B0CAA
:1009D00018161CF48FE291E0D5CF2FEF3FEF4FE7D1
:1009E0005FECC701B6010E94330B87FDF3CF2DECFE
:1009F0003CEC4CE45DE3C701B6010E94C70A4B0121
:100A00005C010E94AA0B6B017C010E94D90B9B0127
:100A1000AC01C501B4010E94C60A4B015C014AE069
:100A2000C701B6010E94A4036EE280EF91E00E942C
:100A30009B0220E030E040E251E4C501B4010E9495
:100A4000900C0E94AA0B90E080E04AE00E94A40370
:100A500060CF8AEF90E071CF8091E101811103C0F6
:100A60008AE091E077CF8091D9019091DA01892BCA
:100A700019F080E091E06ECF80910001909101012A
:100A80008130910529F0029731F083EE90E062CF3A
:100A900081EF90E05FCF8AEE90E05CCFCF92DF9263
:100AA000EF92FF920F931F930091EC011091ED01D3
:100AB0002091EE013091EF016B017C01C01AD10A47
:100AC000E20AF30A970186010A3F11052105310563
:100AD00040F01F910F91FF90EF90DF90CF900C941A
:100AE00054041F910F91FF90EF90DF90CF900895E5
:100AF000CF92DF92EF92FF92CF936B017C01C1E026
:100B000080EF91E00E945902181619060CF007C1F7
:100B100080EF91E00E9437029091CB018A3019F06A
:100B20008D3009F0E4C0992329F01092CB01109286
:100B3000CA01E6CFE091CA01EE2311F3F0E0E855D7
:100B4000FE4F108263E371E088EA91E00E942A0D73
:100B5000892B31F4B701A60181E00E942904E7CF77
:100B60006AE371E088EA91E00E942A0D892B21F462
:100B7000B701A60182E0F1CF61E471E088EA91E07B
:100B80000E942A0D892B21F4B701A60183E0E5CF4D
:100B900068E471E088EA91E00E942A0D892B39F41B
:100BA000B701A60181E090E00E94F603C0CF63E5A3
:100BB00071E088EA91E00E942A0D892B29F4B7019F
:100BC000A60182E090E0F0CF6CE571E088EA91E068
:100BD0000E942A0D892B29F4B701A60183E090E039
:100BE000E3CF68E671E088EA91E00E942A0D892B44
:100BF00029F4B701A60184E090E0D6CF65E771E063
:100C000088EA91E00E942A0D892B29F4B701A601F8
:100C100090E080E0C9CF6FE771E088EA91E00E9440
:100C20002A0D892B29F4B701A60185E090E0BCCFFD
:100C30006FE871E088EA91E00E942A0D892B49F45F
:100C4000C093E2010E948F0389EC90E00E94E803C8
:100C50006ECF69E871E088EA91E00E942A0D892B45
:100C600001F51092E20181E090E0209100013091C5
:100C700001012130310511F090E080E09093DC011A
:100C80008093DB01C092DD01D092DE01E092DF01B2
:100C9000F092E0011092E1010E948F038AEB90E054
:100CA000D5CF65E971E088EA91E00E942A0D892B91
:100CB00019F48EEA90E0CACF6BE971E088EA91E01E
:100CC0000E942A0D892B19F489EA90E0BFCF60EACF
:100CD00071E088EA91E00E942A0D892B29F4C7016E
:100CE000B6010E94540423CF83E990E0AFCF911165
:100CF00007CFE091CA01E13248F491E09E0F909352
:100D0000CA01F0E0E855FE4F8083FACE1092CA0186
:100D1000C093CB0182ED90E00E94E803F1CECF9129
:100D2000FF90EF90DF90CF9008951F920F920FB633
:100D30000F9211242F933F938F939F93AF93BF9361
:100D40008091E4019091E501A091E601B091E70165
:100D50003091E30123E0230F2D3758F50196A11DB3
:100D6000B11D2093E3018093E4019093E501A093EA
:100D7000E601B093E7018091E8019091E901A0912B
:100D8000EA01B091EB010196A11DB11D8093E8012C
:100D90009093E901A093EA01B093EB01BF91AF9169
:100DA0009F918F913F912F910F900FBE0F901F90A9
:100DB000189526E8230F0296A11DB11DD2CF1F92D0
:100DC0000F920FB60F9211242F933F934F935F937F
:100DD0006F937F938F939F93AF93BF93EF93FF9303
:100DE00080EF91E00E947902FF91EF91BF91AF9166
:100DF0009F918F917F916F915F914F913F912F9133
:100E00000F900FBE0F901F9018951F920F920FB664
:100E10000F9211242F938F939F93EF93FF93E09161
:100E20000002F09101028081E0910602F091070238
:100E300082FD1BC09081809109028F5F8F7320918A
:100E40000A02821741F0E0910902F0E0E051FE4F02
:100E5000958F80930902FF91EF919F918F912F9130
:100E60000F900FBE0F901F9018958081F4CFCF92F6
:100E7000DF92EF92FF920F931F93E82FF92F05C097
:100E8000015011092109310961F1908196239417CC
:100E9000B9F305C0015011092109310911F19081FF
:100EA00096239413F7CFC12CD12CE12CF12C0AC03E
:100EB0008FEFC81AD80AE80AF80A0C151D052E0586
:100EC0003F0579F080818623841791F36C2D7D2D69
:100ED0008E2D9F2D1F910F91FF90EF90DF90CF905F
:100EE000089560E070E080E090E01F910F91FF9026
:100EF000EF90DF90CF900895789484B5826084BDA0
:100F000084B5816084BD85B5826085BD85B581600D
:100F100085BD80916E00816080936E00109281008B
:100F20008091810082608093810080918100816046
:100F30008093810080918000816080938000809107
:100F4000B10084608093B1008091B0008160809393
:100F5000B00080917A00846080937A0080917A005A
:100F6000826080937A0080917A00816080937A0019
:100F700080917A00806880937A001092C10061E0CD
:100F800087E00E94670161E086E00E94670161E0FE
:100F900085E00E94670161E084E00E94670161E0F2
:100FA00083E00E94670160E082E00E94670160E0E8
:100FB00083E00E941B010E948403E0910002F091F3
:100FC000010282E08083E091FC01F091FD0110823A
:100FD000E091FE01F091FF018FEC808310920802F6
:100FE000E0910402F091050286E08083E091020224
:100FF000F0910302808180618083E0910202F09190
:101000000302808188608083E0910202F0910302F4
:10101000808180688083E0910202F09103028081E8
:101020008F7D808360ED77E080E090E00E94BD01DD
:101030000E94EF016093DD017093DE018093DF0178
:101040009093E0018FE491E00E94E80385E491E051
:101050000E94E8030E94EF016B017C010E94EF01F6
:101060006C197D098E099F096E3E724081059105BC
:1010700008F4ABC044E0A42EB12C22E0222E312C87
:1010800033E0832E912C0E94EF016B017C010E94C2
:1010900078058091CD019091CE01A091CF01B091C2
:1010A000D001A7019601281B390B4A0B5B0BDA0113
:1010B000C90180359105A105B10508F47EC0C09233
:1010C000CD01D092CE01E092CF01F092D00160E04C
:1010D00083E00E941B018FE090E00197F1F761E04F
:1010E00083E00E941B018BE290E00197F1F760E042
:1010F00083E00E941B01E9EBF1E06491E5EAF1E095
:101100008491E82FF0E0EE0FFF1FE55AFE4F859126
:10111000949100E315E720E030E0462F0E94370766
:10112000611571058105910531F16F5F7F4F8F4F1B
:101130009F4F9F706115710581059105E1F00E9437
:10114000D90B20E030E048E652E40E94380B2B0136
:101150003C0120E030E040E050E40E94330B87FD8A
:101160000AC020E030E048EC53E4C301B2010E9421
:101170008B0C181634F4412C512C80E8682E8FEB20
:10118000782E409202015092030160920401709205
:10119000050120E030E0A901C301B2010E94330B38
:1011A00087FF20C08091CC018F3F19F08F5F809323
:1011B000CC011092D5011092D6018091E2018823D2
:1011C00009F43FC00E9484035DC00E9484030E9412
:1011D000EF010E94780561E070E080E090E00E94FD
:1011E000BD013CCF1092CC01C091D901D091DA0160
:1011F000C430D10529F41092D6011092D501DDCF6B
:1012000020E030E04CE052E4C301B2010E94330B15
:10121000181654F01092D5018091D6018F3F69F2D3
:101220008F5F8093D601C9CF1092D601259729F7F9
:101230008091D5018F3F09F4C0CF8F5F8093D50196
:10124000BCCF8091E1018823A9F08091DD019091CC
:10125000DE01A091DF01B091E001A7019601281BFA
:10126000390B4A0B5B0BDA01C9018D3D9540A10595
:10127000B105C8F01092E1011092DC011092DB017F
:101280000E948F03C701B6010E944E05E0E0F0E026
:10129000EF2B09F4F8CE0E946502882309F4EDCE05
:1012A0000E940000EACE8091D9019091DA01009766
:1012B00009F4CFC04091D1015091D2016091D30186
:1012C0007091D40126013701441A550A660A770A3B
:1012D0008330910509F444C098F48130910541F1BF
:1012E000029781F65EEE451652E0550661047104E0
:1012F00048F20E9484039092DA018092D90127C0BB
:101300008530910509F456C008F441C0069709F0EC
:10131000B9CF44EF441641E054066104710408F467
:10132000B1CF1092DA011092D9011092D601AACF52
:101330000E94840348EC441651046104710408F4CB
:10134000A1CF0E946A033092DA012092D901C092A3
:10135000D101D092D201E092D301F092D40192CF88
:1013600086E9481651046104710408F48BCF109289
:10137000D60180910601882339F00E943A03B09289
:10138000DA01A092D901E3CF0E942303F8CF9AE8B3
:10139000491692E059066104710408F473CF0E9463
:1013A0008403E5E0F0E0F093DA01E093D9011092D4
:1013B000D501CDCFFAEF4F1651046104710408F442
:1013C00061CF8091D501823048F00E94770326E0FA
:1013D00030E03093DA012093D901B9CF3AE84316CF
:1013E00032E053066104710408F44CCF20E030E091
:1013F000A901609102017091030180910401909113
:1014000005010E948B0C18160CF03CCF8091D60180
:10141000823008F437CF1092D6011092D501809116
:101420000601882399F00E943A03B092DA01A09253
:10143000D901C092D101D092D201E092D301F092B1
:10144000D40185E691E00E94E8031CCF0E942303AB
:10145000ECCF8091000190910101019709F442C005
:10146000C091DB01D091DC01C130D10549F0C3301E
:10147000D10531F0C430D10519F0C530D105A9F539
:1014800020E030E0A9016091020170910301809198
:101490000401909105010E948B0C181634F580917F
:1014A000D601823010F10E9484031092D60110926E
:1014B000D501809107018093060191E089278093EF
:1014C000070181E090E09093DA018093D901C09206
:1014D000D101D092D201E092D301F092D40188E7F9
:1014E00091E0B1CFC1E0D0E0CBCFC330D105D9F08E
:1014F00048F4C130D105A1F0229709F063CE0E94D3
:101500006A03C0CEC430D10589F0C530D10509F0D9
:1015100059CE0E943A03D093D801C093D701B2CEDE
:101520000E947703AFCE0E943A03ACCE0E94230301
:10153000A9CEE0EFF1E01382128288EE93E0A0E002
:10154000B0E084839583A683B78386E191E091839D
:10155000808385EC90E09587848784EC90E0978782
:10156000868780EC90E0918B808B81EC90E0938B70
:10157000828B82EC90E0958B848B86EC90E0978B4D
:10158000868B118E128E138E148E08955058BB27A1
:10159000AA270E94DE0A0C94510C0E94430C38F0DA
:1015A0000E944A0C20F039F49F3F19F426F40C9461
:1015B000400C0EF4E095E7FB0C943A0CE92F0E94E6
:1015C000620C58F3BA17620773078407950720F077
:1015D00079F4A6F50C94840C0EF4E0950B2EBA2F3A
:1015E000A02D0B01B90190010C01CA01A001112429
:1015F000FF27591B99F0593F50F4503E68F11A16D5
:10160000F040A22F232F342F4427585FF3CF469565
:1016100037952795A795F0405395C9F77EF41F1687
:10162000BA0B620B730B840BBAF09150A1F0FF0F51
:10163000BB1F661F771F881FC2F70EC0BA0F621F3D
:10164000731F841F48F4879577956795B795F7952D
:101650009E3F08F0B0CF9395880F08F09927EE0FC2
:101660009795879508950E94160C08F481E00895D7
:101670000E944C0B0C94510C0E944A0C58F00E9492
:10168000430C40F029F45F3F29F00C943A0C5111BF
:101690000C94850C0C94400C0E94620C68F3992306
:1016A000B1F3552391F3951B550BBB27AA2762175E
:1016B0007307840738F09F5F5F4F220F331F441F6B
:1016C000AA1FA9F335D00E2E3AF0E0E832D091509F
:1016D0005040E695001CCAF72BD0FE2F29D0660F8C
:1016E000771F881FBB1F261737074807AB07B0E8CF
:1016F00009F0BB0B802DBF01FF2793585F4F3AF0D5
:101700009E3F510578F00C943A0C0C94850C5F3F89
:10171000E4F3983ED4F3869577956795B795F7955A
:101720009F5FC9F7880F911D9695879597F9089542
:10173000E1E0660F771F881FBB1F621773078407DE
:10174000BA0720F0621B730B840BBA0BEE1F88F7ED
:10175000E09508950E946A0C88F09F5798F0B92F81
:101760009927B751B0F0E1F0660F771F881F991FD6
:101770001AF0BA95C9F714C0B13091F00E94840CE8
:10178000B1E008950C94840C672F782F8827B85FF8
:1017900039F0B93FCCF3869577956795B395D9F72E
:1017A0003EF490958095709561957F4F8F4F9F4F38
:1017B0000895E89409C097FB3EF490958095709544
:1017C00061957F4F8F4F9F4F9923A9F0F92F96E98D
:1017D000BB279395F695879577956795B795F11102
:1017E000F8CFFAF4BB0F11F460FF1BC06F5F7F4F9F
:1017F0008F4F9F4F16C0882311F096E911C07723B1
:1018000021F09EE8872F762F05C0662371F096E8B9
:10181000862F70E060E02AF09A95660F771F881F88
:10182000DAF7880F9695879597F90895990F00082C
:10183000550FAA0BE0E8FEEF16161706E807F907A2
:10184000C0F012161306E407F50798F0621B730B3D
:10185000840B950B39F40A2661F0232B242B252BBE
:1018600021F408950A2609F4A140A6958FEF811D61
:10187000811D089597F99F6780E870E060E0089502
:101880009FEF80EC089500240A9416161706180698
:101890000906089500240A94121613061406050674
:1018A0000895092E0394000C11F4882352F0BB0F05
:1018B00040F4BF2B11F460FF04C06F5F7F4F8F4F68
:1018C0009F4F089557FD9058440F551F59F05F3FA3
:1018D00071F04795880F97FB991F61F09F3F79F052
:1018E00087950895121613061406551FF2CF4695D4
:1018F000F1DF08C0161617061806991FF1CF869556
:101900007105610508940895E894BB276627772739
:10191000CB0197F908950E94160C08F48FEF0895F3
:101920000E94A30C0C94510C0E94430C38F00E94AE
:101930004A0C20F0952311F00C943A0C0C94400CB6
:1019400011240C94850C0E94620C70F3959FC1F3D6
:10195000950F50E0551F629FF001729FBB27F00D5D
:10196000B11D639FAA27F00DB11DAA1F649F6627B2
:10197000B00DA11D661F829F2227B00DA11D621F01
:10198000739FB00DA11D621F839FA00D611D221FBB
:10199000749F3327A00D611D231F849F600D211D9F
:1019A000822F762F6A2F11249F5750409AF0F1F022
:1019B00088234AF0EE0FFF1FBB1F661F771F881F8B
:1019C00091505040A9F79E3F510580F00C943A0C7D
:1019D0000C94850C5F3FE4F3983ED4F3869577959D
:1019E0006795B795F795E7959F5FC1F7FE2B880F31
:1019F000911D9695879597F908950E94160C880B6E
:101A0000990B0895A1E21A2EAA1BBB1BFD010DC064
:101A1000AA1FBB1FEE1FFF1FA217B307E407F5079E
:101A200020F0A21BB30BE40BF50B661F771F881F7A
:101A3000991F1A9469F760957095809590959B0110
:101A4000AC01BD01CF010895EE0FFF1F0590F49189
:101A5000E02D0994FB01DC018D91019080190110AA
:0A1A6000D9F3990B0895F894FFCF15
:101A6A000100000080BF010184007F0077006E0042
:101A7A006800000000009B02FB01280203035902D0
:101A8A0037024B020D0A006E616E00696E66006FC6
:101A9A007666004D4F44453A31004D4F44453A323F
:101AAA00004D4F44453A3300434D443A4652454E61
:101ABA00544500434D443A5452415300434D443A2D
:101ACA004449524549544100434D443A45535155BE
:101ADA004552444100434D443A5041524152004319
:101AEA004D443A47495241520052455345545F4585
:101AFA0053544F500048454C4C4F0050494E4700F4
:081B0A005354415455530000EF
:00000001FF
