:100000000C94FF000C9427010C9427010C942701F9
:100010000C9427010C9427010C9427010C942701C0
:100020000C9427010C9427010C9427010C942701B0
:100030000C9427010C9427010C9427010C942701A0
:100040000C94BF060C9427010C942F070C940907FD
:100050000C9427010C9427010C9427010C94270180
:100060000C9427010C9427014749524152004553F3
:100070005155455244410044495245495441005468
:10008000524153004652454E5445004F4B3A434D62
:10009000443A004552524F3A434F4D414E444F5F10
:1000A000494E56414C49444F00504F4E4700515421
:1000B0003A52454144593A5635004F4B3A5245530E
:1000C00045545F4553544F50004F4B3A4553544F9E
:1000D00050004552524F3A4C494E48415F4C4F4EAA
:1000E000474100474553544F5300534547554952E4
:1000F000004155544F4E4F4D4F0050415241520018
:100100004445535649414E444F004C494E4B5F576E
:1001100041495400574149545F53454E534F520093
:100120004553544F50007C53544154453A007C434E
:100130004D443A00455252007C444953543A0051D0
:10014000547C4D4F44453A004F4B3A4D4F44453A4D
:10015000004F4B3A4D4F44453A310051543A5245C5
:100160004144593A5635000000000023002600297A
:10017000004556454E544F3A42555343415F45431F
:100180004F004556454E544F3A43555256415F45F0
:1001900058545241004556454E544F3A44455356E3
:1001A000494F5F494E49434941444F000000000018
:1001B000240027002A0000000000250028002B0052
:1001C00004040404040404040202020202020303FD
:1001D0000303030301020408102040800102040805
:1001E0001020010204081020000000080002010095
:1001F000000304070000000000000000550B11245C
:100200001FBECFEFD8E0DEBFCDBF11E0A0E0B1E070
:10021000E2EEFBE102C005900D92A83AB107D9F7D2
:1002200022E0A8EAB1E001C01D92A239B207E1F7CD
:1002300010E0CFEFD0E004C02197FE010E94E00D56
:10024000CE3FD107C9F70E94A6070C94EF0D0C947E
:10025000000090E0FC01E851FE4F2491FC01EC52BB
:10026000FE4F3491FC01E054FE4FE491EE23C9F0BF
:10027000222339F0233001F1A8F4213019F1223082
:1002800029F1F0E0EE0FFF1FEA54FE4FA591B49163
:100290008FB7F894EC91611126C030953E233C93C2
:1002A0008FBF08952730A9F02830C9F0243049F7CE
:1002B000809180008F7D03C0809180008F77809334
:1002C0008000DFCF84B58F7784BDDBCF84B58F7D91
:1002D000FBCF8091B0008F778093B000D2CF809118
:1002E000B0008F7DF9CF3E2BDACFCF93DF9390E034
:1002F000FC01EC52FE4F249180549E4FFC018491EE
:100300008823D1F090E0880F991FFC01E455FE4F3F
:10031000A591B491FC01EA54FE4FC591D4916111AD
:100320000EC09FB7F8948C91E22FE0958E238C93AA
:100330002881E223E8839FBFDF91CF9108958FB793
:10034000F894EC91E22BEC938FBFF6CF3FB7F89483
:100350008091ED019091EE01A091EF01B091F0013B
:1003600026B5A89B05C02F3F19F00196A11DB11D10
:100370003FBFBA2FA92F982F8827BC01CD01620F4C
:10038000711D811D911D42E0660F771F881F991F07
:100390004A95D1F708958F929F92AF92BF92CF92D4
:1003A000DF92EF92FF924B015C010E94A6016B016C
:1003B0007C010E94A6016C197D098E099F09683E87
:1003C000734081059105A8F321E0821A9108A108E4
:1003D000B10888EEC80E83E0D81EE11CF11C811420
:1003E0009104A104B10429F7FF90EF90DF90CF9022
:1003F000BF90AF909F908F9008952FB7F894609121
:10040000E9017091EA018091EB019091EC012FBF1D
:100410000895AF92BF92CF92DF92EF92FF920F9327
:100420001F93CF93DF936C017B018B01040F151F8A
:10043000EB015E01AE18BF08C017D10759F06991F2
:10044000D601ED91FC910190F081E02DC601099556
:10045000892B79F7C501DF91CF911F910F91FF9003
:10046000EF90DF90CF90BF90AF900895FC01538D37
:10047000448D252F30E0842F90E0821B930B54177E
:1004800010F0CF96089501970895FC01918D828D0B
:10049000981761F0A28DAE0FBF2FB11D5D968C91A4
:1004A000928D9F5F9F73928F90E008958FEF9FEFE3
:1004B0000895FC01918D828D981731F0828DE80F9F
:1004C000F11D858D90E008958FEF9FEF0895FC0159
:1004D000918D228D892F90E0805C9F4F821B910926
:1004E0008F739927089585EF91E00E94670221E0BC
:1004F000892B09F420E0822F089580E090E0892B79
:1005000029F00E94730281110C9400000895FC01EF
:10051000A48DA80FB92FB11DA35ABF4F2C91848D64
:1005200090E001968F739927848FA689B7892C93C1
:10053000A089B1898C91837080648C93938D848D14
:10054000981306C00288F389E02D80818F7D808317
:100550000895EF92FF920F931F93CF93DF93EC01D7
:1005600081E0888F9B8D8C8D98131AC0E889F9895A
:10057000808185FF15C09FB7F894EE89FF8960835D
:10058000E889F98980818370806480839FBF81E0DE
:1005900090E0DF91CF911F910F91FF90EF90089520
:1005A000F62E0B8D10E00F5F1F4F0F731127E02EFB
:1005B0008C8D8E110CC00FB607FCFACFE889F98933
:1005C000808185FFF5CFCE010E948702F1CFEB8DB0
:1005D000EC0FFD2FF11DE35AFF4FF0829FB7F89407
:1005E0000B8FEA89FB8980818062CFCF0F931F93A5
:1005F000CF93DF938C01D0E0C0E0F801EC0FFD1F3A
:100600006491662341F085EF91E00E94A902892B55
:1006100011F02196F2CFCE01DF91CF911F910F9172
:100620000895CF93DF93EC01888D8823B9F0AA89D0
:10063000BB89E889F9898C9185FD03C0808186FD9D
:100640000DC00FB607FCF7CF8C9185FFF2CF8081EC
:1006500085FFEDCFCE010E948702E9CFDF91CF91D8
:10066000089561E087E00E94290160E086E00E9431
:10067000290160E085E00E94290161E084E00E9498
:10068000290184E090E09093DD018093DC010895DE
:1006900060E087E00E94290161E086E00E94290174
:1006A00061E085E00E94290160E084E00E94290168
:1006B00083E090E09093DD018093DC0108951F9327
:1006C000CF93DF93162FD42FC22F682F87E00E947D
:1006D0002901612F86E00E9429016D2F85E00E948B
:1006E00029016C2F84E0DF91CF911F910C94290197
:1006F00020E041E060E081E00E945F0382E090E062
:100700009093DD018093DC01089521E040E061E0F9
:1007100080E00E945F0381E090E09093DD01809390
:10072000DC01089520E040E060E080E00E945F038B
:100730001092DD011092DC0108951092DF011092F9
:10074000DE011092DA010C949203FC01019000206A
:10075000E9F73197AF01481B590BBC0185EF91E0D8
:100760000C9409028F929F92AF92BF920F931F93A6
:10077000CF93DF93CDB7DEB7A1970FB6F894DEBF66
:100780000FBECDBF19A2423008F44AE08E010F5DC2
:100790001F4F842E912CB12CA12CA50194010E94F5
:1007A000BE0DE62FB901CA01EA30F4F4E05DD801CC
:1007B000EE938D01232B242B252B79F790E080E0FD
:1007C000109719F0CD010E94A503A1960FB6F894D9
:1007D000DEBF0FBECDBFDF91CF911F910F91BF90B4
:1007E000AF909F908F900895E95CE1CFCF93DF9316
:1007F0000E94F602EC0184E291E00E94A5038C0FB6
:100800009D1FDF91CF910895CF93DF93EC019093DB
:10081000E1018093E0014093E2015093E301609392
:10082000E4017093E50181E08093E601209749F0AF
:100830008091060190910701019729F0C230D105FE
:1008400011F40E949D038BE890E00E94F60221972C
:100850008AEF90E0C530D10530F4CC0FDD1FC85FC2
:10086000DE4F88819981DF91CF910C94F603CF936D
:10087000C82F90E0909307018093060181E090E0FB
:10088000C13011F090E080E09093E1018093E001AD
:100890004093E2015093E3016093E4017093E5011A
:1008A0000E949D0388E491E00E94F6026C2F70E0A4
:1008B00090E080E04AE00E94B20384E291E0CF91B0
:1008C0000C94A5038F929F92AF92BF92CF92DF922A
:1008D000EF92FF926093F1017093F2018093F30124
:1008E0009093F4018FE391E00E94F602609106017B
:1008F00070E090E080E04AE00E94B20388E391E07B
:100900000E94F602C0900001D0900101E090020127
:10091000F090030120E030E0A901C701B6010E9478
:10092000EF0B87FF33C084E391E00E94F6028EE272
:1009300091E00E94F6028091DC019091DD01019727
:100940008530910508F093C0880F991FFC01E85F7E
:10095000FE4F808191810E94F60286E291E00E9422
:10096000F6028091E701882309F484C080E291E0D7
:100970000E94F60284E291E0FF90EF90DF90CF902A
:10098000BF90AF909F908F900C94A503A701960104
:10099000C701B6010E94B90D882329F087E291E0D2
:1009A0000E94A503C4CF46015701E894B7F82FEF82
:1009B0003FEF4FE75FE7C501B4010E94B90D811118
:1009C0000DC02FEF3FEF4FE75FE7C501B4010E9475
:1009D000EF0B18161CF48BE291E0E2CF2FEF3FEF04
:1009E0004FE75FE4C701B6010E94470D18161CF4DB
:1009F0008FE291E0D5CF2FEF3FEF4FE75FECC701DC
:100A0000B6010E94EF0B87FDF3CF2DEC3CEC4CE4DC
:100A10005DE3C701B6010E94830B4B015C010E949C
:100A2000660C6B017C010E94950C9B01AC01C50119
:100A3000B4010E94820B4B015C014AE0C701B60180
:100A40000E94B2036EE285EF91E00E94A90220E0CD
:100A500030E040E251E4C501B4010E944C0D0E9417
:100A6000660C90E080E04AE00E94B20360CF8AEF1B
:100A700090E071CFE090DE01F090DF0185E0E816B4
:100A8000F104B1F420E030E0A9016091000170911F
:100A9000010180910201909103010E94EF0B87FFF9
:100AA00007C08091D901823018F084E191E060CFD5
:100AB000809106019091070181309105A1F020916C
:100AC000E601211103C08AE091E052CFEF2819F02E
:100AD00080E091E04DCF029719F083EE90E048CF8F
:100AE0008AEE90E045CF81EF90E0EF2889F740CF84
:100AF000CF92DF92EF92FF920F931F930091F1013B
:100B00001091F2012091F3013091F4016B017C010D
:100B1000C01AD10AE20AF30A970186010A3F1105B9
:100B20002105310540F01F910F91FF90EF90DF906C
:100B3000CF900C9462041F910F91FF90EF90DF9083
:100B4000CF900895CF92DF92EF92FF92CF936B01F7
:100B50007C01C1E085EF91E00E946702181619063A
:100B60000CF007C185EF91E00E9445029091CB0106
:100B70008A3019F08D3009F0E4C0992329F01092E1
:100B8000CB011092CA01E6CFE091CA01EE2311F326
:100B9000F0E0E855FE4F108263E371E088EA91E0EF
:100BA0000E94E60D892B31F4B701A60181E00E9475
:100BB0003704E7CF6AE371E088EA91E00E94E60D2E
:100BC000892B21F4B701A60182E0F1CF61E471E045
:100BD00088EA91E00E94E60D892B21F4B701A60175
:100BE00083E0E5CF68E471E088EA91E00E94E60DD9
:100BF000892B39F4B701A60181E090E00E9404043A
:100C0000C0CF63E571E088EA91E00E94E60D892B90
:100C100029F4B701A60182E090E0F0CF6CE571E025
:100C200088EA91E00E94E60D892B29F4B701A6011C
:100C300083E090E0E3CF68E671E088EA91E00E940B
:100C4000E60D892B29F4B701A60184E090E0D6CF08
:100C500065E771E088EA91E00E94E60D892B29F4AE
:100C6000B701A60190E080E0C9CF6FE771E088EAA4
:100C700091E00E94E60D892B29F4B701A60185E0D9
:100C800090E0BCCF6FE871E088EA91E00E94E60D49
:100C9000892B49F4C093E7010E949D0389EC90E001
:100CA0000E94F6036ECF69E871E088EA91E00E9445
:100CB000E60D892B01F51092E70181E090E020918B
:100CC0000601309107012130310511F090E080E0FC
:100CD0009093E1018093E001C092E201D092E301A0
:100CE000E092E401F092E5011092E6010E949D037A
:100CF0008AEB90E0D5CF65E971E088EA91E00E9447
:100D0000E60D892B19F48EEA90E0CACF6BE971E009
:100D100088EA91E00E94E60D892B19F489EA90E0B7
:100D2000BFCF60EA71E088EA91E00E94E60D892B6E
:100D300029F4C701B6010E94620423CF83E990E041
:100D4000AFCF911107CFE091CA01E13248F491E0B1
:100D50009E0F9093CA01F0E0E855FE4F8083FACED3
:100D60001092CA01C093CB0182ED90E00E94F6037D
:100D7000F1CECF91FF90EF90DF90CF9008951F922A
:100D80000F920FB60F9211242F933F938F939F933F
:100D9000AF93BF938091E9019091EA01A091EB019B
:100DA000B091EC013091E80123E0230F2D3758F585
:100DB0000196A11DB11D2093E8018093E901909354
:100DC000EA01A093EB01B093EC018091ED019091C9
:100DD000EE01A091EF01B091F0010196A11DB11DAE
:100DE0008093ED019093EE01A093EF01B093F00199
:100DF000BF91AF919F918F913F912F910F900FBE17
:100E00000F901F90189526E8230F0296A11DB11D83
:100E1000D2CF1F920F920FB60F9211242F933F93B0
:100E20004F935F936F937F938F939F93AF93BF93F2
:100E3000EF93FF9385EF91E00E948702FF91EF917E
:100E4000BF91AF919F918F917F916F915F914F91E2
:100E50003F912F910F900FBE0F901F9018951F92EA
:100E60000F920FB60F9211242F938F939F93EF93AE
:100E7000FF93E0910502F09106028081E0910B0260
:100E8000F0910C0282FD1BC0908180910E028F5F59
:100E90008F7320910F02821741F0E0910E02F0E073
:100EA000EB50FE4F958F80930E02FF91EF919F9133
:100EB0008F912F910F900FBE0F901F9018958081EA
:100EC000F4CFCF92DF92EF92FF920F931F93E82F10
:100ED000F92F05C0015011092109310961F19081F3
:100EE00096239417B9F305C001501109210931095E
:100EF00011F1908196239413F7CFC12CD12CE12CC2
:100F0000F12C0AC08FEFC81AD80AE80AF80A0C15A3
:100F10001D052E053F0579F080818623841791F306
:100F20006C2D7D2D8E2D9F2D1F910F91FF90EF9099
:100F3000DF90CF90089560E070E080E090E01F9136
:100F40000F91FF90EF90DF90CF900895789484B543
:100F5000826084BD84B5816084BD85B5826085BDB5
:100F600085B5816085BD80916E00816080936E0043
:100F70001092810080918100826080938100809135
:100F800081008160809381008091800081608093E6
:100F900080008091B10084608093B1008091B000A6
:100FA00081608093B00080917A00846080937A00A1
:100FB00080917A00826080937A0080917A008160CB
:100FC00080937A0080917A00806880937A001092F2
:100FD000C10061E087E00E94750161E086E00E9447
:100FE000750161E085E00E94750161E084E00E9486
:100FF000750161E083E00E94750160E082E00E947B
:10100000750160E083E00E9429010E949203E09153
:101010000502F091060282E08083E0910102F091E6
:1010200002021082E0910302F09104028FEC8083AF
:1010300010920D02E0910902F0910A0286E080838D
:10104000E0910702F0910802808180618083E09145
:101050000702F0910802808188608083E091070296
:10106000F0910802808180688083E0910702F0910E
:10107000080280818F7D808360ED77E080E090E0E2
:101080000E94CB010E94FD016093E2017093E30195
:101090008093E4019093E5018BE591E00E94F603D3
:1010A00081E591E00E94F6030E94FD016B017C0145
:1010B0000E94FD016C197D098E099F096E3E7240E8
:1010C0008105910508F4C0C0C4E0D0E023E0222EE1
:1010D000312C0E94FD016B017C010E94A2058091D0
:1010E000CD019091CE01A091CF01B091D001B70177
:1010F000A601481B590B6A0B7B0BDB01CA0180352B
:101100009105A105B10508F497C0C092CD01D09218
:10111000CE01E092CF01F092D00160E083E00E9426
:1011200029018FE090E00197F1F761E083E00E94F0
:1011300029018BE290E00197F1F760E083E00E94E3
:101140002901E6EDF1E06491E2ECF1E08491E82F11
:10115000F0E0EE0FFF1FE959FE4F8591949100E3F7
:1011600015E720E030E0462F0E9461076115710508
:101170008105910531F16F5F7F4F8F4F9F4F9F70BA
:101180006115710581059105E1F00E94950C20E043
:1011900030E048E652E40E94F40B4B015C0120E091
:1011A00030E040E050E40E94EF0B87FD0AC020E0F1
:1011B00030E048EC53E4C501B4010E94470D181615
:1011C00034F4812C912C80E8A82E8FEBB82E8092DD
:1011D000000190920101A0920201B092030120E06F
:1011E00030E0A901C501B4010E94EF0B87FF39C0AF
:1011F0008091CC018F3F19F08F5F8093CC0180915B
:10120000CC018230A8F48091D1019091D201A091BB
:10121000D301B091D401A7019601281B390B4A0BC9
:101220005B0BDA01C901813F9105A105B10510F001
:101230001092DA011092DB018091E701882309F412
:101240005EC00E94920384C00E9492030E94FD012E
:101250000E94A20561E070E080E090E00E94CB0176
:1012600027CF1092CC010091DE011091DF010430F4
:10127000110529F41092DB011092DA01DDCF20E094
:1012800030E04CE052E4C501B4010E94EF0B1816A7
:1012900054F01092DA018091DB018F3F69F28F5F89
:1012A0008093DB01C9CF1092DB010530110521F7D6
:1012B0008091D1019091D201A091D301B091D4013C
:1012C000B701A601481B590B6A0B7B0BDB01CA0156
:1012D000813F9105A105B10510F01092DA018091CE
:1012E000DA018F3F19F08F5F8093DA01C092D1014C
:1012F000D092D201E092D301F092D4019DCF2091FF
:10130000060130910701C9010297029790F580917B
:10131000E6018823A9F08091E2019091E301A09178
:10132000E401B091E501B701A601481B590B6A0B16
:101330007B0BDB01CA018D3D9540A105B105C8F0CD
:101340001092E6011092E1011092E0010E949D03CB
:10135000C701B6010E94780520E030E0232B09F494
:10136000B8CE0E947302882309F4B0CE0E94000018
:10137000ADCE8091DE019091DF01009709F425C187
:101380004091D5015091D6016091D7017091D8015B
:1013900046015701841A950AA60AB70A83309105B7
:1013A00009F446C098F48130910541F1029781F625
:1013B0009EEE891692E09906A104B10448F20E94BB
:1013C00092033092DF012092DE0129C08530910521
:1013D00009F458C008F443C0069709F0B9CF94EF58
:1013E000891691E09906A104B10408F4B1CF1092D6
:1013F000DF011092DE011092DB01AACF0E9492035E
:1014000068EC86169104A104B10408F4A1CF0E94EF
:10141000780382E090E09093DF018093DE01C09238
:10142000D501D092D601E092D701F092D80190CFA9
:10143000E6E98E169104A104B10408F489CF109254
:10144000DB0180910401882339F00E944803D09386
:10145000DF01C093DE01E3CF0E943103F8CFFAE849
:101460008F16F2E09F06A104B10408F471CF0E9428
:10147000920325E030E03093DF012093DE011092EB
:10148000DA01CDCF3AEF83169104A104B10408F438
:101490005FCF409000015090010160900201709078
:1014A000030120E030E04CE052E4C301B2010E94AD
:1014B000470D181614F58091D1019091D201A09199
:1014C000D301B091D401B701A601481B590B6A0B97
:1014D0007B0BDB01CA01813F9105A105B10568F4D1
:1014E0008091DA01823048F00E94850366E070E066
:1014F0007093DF016093DE0192CF7AE8871672E085
:101500009706A104B10408F423CF20E030E0A9013C
:10151000C301B2010E94470D18167CF48091DB01D3
:10152000823058F01092DB011092DA0180910401B0
:10153000811135C00E94310334C088EE881683E0E3
:101540009806A104B10408F403CF20E030E0A9011B
:10155000C301B2010E94EF0B87FFFACE8091D9013F
:10156000823008F0F5CE8F5F8093D9011092DB01B5
:101570001092DA0180910401882321F10E9448032E
:10158000D093DF01C093DE01C092D501D092D60185
:10159000E092D701F092D80181E791E010C00E945B
:1015A0004803D093DF01C093DE01C092D501D092F1
:1015B000D601E092D701F092D80182E891E00E9432
:1015C000F603C6CE0E943103DBCF2130310509F48A
:1015D00044C00091E0011091E1010130110549F092
:1015E0000330110531F00430110519F005301105F3
:1015F000B9F520E030E0A90160910001709101018E
:1016000080910201909103010E94470D181644F544
:101610008091DB01823020F10E9492031092DB0165
:101620001092DA011092D901809105018093040192
:1016300091E0892780930501E1E0F0E0F093DF017C
:10164000E093DE01C092D501D092D601E092D7019D
:10165000F092D80185E991E0B2CF01E010E0C9CF66
:1016600003301105E1F050F401301105A9F002300A
:10167000110509F0E6CD0E9478036ACE0430110509
:1016800089F00530110509F0DCCD0E944803109364
:10169000DD010093DC015CCE0E94850359CE0E94DF
:1016A000480356CE0E94310353CEE5EFF1E013829A
:1016B000128288EE93E0A0E0B0E084839583A68355
:1016C000B78386E191E09183808385EC90E09587F4
:1016D000848784EC90E09787868780EC90E0918BFC
:1016E000808B81EC90E0938B828B82EC90E0958BE9
:1016F000848B86EC90E0978B868B118E128E138EE6
:10170000148E08955058BB27AA270E949A0B0C9458
:101710000D0D0E94FF0C38F00E94060D20F039F4E8
:101720009F3F19F426F40C94FC0C0EF4E095E7FBB3
:101730000C94F60CE92F0E941E0D58F3BA1762079D
:1017400073078407950720F079F4A6F50C94400DF3
:101750000EF4E0950B2EBA2FA02D0B01B9019001CC
:101760000C01CA01A0011124FF27591B99F0593F10
:1017700050F4503E68F11A16F040A22F232F342F58
:101780004427585FF3CF469537952795A795F040A6
:101790005395C9F77EF41F16BA0B620B730B840BBB
:1017A000BAF09150A1F0FF0FBB1F661F771F881F73
:1017B000C2F70EC0BA0F621F731F841F48F48795CB
:1017C00077956795B795F7959E3F08F0B0CF9395BD
:1017D000880F08F09927EE0F9795879508950E9436
:1017E000D20C08F481E008950E94080C0C940D0DB1
:1017F0000E94060D58F00E94FF0C40F029F45F3F54
:1018000029F00C94F60C51110C94410D0C94FC0C25
:101810000E941E0D68F39923B1F3552391F3951B94
:10182000550BBB27AA2762177307840738F09F5F01
:101830005F4F220F331F441FAA1FA9F335D00E2E6E
:101840003AF0E0E832D091505040E695001CCAF7DB
:101850002BD0FE2F29D0660F771F881FBB1F26179E
:1018600037074807AB07B0E809F0BB0B802DBF0175
:10187000FF2793585F4F3AF09E3F510578F00C9444
:10188000F60C0C94410D5F3FE4F3983ED4F386953B
:1018900077956795B795F7959F5FC9F7880F911D65
:1018A0009695879597F90895E1E0660F771F881F51
:1018B000BB1F621773078407BA0720F0621B730B04
:1018C000840BBA0BEE1F88F7E09508950E94260D51
:1018D00088F09F5798F0B92F9927B751B0F0E1F0F1
:1018E000660F771F881F991F1AF0BA95C9F714C0A1
:1018F000B13091F00E94400DB1E008950C94400D7C
:10190000672F782F8827B85F39F0B93FCCF38695D9
:1019100077956795B395D9F73EF490958095709536
:1019200061957F4F8F4F9F4F0895E89409C097FBB3
:101930003EF490958095709561957F4F8F4F9F4FA6
:101940009923A9F0F92F96E9BB279395F6958795EA
:1019500077956795B795F111F8CFFAF4BB0F11F4AD
:1019600060FF1BC06F5F7F4F8F4F9F4F16C0882354
:1019700011F096E911C0772321F09EE8872F762F8A
:1019800005C0662371F096E8862F70E060E02AF0CB
:101990009A95660F771F881FDAF7880F96958795B7
:1019A00097F90895990F0008550FAA0BE0E8FEEF8C
:1019B00016161706E807F907C0F012161306E40713
:1019C000F50798F0621B730B840B950B39F40A260C
:1019D00061F0232B242B252B21F408950A2609F4EA
:1019E000A140A6958FEF811D811D089597F99F67EE
:1019F00080E870E060E008959FEF80EC0895002497
:101A00000A941616170618060906089500240A9463
:101A100012161306140605060895092E0394000CE9
:101A200011F4882352F0BB0F40F4BF2B11F460FF78
:101A300004C06F5F7F4F8F4F9F4F089557FD9058A1
:101A4000440F551F59F05F3F71F04795880F97FB82
:101A5000991F61F09F3F79F087950895121613063C
:101A60001406551FF2CF4695F1DF08C0161617066B
:101A70001806991FF1CF86957105610508940895A0
:101A8000E894BB2766277727CB0197F908950E9432
:101A9000D20C08F48FEF08950E945F0D0C940D0D89
:101AA0000E94FF0C38F00E94060D20F0952311F0E3
:101AB0000C94F60C0C94FC0C11240C94410D0E9417
:101AC0001E0D70F3959FC1F3950F50E0551F629F57
:101AD000F001729FBB27F00DB11D639FAA27F00D87
:101AE000B11DAA1F649F6627B00DA11D661F829FAE
:101AF0002227B00DA11D621F739FB00DA11D621F93
:101B0000839FA00D611D221F749F3327A00D611DAF
:101B1000231F849F600D211D822F762F6A2F112491
:101B20009F5750409AF0F1F088234AF0EE0FFF1FC4
:101B3000BB1F661F771F881F91505040A9F79E3F1B
:101B4000510580F00C94F60C0C94410D5F3FE4F3CA
:101B5000983ED4F3869577956795B795F795E79571
:101B60009F5FC1F7FE2B880F911D9695879597F97A
:101B700008950E94D20C880B990B0895A1E21A2EA9
:101B8000AA1BBB1BFD010DC0AA1FBB1FEE1FFF1F21
:101B9000A217B307E407F50720F0A21BB30BE40B71
:101BA000F50B661F771F881F991F1A9469F76095B8
:101BB0007095809590959B01AC01BD01CF01089572
:101BC000EE0FFF1F0590F491E02D0994FB01DC015D
:101BD0008D91019080190110D9F3990B0895F89413
:021BE000FFCF35
:101BE200000080BF0101010084007F0077006E00C9
:101BF200680000000000A902090236021103670210
:101C0200450259020D0A006E616E00696E66006F30
:101C12007666004D4F44453A31004D4F44453A32C5
:101C2200004D4F44453A3300434D443A4652454EE7
:101C3200544500434D443A5452415300434D443AB3
:101C42004449524549544100434D443A4553515544
:101C52004552444100434D443A504152415200439F
:101C62004D443A47495241520052455345545F450B
:101C720053544F500048454C4C4F0050494E47007A
:081C8200535441545553000076
:00000001FF
