:100000000C94F8000C9420010C9420010C94200115
:100010000C9420010C9420010C9420010C942001DC
:100020000C9420010C9420010C9420010C944208A3
:100030000C9433080C9451080C9420010C9420016A
:100040000C9491070C9420010C9401080C94DB078C
:100050000C9420010C9420010C9420010C9420019C
:100060000C9420010C942001474952415200455301
:100070005155455244410044495245495441005468
:10008000524153004652454E5445004F4B3A434D62
:10009000443A004552524F3A434F4D414E444F5F10
:1000A000494E56414C49444F00504F4E4700515421
:1000B0003A52454144593A5637004F4B3A5245530C
:1000C00045545F4553544F50004F4B3A4553544F9E
:1000D00050004552524F3A4C494E48415F4C4F4EAA
:1000E000474100474553544F5300534547554952E4
:1000F000004155544F4E4F4D4F0050415241520018
:100100004445535649414E444F004C494E4B5F576E
:100110004149540053454E534F525F4641494C00AC
:100120004553544F50007C53544154453A007C434E
:100130004D443A00455252007C444953543A0051D0
:10014000547C4D4F44453A004F4B3A4D4F44453A4D
:10015000004F4B3A4D4F44453A310051543A5245C5
:100160004144593A56370000000000230026002978
:10017000004556454E544F3A43555256415F434F02
:100180004E54494E5541004556454E544F3A44450C
:100190005356494F5F494E49434941444F0000007F
:1001A0000000240027002A0000000000250028008D
:1001B0002B000404040404040404020202020202E8
:1001C000030303030303010204081020408001021B
:1001D000040810200102040810200000000800029A
:1001E0000100000304070000000000000000140CE0
:1001F00011241FBECFEFD8E0DEBFCDBF11E0A0E0DD
:10020000B1E0E0E6FDE102C005900D92AE3AB10723
:10021000D9F722E0AEEAB1E001C01D92A739B207DA
:10022000E1F710E0C8EFD0E004C02197FE010E9482
:100230009F0EC73FD107C9F70E94AF080C94AE0EBE
:100240000C94000090E0FC01E652FE4F2491FC016A
:10025000EA53FE4F3491FC01EE54FE4FE491EE233D
:10026000C9F0222339F0233001F1A8F4213019F12B
:10027000223029F1F0E0EE0FFF1FE855FE4FA59167
:10028000B4918FB7F894EC91611126C030953E235C
:100290003C938FBF08952730A9F02830C9F024304F
:1002A00049F7809180008F7D03C0809180008F7717
:1002B00080938000DFCF84B58F7784BDDBCF84B59A
:1002C0008F7DFBCF8091B0008F778093B000D2CF2D
:1002D0008091B0008F7DF9CF3E2BDACFCF93DF93A3
:1002E00090E0FC01EA53FE4F24918E549E4FFC0196
:1002F00084918823D1F090E0880F991FFC01E25689
:10030000FE4FA591B491FC01E855FE4FC591D491E3
:1003100061110EC09FB7F8948C91E22FE0958E2367
:100320008C932881E223E8839FBFDF91CF910895CA
:100330008FB7F894EC91E22BEC938FBFF6CF3FB7D9
:10034000F8948091F2019091F301A091F401B091A1
:10035000F50126B5A89B05C02F3F19F00196A11DF8
:10036000B11D3FBFBA2FA92F982F8827BC01CD01FF
:10037000620F711D811D911D42E0660F771F881F5E
:10038000991F4A95D1F708958F929F92AF92BF928D
:10039000CF92DF92EF92FF924B015C010E949F018E
:1003A0006B017C010E949F016C197D098E099F09D8
:1003B000683E734081059105A8F321E0821A9108F7
:1003C000A108B10888EEC80E83E0D81EE11CF11C1C
:1003D00081149104A104B10429F7FF90EF90DF90FC
:1003E000CF90BF90AF909F908F9008952FB7F894C3
:1003F0006091EE017091EF018091F0019091F10117
:100400002FBF0895AF92BF92CF92DF92EF92FF92EB
:100410000F931F93CF93DF936C017B018B01040F2C
:10042000151FEB015E01AE18BF08C017D10759F0C8
:100430006991D601ED91FC910190F081E02DC6010A
:100440000995892B79F7C501DF91CF911F910F9104
:10045000FF90EF90DF90CF90BF90AF900895FC0198
:10046000538D448D252F30E0842F90E0821B930B19
:10047000541710F0CF96089501970895FC01918DBF
:10048000828D981761F0A28DAE0FBF2FB11D5D96C2
:100490008C91928D9F5F9F73928F90E008958FEF64
:1004A0009FEF0895FC01918D828D981731F0828D18
:1004B000E80FF11D858D90E008958FEF9FEF08956F
:1004C000FC01918D228D892F90E0805C9F4F821BD3
:1004D00091098F73992708958AEF91E00E94600235
:1004E00021E0892B09F420E0822F089580E090E03C
:1004F000892B29F00E946C0281110C940000089550
:10050000FC01A48DA80FB92FB11DA35ABF4F2C9188
:10051000848D90E001968F739927848FA689B7897F
:100520002C93A089B1898C91837080648C93938D76
:10053000848D981306C00288F389E02D80818F7D19
:1005400080830895EF92FF920F931F93CF93DF93D1
:10055000EC0181E0888F9B8D8C8D98131AC0E889FF
:10056000F989808185FF15C09FB7F894EE89FF89CE
:100570006083E889F98980818370806480839FBF6C
:1005800081E090E0DF91CF911F910F91FF90EF906C
:100590000895F62E0B8D10E00F5F1F4F0F7311277C
:1005A000E02E8C8D8E110CC00FB607FCFACFE889B7
:1005B000F989808185FFF5CFCE010E948002F1CFBD
:1005C000EB8DEC0FFD2FF11DE35AFF4FF0829FB72B
:1005D000F8940B8FEA89FB8980818062CFCF0F93DB
:1005E0001F93CF93DF938C01D0E0C0E0F801EC0FB4
:1005F000FD1F6491662341F08AEF91E00E94A20200
:10060000892B11F02196F2CFCE01DF91CF911F916E
:100610000F910895CF93DF93EC01888D8823B9F073
:10062000AA89BB89E889F9898C9185FD03C08081FD
:1006300086FD0DC00FB607FCF7CF8C9185FFF2CF7A
:10064000808185FFEDCFCE010E948002E9CFDF914E
:10065000CF9108958091D6018823A9F020E030E061
:10066000A9016091060170910701809108019091A4
:1006700009010E94060E18162CF481E09091D70112
:10068000923008F480E0089520E030E040EA51E440
:100690006091060170910701809108019091090114
:1006A0000E94060E18162CF481E09091E101923020
:1006B00008F480E00895FF920F931F93CF93DF9388
:1006C0009091030189130DC090910201961309C006
:1006D00090910101941305C090910001921709F4C3
:1006E00087C0C22FD42F162F082FFFB6F894811180
:1006F00008C080910301882321F060E087E00E9418
:100700002201111108C080910201882321F060E0CC
:1007100086E00E942201D11108C080910101882346
:1007200021F060E085E00E942201C11108C08091A3
:100730000001882321F060E084E00E942201002370
:1007400041F080910301813021F061E087E00E9457
:100750002201112341F080910201813021F061E0FA
:1007600086E00E942201DD2341F080910101813069
:1007700021F061E085E00E942201CC2341F08091CC
:100780000001813021F061E084E00E9422010093A9
:10079000030110930201D0930101C093000180E88E
:1007A000011101C080E090E4111101C090E0892B9B
:1007B0008093AF0180E2D11101C080E090E1C111CE
:1007C00001C090E0892B8093AE01809184009091CC
:1007D000850090E0803F38F49091AF018C3C18F494
:1007E0008091AE01982B8BB18F70892B8BB9FFBE96
:1007F000DF91CF911F910F91FF90089521E040E08C
:1008000060E080E00E945B0384E090E09093D5017B
:100810008093D401089520E040E061E080E00E94F0
:100820005B0383E090E09093D5018093D401089519
:1008300020E041E060E081E00E945B0382E090E024
:100840009093D5018093D401089520E040E060E0CA
:1008500080E00E945B031092D5011092D4010895AC
:100860001092E5011092E4011092E2011092E10170
:100870001092E3010C942504CF93DF932091D401CF
:100880003091D50128173907F9F08330910531F1FE
:10089000EC018430910548F481309105C1F0029754
:1008A000C9F0DF91CF910C94250484309105D1F0EB
:1008B00020E041E00597A9F761E080E00E945B033A
:1008C000D093D501C093D401DF91CF91089521E059
:1008D00040E0F2CFDF91CF910C941804DF91CF91DB
:1008E0000C940B04DF91CF910C94FE03FC0101905A
:1008F0000020E9F73197AF01481B590BBC018AEF83
:1009000091E00C9402028F929F92AF92BF920F934C
:100910001F93CF93DF93CDB7DEB7A1970FB6F894AF
:10092000DEBF0FBECDBF19A2423008F44AE08E01EF
:100930000F5D1F4F842E912CB12CA12CA501940189
:100940000E947D0EE62FB901CA01EA30F4F4E05DA1
:10095000D801EE938D01232B242B252B79F790E0E2
:1009600080E0109719F0CD010E947604A1960FB691
:10097000F894DEBF0FBECDBFDF91CF911F910F91D5
:10098000BF90AF909F908F900895E95CE1CFCF9397
:10099000DF930E94EF02EC018AE291E00E9476046C
:1009A0008C0F9D1FDF91CF910895CF93DF93EC01C2
:1009B0009093E7018093E6014093E8015093E901A9
:1009C0006093EA017093EB0121E02093EC018091A8
:1009D0000C0190910D01209739F4019711F42093A7
:1009E0000B010E94300405C0019719F0C230D105F7
:1009F000C1F38BE890E00E94EF0221978AEF90E02C
:100A0000C530D10530F4CC0FDD1FC25FDE4F8881C9
:100A10009981DF91CF910C94C704CF93C82F90E0B8
:100A200090930D0180930C0181E090E0C13011F0B2
:100A300090E080E09093E7018093E6014093E80125
:100A40005093E9016093EA017093EB010E94300436
:100A500088E491E00E94EF026C2F70E090E080E06B
:100A60004AE00E9483048AE291E0CF910C947604DC
:100A70008F929F92AF92BF92CF92DF92EF92FF92AE
:100A80006093F6017093F7018093F8019093F90158
:100A90008FE391E00E94EF0260910C0170E090E022
:100AA00080E04AE00E94830488E391E00E94EF0224
:100AB000C0900601D0900701E0900801F090090174
:100AC00020E030E0A901C701B6010E94AE0C87FF0B
:100AD00033C084E391E00E94EF028EE291E00E9435
:100AE000EF028091D4019091D50101978530910555
:100AF00008F093C0880F991FFC01E25FFE4F8081D0
:100B000091810E94EF0286E291E00E94EF028091C3
:100B10000B01882309F484C080E291E00E94EF0277
:100B20008AE291E0FF90EF90DF90CF90BF90AF907E
:100B30009F908F900C947604A7019601C701B6018F
:100B40000E94780E882329F08DE291E00E947604BD
:100B5000C4CF46015701E894B7F82FEF3FEF4FE7B6
:100B60005FE7C501B4010E94780E81110DC02FEF1F
:100B70003FEF4FE75FE7C501B4010E94AE0C1816C6
:100B80001CF481E391E0E2CF2FEF3FEF4FE75FE40A
:100B9000C701B6010E94060E18161CF485E391E009
:100BA000D5CF2FEF3FEF4FE75FECC701B6010E94B3
:100BB000AE0C87FDF3CF2DEC3CEC4CE45DE3C701BC
:100BC000B6010E94420C4B015C010E94250D6B0195
:100BD0007C010E94540D9B01AC01C501B4010E942F
:100BE000410C4B015C014AE0C701B6010E9483043D
:100BF0006EE28AEF91E00E94A20220E030E040E243
:100C000051E4C501B4010E940B0E0E94250D90E035
:100C100080E04AE00E94830460CF8AEF90E071CFC9
:100C2000E0900C01F0900D0181E0E816F10439F438
:100C30000E942A0381110AC084E191E06FCF809164
:100C4000EC01811103C08AE091E068CF8091E4015A
:100C50009091E501892B19F080E091E05FCF81E070
:100C6000E816F10439F082E0E816F10431F083EE81
:100C700090E054CF81EF90E051CF8AEE90E04ECFDC
:100C8000CF92DF92EF92FF920F931F930091F601A4
:100C90001091F7012091F8013091F9016B017C016D
:100CA000C01AD10AE20AF30A970186010A3F110528
:100CB0002105310540F01F910F91FF90EF90DF90DB
:100CC000CF900C9438051F910F91FF90EF90DF901B
:100CD000CF900895CF92DF92EF92FF92CF93DF9360
:100CE0006B017C01D1E3C1E08AEF91E00E946002D8
:100CF000181619060CF00EC1D15009F40BC18AEF79
:100D000091E00E943E029091D3018A3019F08D301B
:100D100009F0E8C0992329F01092D3011092D20172
:100D2000E3CFE091D201EE23F9F2F0E0E055FE4F7F
:100D3000108269E371E080EB91E00E94A50E892B9F
:100D400031F4B701A60181E00E940D05E7CF60E410
:100D500071E080EB91E00E94A50E892B21F4B70190
:100D6000A60182E0F1CF67E471E080EB91E00E94A0
:100D7000A50E892B21F4B701A60183E0E5CF6EE42F
:100D800071E080EB91E00E94A50E892B39F4B70148
:100D9000A60181E090E00E94D504C0CF69E571E032
:100DA00080EB91E00E94A50E892B29F4B701A601E2
:100DB00082E090E0F0CF62E671E080EB91E00E948B
:100DC000A50E892B29F4B701A60183E090E0E3CFBB
:100DD0006EE671E080EB91E00E94A50E892B29F46C
:100DE000B701A60184E090E0D6CF6BE771E080EB1D
:100DF00091E00E94A50E892B29F4B701A60190E08D
:100E000080E0C9CF65E871E080EB91E00E94A50E1B
:100E1000892B29F4B701A60185E090E0BCCF65E9F4
:100E200071E080EB91E00E94A50E892B49F4C093FC
:100E30000B010E94300489EC90E00E94C7046ECF41
:100E40006FE871E080EB91E00E94A50E892B21F5FF
:100E500010920B0181E090E020910C0130910D0186
:100E60002130310511F090E080E09093E70180930C
:100E7000E601C092E801D092E901E092EA01F09225
:100E8000EB011092EC01C0930A011092D7010E946D
:100E900030048AEB90E0D1CF6BE971E080EB91E018
:100EA0000E94A50E892B19F48EEA90E0C6CF61EA64
:100EB00071E080EB91E00E94A50E892B19F489EA7C
:100EC00090E0BBCF66EA71E080EB91E00E94A50E56
:100ED000892B29F4C701B6010E9438051FCF83E989
:100EE00090E0ABCF911100CFE091D201E13248F414
:100EF00091E09E0F9093D201F0E0E055FE4F808389
:100F0000F3CE1092D201C093D30182ED90E00E9403
:100F1000C704EACEDF91CF91FF90EF90DF90CF90A2
:100F200008951F920F920FB60F9211242F933F93A3
:100F30008F939F93AF93BF938091EE019091EF01B8
:100F4000A091F001B091F1013091ED0123E0230F68
:100F50002D3758F50196A11DB11D2093ED01809309
:100F6000EE019093EF01A093F001B093F101809115
:100F7000F2019091F301A091F401B091F501019675
:100F8000A11DB11D8093F2019093F301A093F40190
:100F9000B093F501BF91AF919F918F913F912F91A8
:100FA0000F900FBE0F901F90189526E8230F029602
:100FB000A11DB11DD2CF1F920F920FB60F92112417
:100FC0002F933F934F935F936F937F938F939F9351
:100FD000AF93BF93EF93FF938AEF91E00E9480025B
:100FE000FF91EF91BF91AF919F918F917F916F9101
:100FF0005F914F913F912F910F900FBE0F901F90D7
:1010000018951F920F920FB60F9211242F938F9362
:101010009F93EF93FF93E0910A02F0910B0280817E
:10102000E0911002F091110282FD1BC0908180912D
:1010300013028F5F8F7320911402821741F0E091A9
:101040001302F0E0E650FE4F958F80931302FF915C
:10105000EF919F918F912F910F900FBE0F901F9046
:1010600018958081F4CF1F920F920FB60F92112422
:101070008F938BB18F7C8BB98F910F900FBE0F9098
:101080001F9018951F920F920FB60F9211248F93F5
:101090008BB18F738BB98F910F900FBE0F901F90F4
:1010A00018951F920F920FB60F9211242F938F93C2
:1010B0009F938BB19091AF012091AE018F70922BD5
:1010C000892B8BB99F918F912F910F900FBE0F900D
:1010D0001F901895CF92DF92EF92FF920F931F937C
:1010E000E82FF92F05C0015011092109310961F1DB
:1010F000908196239417B9F305C001501109210975
:10110000310911F1908196239413F7CFC12CD12C82
:10111000E12CF12C0AC08FEFC81AD80AE80AF80AA5
:101120000C151D052E053F0579F080818623841757
:1011300091F36C2D7D2D8E2D9F2D1F910F91FF9082
:10114000EF90DF90CF90089560E070E080E090E055
:101150001F910F91FF90EF90DF90CF9008957894BA
:1011600084B5826084BD84B5816084BD85B58260AC
:1011700085BD85B5816085BD80916E00816080935D
:101180006E001092810080918100826080938100C6
:1011900080918100816080938100809180008160D6
:1011A000809380008091B10084608093B100809131
:1011B000B00081608093B00080917A008460809359
:1011C0007A0080917A00826080937A0080917A0020
:1011D000816080937A0080917A00806880937A00A1
:1011E0001092C10061E087E00E946E0161E086E03C
:1011F0000E946E0161E085E00E946E0161E084E082
:101200000E946E0161E083E00E946E0160E082E076
:101210000E946E0160E083E00E9422010E9425048A
:101220009FB7F894109280001092810010926F0086
:10123000109285001092840020EF30E030938900F6
:10124000209388002CEC30E030938B0020938A00B0
:1012500087E086BB21E0209380002BE02093810073
:1012600080936F009FBFE0910A02F0910B0282E031
:101270008083E0910602F09107021082E09108025B
:10128000F09109028FEC808310921202E0910E021D
:10129000F0910F0286E08083E0910C02F0910D0244
:1012A000808180618083E0910C02F0910D02808149
:1012B00088608083E0910C02F0910D02808180684B
:1012C0008083E0910C02F0910D0280818F7D8083FC
:1012D00060ED77E080E090E00E94C4010E94F6019A
:1012E0006093E8017093E9018093EA019093EB0128
:1012F0008BE591E00E94C70481E591E00E94C7045C
:101300000E94F6016B017C010E94F6016C197D09B7
:101310008E099F096E3E72408105910508F4B4C0A4
:1013200034E0A32EB12C43E0842E912C22E0222E17
:10133000312C0E94F6016B017C010E946A068091AB
:101340000C0190910D01019709F096C08091D9018F
:101350009091DA01A091DB01B091DC01A701960127
:10136000281B390B4A0B5B0BDA01C901803591054B
:10137000A105B10508F480C0C092D901D092DA016C
:10138000E092DB01F092DC0160E083E00E94220148
:101390008FE090E00197F1F761E083E00E94220185
:1013A0008BE290E00197F1F760E083E00E94220178
:1013B000E8ECF1E06491E4EBF1E08491E82FF0E0F7
:1013C000EE0FFF1FE959FE4F8591949100E315E759
:1013D00020E030E0462F0E946A0861157105810502
:1013E000910531F16F5F7F4F8F4F9F4F9F70611558
:1013F000710581059105E1F00E94540D20E030E077
:1014000048E652E40E94B30C2B013C0120E030E09E
:1014100040E050E40E94AE0C87FD0AC020E030E0BE
:1014200048EC53E4C301B2010E94060E181634F4CE
:10143000412C512C80E8682E8FEB782E40920601CB
:1014400050920701609208017092090120E030E09B
:10145000A901C301B2010E94AE0C87FF22C0809196
:10146000D8018F3F19F08F5F8093D8011092D70178
:101470001092E1011092E20180910B01882309F49E
:1014800046C00E9425046EC00E9425040E94F601F9
:101490000E946A0661E070E080E090E00E94C40172
:1014A00033CF81E08093D6011092D8018091D7018B
:1014B000823018F48F5F8093D7018091E40190917E
:1014C000E501049729F41092E2011092E101D4CFD2
:1014D00020E030E040EA51E4C301B2010E94AE0CCA
:1014E000181654F01092E1018091E2018F3F21F231
:1014F0008F5F8093E201C0CF1092E2018091E10101
:10150000823008F0B9CF8F5F8093E101B5CF809131
:101510000C0190910D019C012250310922303105BE
:1015200090F58091EC018823A9F08091E8019091D9
:10153000E901A091EA01B091EB01A7019601281BF6
:10154000390B4A0B5B0BDA01C9018D3D9540A105B2
:10155000B105E0F01092EC011092E7011092E60163
:101560000E943004C701B6010E94400620E030E02E
:10157000232B09F4DECE0E946C02882309F4D6CE18
:101580000E940000D3CE019709F41BC18091E601AF
:101590009091E7011092E3010E943C04E3CF88237D
:1015A000F9F28091DD019091DE01A091DF01B0910F
:1015B000E00126013701481A590A6A0A7B0AC3303A
:1015C000D10509F45EC098F4C130D10551F12297DC
:1015D00049F650E9451651E055066104710410F2D0
:1015E0000E9425049092E5018092E40141C0C4303C
:1015F000D10509F45DC0259709F0B4CF0E942504F8
:101600000E944403882309F468C081E080930A01A2
:101610001092E5011092E4011092E2011092E101B2
:10162000A1CF0E94250420E030E040EA51E460911F
:1016300006017091070180910801909109010E94B3
:10164000060E181634F40E94300481E08093E30102
:1016500089CF46E9441651046104710408F482CF2D
:1016600010920A010E9418043092E5012092E401D0
:10167000C092DD01D092DE01E092DF01F092E00144
:1016800071CF86E9481651046104710408F46ACFE9
:101690001092E20180910401882339F00E940B042A
:1016A000B092E501A092E401E3CF0E94FE03F8CFDF
:1016B0009AE8491692E059066104710408F452CF81
:1016C0000E942504E5E0F0E0F093E501E093E401F9
:1016D0001092E2011092E101CBCF20E030E0A901AD
:1016E00060910601709107018091080190910901B4
:1016F0000E94060E18160CF035CF8091E201823060
:1017000008F430CF1092E2011092E10180910401BF
:10171000882399F00E940B04B092E501A092E401A5
:10172000C092DD01D092DE01E092DF01F092E00193
:1017300081E791E00E94C70415CF0E94FE03ECCF21
:101740000E9425041092E2011092E1011092E3013F
:1017500080910A018823C9F08091050180930401DA
:1017600091E089278093050181E090E09093E50165
:101770008093E401C092DD01D092DE01E092DF01AE
:10178000F092E00187E891E0D5CF83E090E0EECFE2
:1017900020E030E040EA51E4C301B2010E94AE0C07
:1017A000181644F081E08093E3011092E201109258
:1017B000E10167CE0E944403811132C081E090E0D4
:1017C000EBCEC091E401D091E5010E942A0320975D
:1017D00009F0E5CE882309F454CE409006015090DC
:1017E000070160900801709009018091E30188234E
:1017F00079F20E94250420E030E0A901C301B20182
:101800000E94060E18162CF48091E201823008F036
:1018100097CF0E944403882309F4A4CE1092E301D9
:1018200081E080930A01CACFEAEFF1E013821282CD
:1018300088EE93E0A0E0B0E084839583A683B7832D
:101840008CE191E09183808385EC90E0958784879B
:1018500084EC90E09787868780EC90E0918B808B7A
:1018600081EC90E0938B828B82EC90E0958B848B63
:1018700086EC90E0978B868B118E128E138E148ED1
:1018800008955058BB27AA270E94590C0C94CC0DE0
:101890000E94BE0D38F00E94C50D20F039F49F3F24
:1018A00019F426F40C94BB0D0EF4E095E7FB0C94B0
:1018B000B50DE92F0E94DD0D58F3BA1762077307C3
:1018C0008407950720F079F4A6F50C94FF0D0EF42B
:1018D000E0950B2EBA2FA02D0B01B90190010C0140
:1018E000CA01A0011124FF27591B99F0593F50F458
:1018F000503E68F11A16F040A22F232F342F4427B0
:10190000585FF3CF469537952795A795F0405395A7
:10191000C9F77EF41F16BA0B620B730B840BBAF077
:101920009150A1F0FF0FBB1F661F771F881FC2F7E2
:101930000EC0BA0F621F731F841F48F487957795F6
:101940006795B795F7959E3F08F0B0CF9395880FB0
:1019500008F09927EE0F9795879508950E94910DAD
:1019600008F481E008950E94C70C0C94CC0D0E94ED
:10197000C50D58F00E94BE0D40F029F45F3F29F0DC
:101980000C94B50D51110C94000E0C94BB0D0E94DB
:10199000DD0D68F39923B1F3552391F3951B550B96
:1019A000BB27AA2762177307840738F09F5F5F4F32
:1019B000220F331F441FAA1FA9F335D00E2E3AF071
:1019C000E0E832D091505040E695001CCAF72BD089
:1019D000FE2F29D0660F771F881FBB1F26173707DA
:1019E0004807AB07B0E809F0BB0B802DBF01FF270C
:1019F00093585F4F3AF09E3F510578F00C94B50D27
:101A00000C94000E5F3FE4F3983ED4F386957795EF
:101A10006795B795F7959F5FC9F7880F911D9695C4
:101A2000879597F90895E1E0660F771F881FBB1F20
:101A3000621773078407BA0720F0621B730B840BCD
:101A4000BA0BEE1F88F7E09508950E94E50D88F027
:101A50009F5798F0B92F9927B751B0F0E1F0660F72
:101A6000771F881F991F1AF0BA95C9F714C0B130B3
:101A700091F00E94FF0DB1E008950C94FF0D672FC7
:101A8000782F8827B85F39F0B93FCCF386957795E2
:101A90006795B395D9F73EF49095809570956195CB
:101AA0007F4F8F4F9F4F0895E89409C097FB3EF4F6
:101AB00090958095709561957F4F8F4F9F4F99239B
:101AC000A9F0F92F96E9BB279395F6958795779519
:101AD0006795B795F111F8CFFAF4BB0F11F460FFD9
:101AE0001BC06F5F7F4F8F4F9F4F16C0882311F031
:101AF00096E911C0772321F09EE8872F762F05C045
:101B0000662371F096E8862F70E060E02AF09A95DF
:101B1000660F771F881FDAF7880F9695879597F9D4
:101B20000895990F0008550FAA0BE0E8FEEF16166E
:101B30001706E807F907C0F012161306E407F507C1
:101B400098F0621B730B840B950B39F40A2661F035
:101B5000232B242B252B21F408950A2609F4A140D8
:101B6000A6958FEF811D811D089597F99F6780E8E5
:101B700070E060E008959FEF80EC089500240A94DF
:101B80001616170618060906089500240A94121658
:101B90001306140605060895092E0394000C11F48B
:101BA000882352F0BB0F40F4BF2B11F460FF04C038
:101BB0006F5F7F4F8F4F9F4F089557FD9058440F91
:101BC000551F59F05F3F71F04795880F97FB991F9C
:101BD00061F09F3F79F08795089512161306140659
:101BE000551FF2CF4695F1DF08C0161617061806E6
:101BF000991FF1CF86957105610508940895E894C1
:101C0000BB2766277727CB0197F908950E94910D8E
:101C100008F48FEF08950E941E0E0C94CC0D0E94C4
:101C2000BE0D38F00E94C50D20F0952311F00C94E4
:101C3000B50D0C94BB0D11240C94000E0E94DD0D0B
:101C400070F3959FC1F3950F50E0551F629FF0010F
:101C5000729FBB27F00DB11D639FAA27F00DB11D28
:101C6000AA1F649F6627B00DA11D661F829F2227B1
:101C7000B00DA11D621F739FB00DA11D621F839F38
:101C8000A00D611D221F749F3327A00D611D231F0E
:101C9000849F600D211D822F762F6A2F11249F575C
:101CA00050409AF0F1F088234AF0EE0FFF1FBB1F5F
:101CB000661F771F881F91505040A9F79E3F51051E
:101CC00080F00C94B50D0C94000E5F3FE4F3983E49
:101CD000D4F3869577956795B795F795E7959F5FC8
:101CE000C1F7FE2B880F911D9695879597F908955A
:101CF0000E94910D880B990B0895A1E21A2EAA1B40
:101D0000BB1BFD010DC0AA1FBB1FEE1FFF1FA217AB
:101D1000B307E407F50720F0A21BB30BE40BF50BA8
:101D2000661F771F881F991F1A9469F76095709531
:101D3000809590959B01AC01BD01CF010895EE0FF8
:101D4000FF1F0590F491E02D0994FB01DC018D91BA
:101D5000019080190110D9F3990B0895F894FFCFE1
:101D6000FFFFFFFF0101000080BF010101008400AF
:101D70007F0077006E00680000000000A2020202EF
:101D80002F020A0360023E0252020D0A006E616ECB
:101D900000696E66006F7666004D4F44453A31002B
:101DA0004D4F44453A32004D4F44453A3300434D80
:101DB000443A4652454E544500434D443A545241EC
:101DC0005300434D443A4449524549544100434D20
:101DD000443A455351554552444100434D443A50CD
:101DE0004152415200434D443A47495241520052F8
:101DF000455345545F4553544F500048454C4C4F54
:0E1E00000050494E47005354415455530000C2
:00000001FF
