:100000000C94F8000C9420010C9420010C94200115
:100010000C9420010C9420010C9420010C942001DC
:100020000C9420010C9420010C9420010C942001CC
:100030000C9420010C9420010C9420010C942001BC
:100040000C9457070C9420010C94C7070C94A1073B
:100050000C9420010C9420010C9420010C9420019C
:100060000C9420010C942001474952415200455301
:100070005155455244410044495245495441005468
:10008000524153004652454E5445004F4B3A434D62
:10009000443A004552524F3A434F4D414E444F5F10
:1000A000494E56414C49444F00504F4E4700515421
:1000B0003A52454144593A5637004F4B3A5245530C
:1000C00045545F4553544F50004F4B3A4553544F9E
:1000D00050004552524F3A4C494E48415F4C4F4EAA
:1000E000474100474553544F5300534547554952E4
:1000F000004155544F4E4F4D4F0050415241520018
:100100004445535649414E444F004C494E4B5F576E
:100110004149540053454E534F525F4641494C00AC
:100120004553544F50007C53544154453A007C434E
:100130004D443A00455252007C444953543A0051D0
:10014000547C4D4F44453A004F4B3A4D4F44453A4D
:10015000004F4B3A4D4F44453A310051543A5245C5
:100160004144593A56370000000000230026002978
:10017000004556454E544F3A43555256415F434F02
:100180004E54494E5541004556454E544F3A44450C
:100190005356494F5F494E49434941444F0000007F
:1001A0000000240027002A0000000000250028008D
:1001B0002B000404040404040404020202020202E8
:1001C000030303030303010204081020408001021B
:1001D000040810200102040810200000000800029A
:1001E00001000003040700000000000000009B0B5A
:1001F00011241FBECFEFD8E0DEBFCDBF11E0A0E0DD
:10020000B1E0EEE6FCE102C005900D92AE3AB10716
:10021000D9F722E0AEEAB1E001C01D92A539B207DC
:10022000E1F710E0C8EFD0E004C02197FE010E9482
:10023000260EC73FD107C9F70E943E080C94350E21
:100240000C94000090E0FC01E652FE4F2491FC016A
:10025000EA53FE4F3491FC01EE54FE4FE491EE233D
:10026000C9F0222339F0233001F1A8F4213019F12B
:10027000223029F1F0E0EE0FFF1FE855FE4FA59167
:10028000B4918FB7F894EC91611126C030953E235C
:100290003C938FBF08952730A9F02830C9F024304F
:1002A00049F7809180008F7D03C0809180008F7717
:1002B00080938000DFCF84B58F7784BDDBCF84B59A
:1002C0008F7DFBCF8091B0008F778093B000D2CF2D
:1002D0008091B0008F7DF9CF3E2BDACFCF93DF93A3
:1002E00090E0FC01EA53FE4F24918E549E4FFC0196
:1002F00084918823D1F090E0880F991FFC01E25689
:10030000FE4FA591B491FC01E855FE4FC591D491E3
:1003100061110EC09FB7F8948C91E22FE0958E2367
:100320008C932881E223E8839FBFDF91CF910895CA
:100330008FB7F894EC91E22BEC938FBFF6CF3FB7D9
:10034000F8948091F0019091F101A091F201B091A7
:10035000F30126B5A89B05C02F3F19F00196A11DFA
:10036000B11D3FBFBA2FA92F982F8827BC01CD01FF
:10037000620F711D811D911D42E0660F771F881F5E
:10038000991F4A95D1F708958F929F92AF92BF928D
:10039000CF92DF92EF92FF924B015C010E949F018E
:1003A0006B017C010E949F016C197D098E099F09D8
:1003B000683E734081059105A8F321E0821A9108F7
:1003C000A108B10888EEC80E83E0D81EE11CF11C1C
:1003D00081149104A104B10429F7FF90EF90DF90FC
:1003E000CF90BF90AF909F908F9008952FB7F894C3
:1003F0006091EC017091ED018091EE019091EF011F
:100400002FBF0895AF92BF92CF92DF92EF92FF92EB
:100410000F931F93CF93DF936C017B018B01040F2C
:10042000151FEB015E01AE18BF08C017D10759F0C8
:100430006991D601ED91FC910190F081E02DC6010A
:100440000995892B79F7C501DF91CF911F910F9104
:10045000FF90EF90DF90CF90BF90AF900895FC0198
:10046000538D448D252F30E0842F90E0821B930B19
:10047000541710F0CF96089501970895FC01918DBF
:10048000828D981761F0A28DAE0FBF2FB11D5D96C2
:100490008C91928D9F5F9F73928F90E008958FEF64
:1004A0009FEF0895FC01918D828D981731F0828D18
:1004B000E80FF11D858D90E008958FEF9FEF08956F
:1004C000FC01918D228D892F90E0805C9F4F821BD3
:1004D00091098F739927089588EF91E00E94600237
:1004E00021E0892B09F420E0822F089580E090E03C
:1004F000892B29F00E946C0281110C940000089550
:10050000FC01A48DA80FB92FB11DA35ABF4F2C9188
:10051000848D90E001968F739927848FA689B7897F
:100520002C93A089B1898C91837080648C93938D76
:10053000848D981306C00288F389E02D80818F7D19
:1005400080830895EF92FF920F931F93CF93DF93D1
:10055000EC0181E0888F9B8D8C8D98131AC0E889FF
:10056000F989808185FF15C09FB7F894EE89FF89CE
:100570006083E889F98980818370806480839FBF6C
:1005800081E090E0DF91CF911F910F91FF90EF906C
:100590000895F62E0B8D10E00F5F1F4F0F7311277C
:1005A000E02E8C8D8E110CC00FB607FCFACFE889B7
:1005B000F989808185FFF5CFCE010E948002F1CFBD
:1005C000EB8DEC0FFD2FF11DE35AFF4FF0829FB72B
:1005D000F8940B8FEA89FB8980818062CFCF0F93DB
:1005E0001F93CF93DF938C01D0E0C0E0F801EC0FB4
:1005F000FD1F6491662341F088EF91E00E94A20202
:10060000892B11F02196F2CFCE01DF91CF911F916E
:100610000F910895CF93DF93EC01888D8823B9F073
:10062000AA89BB89E889F9898C9185FD03C08081FD
:1006300086FD0DC00FB607FCF7CF8C9185FFF2CF7A
:10064000808185FFEDCFCE010E948002E9CFDF914E
:10065000CF9108958091D4018823A9F020E030E063
:10066000A9016091060170910701809108019091A4
:1006700009010E948D0D18162CF481E09091D5018E
:10068000923008F480E0089520E030E040EA51E440
:100690006091060170910701809108019091090114
:1006A0000E948D0D18162CF481E09091DF0192309C
:1006B00008F480E008950F931F93CF93DF93082FE2
:1006C000162FD42FC22F811108C0809103018823D7
:1006D00021F060E087E00E942201111108C08091A2
:1006E0000201882321F060E086E00E942201D111FE
:1006F00008C080910101882321F060E085E00E941C
:100700002201C11108C080910001882321F060E01E
:1007100084E00E942201002341F080910301813096
:1007200021F061E087E00E942201112341F08091D5
:100730000201813021F061E086E00E942201DD2388
:1007400041F080910101813021F061E085E00E945B
:100750002201CC2341F080910001813021F061E041
:1007600084E00E9422010093030110930201D093C0
:100770000101C0930001DF91CF911F910F91089566
:1007800021E040E060E080E00E945B0384E090E0D4
:100790009093D3018093D201089520E040E061E07E
:1007A00080E00E945B0383E090E09093D30180930C
:1007B000D201089520E041E060E081E00E945B0307
:1007C00082E090E09093D3018093D201089520E0DD
:1007D00040E060E080E00E945B031092D301109241
:1007E000D20108951092E3011092E2011092E0010B
:1007F0001092DF011092E1010C94E703CF93DF9395
:100800002091D2013091D30128173907F9F08330B4
:10081000910531F1EC018430910548F48130910566
:10082000C1F00297C9F0DF91CF910C94E7038430B7
:100830009105D1F020E041E00597A9F761E080E063
:100840000E945B03D093D301C093D201DF91CF917B
:10085000089521E040E0F2CFDF91CF910C94DA03CC
:10086000DF91CF910C94CD03DF91CF910C94C00315
:10087000FC0101900020E9F73197AF01481B590BAB
:10088000BC0188EF91E00C9402028F929F92AF928C
:10089000BF920F931F93CF93DF93CDB7DEB7A1978E
:1008A0000FB6F894DEBF0FBECDBF19A2423008F4D8
:1008B0004AE08E010F5D1F4F842E912CB12CA12C8C
:1008C000A50194010E94040EE62FB901CA01EA3085
:1008D000F4F4E05DD801EE938D01232B242B252B1E
:1008E00079F790E080E0109719F0CD010E9438046C
:1008F000A1960FB6F894DEBF0FBECDBFDF91CF91AA
:100900001F910F91BF90AF909F908F900895E95CD9
:10091000E1CFCF93DF930E94EF02EC018AE291E0F6
:100920000E9438048C0F9D1FDF91CF910895CF93C3
:10093000DF93EC019093E5018093E4014093E6019D
:100940005093E7016093E8017093E90121E020935F
:10095000EA0180910B0190910C01209739F40197E5
:1009600011F420930D010E94F20305C0019719F0C4
:10097000C230D105C1F38BE890E00E94EF022197CD
:100980008AEF90E0C530D10530F4CC0FDD1FC25F97
:10099000DE4F88819981DF91CF910C9489048F92E9
:1009A0009F92AF92BF92CF92DF92EF92FF926093AD
:1009B000F4017093F5018093F6019093F7018FE3B2
:1009C00091E00E94EF0260910B0170E090E080E006
:1009D0004AE00E94450488E391E00E94EF02C09043
:1009E0000601D0900701E0900801F090090120E095
:1009F00030E0A901C701B6010E94350C87FF33C062
:100A000084E391E00E94EF028EE291E00E94EF0207
:100A10008091D2019091D30101978530910508F022
:100A200093C0880F991FFC01E25FFE4F8081918186
:100A30000E94EF0286E291E00E94EF0280910D0198
:100A4000882309F484C080E291E00E94EF028AE2E8
:100A500091E0FF90EF90DF90CF90BF90AF909F908C
:100A60008F900C943804A7019601C701B6010E942B
:100A7000FF0D882329F08DE291E00E943804C4CF55
:100A800046015701E894B7F82FEF3FEF4FE75FE7D4
:100A9000C501B4010E94FF0D81110DC02FEF3FEF82
:100AA0004FE75FE7C501B4010E94350C18161CF42E
:100AB00081E391E0E2CF2FEF3FEF4FE75FE4C70123
:100AC000B6010E948D0D18161CF485E391E0D5CF78
:100AD0002FEF3FEF4FE75FECC701B6010E94350CE7
:100AE00087FDF3CF2DEC3CEC4CE45DE3C701B60190
:100AF0000E94C90B4B015C010E94AC0C6B017C0194
:100B00000E94DB0C9B01AC01C501B4010E94C80B23
:100B10004B015C014AE0C701B6010E9445046EE248
:100B200088EF91E00E94A20220E030E040E251E430
:100B3000C501B4010E94920D0E94AC0C90E080E0CF
:100B40004AE00E94450460CF8AEF90E071CFE090C8
:100B50000B01F0900C0182E0E816F10459F00E94BC
:100B60002A03811103C084E191E06FCF81E0E81690
:100B7000F10439F08091EA01811103C08AE091E02B
:100B800064CF8091E2019091E301892B19F080E01C
:100B900091E05BCF81E0E816F10439F082E0E816DD
:100BA000F10431F083EE90E050CF81EF90E04DCF33
:100BB0008AEE90E04ACFCF92DF92EF92FF920F93AE
:100BC0001F930091F4011091F5012091F6013091ED
:100BD000F7016B017C01C01AD10AE20AF30A9701FE
:100BE00086010A3F11052105310540F01F910F9143
:100BF000FF90EF90DF90CF900C94CF041F910F9156
:100C0000FF90EF90DF90CF900895CF93C82F90E0A2
:100C100090930C0180930B0181E090E0C13011F0C2
:100C200090E080E09093E5018093E4014093E60139
:100C30005093E7016093E8017093E9010E94F20389
:100C400088E491E00E94EF026C2F70E090E080E079
:100C50004AE00E9445048AE291E0CF910C94380466
:100C6000CF92DF92EF92FF92CF93DF936B017C01E3
:100C7000D1E3C1E088EF91E00E94600218161906E6
:100C80000CF00EC1D15009F40BC188EF91E00E9425
:100C90003E029091D1018A3019F08D3009F0E8C000
:100CA000992329F01092D1011092D001E3CFE09165
:100CB000D001EE23F9F2F0E0E255FE4F108269E335
:100CC00071E08EEA91E00E942C0E892B31F4B7017D
:100CD000A60181E00E940506E7CF60E471E08EEA9C
:100CE00091E00E942C0E892B21F4B701A60182E02D
:100CF000F1CF67E471E08EEA91E00E942C0E892B1F
:100D000021F4B701A60183E0E5CF6EE471E08EEA3D
:100D100091E00E942C0E892B39F4B701A60181E0E5
:100D200090E00E949704C0CF69E571E08EEA91E0FF
:100D30000E942C0E892B29F4B701A60182E090E0D5
:100D4000F0CF62E671E08EEA91E00E942C0E892BD2
:100D500029F4B701A60183E090E0E3CF6EE671E0ED
:100D60008EEA91E00E942C0E892B29F4B701A6018E
:100D700084E090E0D6CF6BE771E08EEA91E00E94CC
:100D80002C0E892B29F4B701A60190E080E0C9CF91
:100D900065E871E08EEA91E00E942C0E892B29F41F
:100DA000B701A60185E090E0BCCF65E971E08EEA6D
:100DB00091E00E942C0E892B49F4C0930D010E94F2
:100DC000F20389EC90E00E9489046ECF6FE871E035
:100DD0008EEA91E00E942C0E892B21F510920D01D4
:100DE00081E090E020910B0130910C012130310520
:100DF00011F090E080E09093E5018093E401C092CF
:100E0000E601D092E701E092E801F092E901109248
:100E1000EA01C0930A011092D5010E94F2038AEB05
:100E200090E0D1CF6BE971E08EEA91E00E942C0E48
:100E3000892B19F48EEA90E0C6CF61EA71E08EEA60
:100E400091E00E942C0E892B19F489EA90E0BBCF27
:100E500066EA71E08EEA91E00E942C0E892B29F45B
:100E6000C701B6010E94CF041FCF83E990E0ABCF4A
:100E7000911100CFE091D001E13248F491E09E0F52
:100E80009093D001F0E0E255FE4F8083F3CE1092B4
:100E9000D001C093D10182ED90E00E948904EACE96
:100EA000DF91CF91FF90EF90DF90CF9008951F9248
:100EB0000F920FB60F9211242F933F938F939F930E
:100EC000AF93BF938091EC019091ED01A091EE0161
:100ED000B091EF013091EB0123E0230F2D3758F54E
:100EE0000196A11DB11D2093EB018093EC0190931D
:100EF000ED01A093EE01B093EF018091F00190918C
:100F0000F101A091F201B091F3010196A11DB11D73
:100F10008093F0019093F101A093F201B093F3015B
:100F2000BF91AF919F918F913F912F910F900FBEE5
:100F30000F901F90189526E8230F0296A11DB11D52
:100F4000D2CF1F920F920FB60F9211242F933F937F
:100F50004F935F936F937F938F939F93AF93BF93C1
:100F6000EF93FF9388EF91E00E948002FF91EF9151
:100F7000BF91AF919F918F917F916F915F914F91B1
:100F80003F912F910F900FBE0F901F9018951F92B9
:100F90000F920FB60F9211242F938F939F93EF937D
:100FA000FF93E0910802F09109028081E0910E0226
:100FB000F0910F0282FD1BC09081809111028F5F22
:100FC0008F7320911202821741F0E0911102F0E03C
:100FD000E850FE4F958F80931102FF91EF919F9102
:100FE0008F912F910F900FBE0F901F9018958081B9
:100FF000F4CFCF92DF92EF92FF920F931F93E82FDF
:10100000F92F05C0015011092109310961F19081C1
:1010100096239417B9F305C001501109210931092C
:1010200011F1908196239413F7CFC12CD12CE12C90
:10103000F12C0AC08FEFC81AD80AE80AF80A0C1572
:101040001D052E053F0579F080818623841791F3D5
:101050006C2D7D2D8E2D9F2D1F910F91FF90EF9068
:10106000DF90CF90089560E070E080E090E01F9105
:101070000F91FF90EF90DF90CF900895789484B512
:10108000826084BD84B5816084BD85B5826085BD84
:1010900085B5816085BD80916E00816080936E0012
:1010A0001092810080918100826080938100809104
:1010B00081008160809381008091800081608093B5
:1010C00080008091B10084608093B1008091B00075
:1010D00081608093B00080917A00846080937A0070
:1010E00080917A00826080937A0080917A0081609A
:1010F00080937A0080917A00806880937A001092C1
:10110000C10061E087E00E946E0161E086E00E941C
:101110006E0161E085E00E946E0161E084E00E9462
:101120006E0161E083E00E946E0160E082E00E9457
:101130006E0160E083E00E9422010E94E703E091DB
:101140000802F091090282E08083E0910402F091AC
:1011500005021082E0910602F09107028FEC808375
:1011600010921002E0910C02F0910D0286E0808353
:10117000E0910A02F0910B02808180618083E0910E
:101180000A02F0910B02808188608083E0910A025C
:10119000F0910B02808180688083E0910A02F091D7
:1011A0000B0280818F7D808360ED77E080E090E0AE
:1011B0000E94C4010E94F6016093E6017093E7016A
:1011C0008093E8019093E9018BE591E00E94890406
:1011D00081E591E00E9489040E94F6016B017C0187
:1011E0000E94F6016C197D098E099F096E3E7240BE
:1011F0008105910508F4ADC043E0C42ED12C24E054
:10120000E22EF12C32E0232E312C0E94F6014B010C
:101210005C010E9430068091D7019091D801A09185
:10122000D901B091DA01A5019401281B390B4A0BB1
:101230005B0BDA01C90180359105A105B10508F400
:1012400080C08092D7019092D801A092D901B0922B
:10125000DA0160E083E00E9422018FE090E00197D4
:10126000F1F761E083E00E9422018BE290E00197B8
:10127000F1F760E083E00E942201E8ECF1E0649184
:10128000E4EBF1E08491E82FF0E0EE0FFF1FE95965
:10129000FE4F8591949100E315E720E030E0462F62
:1012A0000E94F907611571058105910531F16F5FA4
:1012B0007F4F8F4F9F4F9F7061157105810591057D
:1012C000E1F00E94DB0C20E030E048E652E40E94AE
:1012D0003A0C2B013C0120E030E040E050E40E9459
:1012E000350C87FD0AC020E030E048EC53E4C30130
:1012F000B2010E948D0D181634F4412C512C80E857
:10130000682E8FEB782E4092060150920701609272
:1013100008017092090120E030E0A901C301B20187
:101320000E94350C87FF22C08091D6018F3F19F0B3
:101330008F5F8093D6011092D5011092DF01109239
:10134000E00180910D01882309F446C00E94E70363
:101350006EC00E94E7030E94F6010E94300661E021
:1013600070E080E090E00E94C4013ACF81E0809379
:10137000D4011092D6018091D501823018F48F5F8C
:101380008093D5018091E2019091E301049729F4C3
:101390001092E0011092DF01D4CF20E030E040EA6B
:1013A00051E4C301B2010E94350C181654F010929A
:1013B000DF018091E0018F3F21F28F5F8093E00198
:1013C000C0CF1092E0018091DF01823008F0B9CFE8
:1013D0008F5F8093DF01B5CF80910B0190910C015D
:1013E0009C01225031092230310590F52091EA010B
:1013F0002223A9F04091E6015091E7016091E801B4
:101400007091E90195018401041B150B260B370B24
:10141000B901A8014D3D554061057105F0F01092EC
:10142000EA011092E5011092E4010E94F203C50165
:10143000B4010E94DB05E0E0F0E0EF2B09F4E5CE1B
:101440000E946C02882309F4DACE0E940000D7CEF5
:1014500001E010E08130910539F00091E401109134
:10146000E501029709F4F6C0C091E201D091E301D1
:10147000209741F00E942A038823B9F20130110518
:1014800021F410C00130110529F0C801039703971A
:1014900008F04DC10E942A03882309F457CF2097F2
:1014A00009F4D1C08091DB019091DC01A091DD01B4
:1014B000B091DE0124013501481A590A6A0A7B0AF3
:1014C000C330D10509F460C0A8F4C130D10561F181
:1014D000229709F0ACCF30E9431631E0530661049E
:1014E000710408F4A4CF0E94E703D092E301C092F4
:1014F000E20141C0C430D10509F45DC0259709F06F
:1015000096CF0E94E7030E944403882309F468C031
:1015100081E080930A011092E3011092E20110929F
:10152000E0011092DF0183CF0E94E70320E030E06A
:1015300040EA51E460910601709107018091080131
:10154000909109010E948D0D181634F40E94F20347
:1015500081E08093E1016BCF26E9421651046104DA
:10156000710408F464CF10920A010E94DA033092E9
:10157000E3012092E2018092DB019092DC01A092D3
:10158000DD01B092DE0153CF46E9441651046104F7
:10159000710408F44CCF1092E0018091040188237B
:1015A00039F00E94CD03F092E301E092E201E3CF33
:1015B0000E94C003F8CF5AE8451652E05506610470
:1015C000710408F434CF0E94E70385E090E0909323
:1015D000E3018093E2011092E0011092DF01CBCF92
:1015E00020E030E0A901609106017091070180912F
:1015F0000801909109010E948D0D18160CF017CF6B
:101600008091E001823008F412CF1092E001109234
:10161000DF0180910401882399F00E94CD03F092AC
:10162000E301E092E2018092DB019092DC01A09262
:10163000DD01B092DE0181E791E00E948904F7CEDE
:101640000E94C003ECCF0130110551F0C80103978F
:10165000039730F01092E101C8010E94FE03E7CE2B
:1016600040900601509007016090080170900901B8
:101670008091E101882309F442C00E94E70320E041
:1016800030E0A901C301B2010E948D0D181624F4A7
:101690008091E001823058F40E944403882309F4C9
:1016A000C6CE1092E10181E080930A01D5CF0E945D
:1016B000E7031092E0011092DF011092E1018091A6
:1016C0000A018823C9F0809105018093040191E00B
:1016D00089278093050181E090E09093E301809356
:1016E000E2018092DB019092DC01A092DD01B092D8
:1016F000DE0187E891E0A1CF83E090E0EECF20E02B
:1017000030E040EA51E4C301B2010E94350C1816E2
:1017100044F081E08093E1011092E0011092DF013A
:1017200015CE0E944403882309F496CFBCCF20979E
:1017300009F48CCFB7CEE8EFF1E01382128288EE85
:1017400093E0A0E0B0E084839583A683B7838CE127
:1017500091E09183808385EC90E09587848784EC89
:1017600090E09787868780EC90E0918B808B81EC6E
:1017700090E0938B828B82EC90E0958B848B86EC4F
:1017800090E0978B868B118E128E138E148E089597
:101790005058BB27AA270E94E00B0C94530D0E94BF
:1017A000450D38F00E944C0D20F039F49F3F19F49C
:1017B00026F40C94420D0EF4E095E7FB0C943C0DDE
:1017C000E92F0E94640D58F3BA1762077307840764
:1017D000950720F079F4A6F50C94860D0EF4E095AB
:1017E0000B2EBA2FA02D0B01B90190010C01CA01DB
:1017F000A0011124FF27591B99F0593F50F4503E86
:1018000068F11A16F040A22F232F342F4427585F77
:10181000F3CF469537952795A795F0405395C9F78F
:101820007EF41F16BA0B620B730B840BBAF0915047
:10183000A1F0FF0FBB1F661F771F881FC2F70EC0E6
:10184000BA0F621F731F841F48F4879577956795B9
:10185000B795F7959E3F08F0B0CF9395880F08F0A5
:101860009927EE0F9795879508950E94180D08F413
:1018700081E008950E944E0C0C94530D0E944C0D73
:1018800058F00E94450D40F029F45F3F29F00C9478
:101890003C0D51110C94870D0C94420D0E94640D67
:1018A00068F39923B1F3552391F3951B550BBB278F
:1018B000AA2762177307840738F09F5F5F4F220FD4
:1018C000331F441FAA1FA9F335D00E2E3AF0E0E8CB
:1018D00032D091505040E695001CCAF72BD0FE2F15
:1018E00029D0660F771F881FBB1F261737074807A9
:1018F000AB07B0E809F0BB0B802DBF01FF27935861
:101900005F4F3AF09E3F510578F00C943C0D0C94DB
:10191000870D5F3FE4F3983ED4F3869577956795FE
:10192000B795F7959F5FC9F7880F911D9695879595
:1019300097F90895E1E0660F771F881FBB1F6217B4
:1019400073078407BA0720F0621B730B840BBA0B72
:10195000EE1F88F7E09508950E946C0D88F09F5760
:1019600098F0B92F9927B751B0F0E1F0660F771FC3
:10197000881F991F1AF0BA95C9F714C0B13091F0B9
:101980000E94860DB1E008950C94860D672F782F84
:101990008827B85F39F0B93FCCF38695779567957E
:1019A000B395D9F73EF490958095709561957F4FEA
:1019B0008F4F9F4F0895E89409C097FB3EF4909590
:1019C0008095709561957F4F8F4F9F4F9923A9F018
:1019D000F92F96E9BB279395F695879577956795A7
:1019E000B795F111F8CFFAF4BB0F11F460FF1BC0EB
:1019F0006F5F7F4F8F4F9F4F16C0882311F096E97E
:101A000011C0772321F09EE8872F762F05C066232B
:101A100071F096E8862F70E060E02AF09A95660FE4
:101A2000771F881FDAF7880F9695879597F908959D
:101A3000990F0008550FAA0BE0E8FEEF16161706DF
:101A4000E807F907C0F012161306E407F50798F047
:101A5000621B730B840B950B39F40A2661F0232B60
:101A6000242B252B21F408950A2609F4A140A695DC
:101A70008FEF811D811D089597F99F6780E870E0C1
:101A800060E008959FEF80EC089500240A941616F4
:101A9000170618060906089500240A94121613065C
:101AA000140605060895092E0394000C11F48823EA
:101AB00052F0BB0F40F4BF2B11F460FF04C06F5F06
:101AC0007F4F8F4F9F4F089557FD9058440F551FDC
:101AD00059F05F3F71F04795880F97FB991F61F0B0
:101AE0009F3F79F087950895121613061406551F27
:101AF000F2CF4695F1DF08C0161617061806991F93
:101B0000F1CF86957105610508940895E894BB2787
:101B100066277727CB0197F908950E94180D08F4DE
:101B20008FEF08950E94A50D0C94530D0E94450D52
:101B300038F00E944C0D20F0952311F00C943C0DD0
:101B40000C94420D11240C94870D0E94640D70F3C7
:101B5000959FC1F3950F50E0551F629FF001729F52
:101B6000BB27F00DB11D639FAA27F00DB11DAA1F61
:101B7000649F6627B00DA11D661F829F2227B00DAE
:101B8000A11D621F739FB00DA11D621F839FA00D39
:101B9000611D221F749F3327A00D611D231F849F89
:101BA000600D211D822F762F6A2F11249F575040E0
:101BB0009AF0F1F088234AF0EE0FFF1FBB1F661F5B
:101BC000771F881F91505040A9F79E3F510580F024
:101BD0000C943C0D0C94870D5F3FE4F3983ED4F3D6
:101BE000869577956795B795F795E7959F5FC1F7C8
:101BF000FE2B880F911D9695879597F908950E9461
:101C0000180D880B990B0895A1E21A2EAA1BBB1B75
:101C1000FD010DC0AA1FBB1FEE1FFF1FA217B307B8
:101C2000E407F50720F0A21BB30BE40BF50B661FCE
:101C3000771F881F991F1A9469F760957095809592
:101C400090959B01AC01BD01CF010895EE0FFF1FE0
:101C50000590F491E02D0994FB01DC018D91019038
:0E1C600080190110D9F3990B0895F894FFCF65
:101C6E00FFFFFFFF0101000080BF010100018400A2
:101C7E007F0077006E00680000000000A2020202E2
:101C8E002F020A0360023E0252020D0A006E616EBE
:101C9E0000696E66006F7666004D4F44453A31001E
:101CAE004D4F44453A32004D4F44453A3300434D73
:101CBE00443A4652454E544500434D443A545241DF
:101CCE005300434D443A4449524549544100434D13
:101CDE00443A455351554552444100434D443A50C0
:101CEE004152415200434D443A47495241520052EB
:101CFE00455345545F4553544F500048454C4C4F47
:0E1D0E000050494E47005354415455530000B5
:00000001FF
