:100000000C94F8000C9420010C9420010C94200115
:100010000C9420010C9420010C9420010C942001DC
:100020000C9420010C9420010C9420010C942001CC
:100030000C9420010C9420010C9420010C942001BC
:100040000C9416070C9420010C9486070C946007FE
:100050000C9420010C9420010C9420010C9420019C
:100060000C9420010C942001474952415200455301
:100070005155455244410044495245495441005468
:10008000524153004652454E5445004F4B3A434D62
:10009000443A004552524F3A434F4D414E444F5F10
:1000A000494E56414C49444F00504F4E4700515421
:1000B0003A52454144593A5637004F4B3A5245530C
:1000C00045545F4553544F50004F4B3A4553544F9E
:1000D00050004552524F3A4C494E48415F4C4F4EAA
:1000E000474100474553544F5300534547554952E4
:1000F000004155544F4E4F4D4F0050415241520018
:100100004445535649414E444F004C494E4B5F576E
:100110004149540053454E534F525F4641494C00AC
:100120004553544F50007C53544154453A007C434E
:100130004D443A00455252007C444953543A0051D0
:10014000547C4D4F44453A004F4B3A4D4F44453A4D
:10015000004F4B3A4D4F44453A310051543A5245C5
:100160004144593A56370000000000230026002978
:10017000004556454E544F3A43555256415F434F02
:100180004E54494E5541004556454E544F3A44450C
:100190005356494F5F494E49434941444F0000007F
:1001A0000000240027002A0000000000250028008D
:1001B0002B000404040404040404020202020202E8
:1001C000030303030303010204081020408001021B
:1001D000040810200102040810200000000800029A
:1001E00001000003040700000000000000004F0BA6
:1001F00011241FBECFEFD8E0DEBFCDBF11E0A0E0DD
:10020000B1E0E6EDFBE102C005900D92AA3AB1071C
:10021000D9F722E0AAEAB1E001C01D92A139B207E4
:10022000E1F710E0C8EFD0E004C02197FE010E9482
:10023000DA0DC73FD107C9F70E94FD070C94E90DFD
:100240000C94000090E0FC01E652FE4F2491FC016A
:10025000EA53FE4F3491FC01EE54FE4FE491EE233D
:10026000C9F0222339F0233001F1A8F4213019F12B
:10027000223029F1F0E0EE0FFF1FE855FE4FA59167
:10028000B4918FB7F894EC91611126C030953E235C
:100290003C938FBF08952730A9F02830C9F024304F
:1002A00049F7809180008F7D03C0809180008F7717
:1002B00080938000DFCF84B58F7784BDDBCF84B59A
:1002C0008F7DFBCF8091B0008F778093B000D2CF2D
:1002D0008091B0008F7DF9CF3E2BDACFCF93DF93A3
:1002E00090E0FC01EA53FE4F24918E549E4FFC0196
:1002F00084918823D1F090E0880F991FFC01E25689
:10030000FE4FA591B491FC01E855FE4FC591D491E3
:1003100061110EC09FB7F8948C91E22FE0958E2367
:100320008C932881E223E8839FBFDF91CF910895CA
:100330008FB7F894EC91E22BEC938FBFF6CF3FB7D9
:10034000F8948091EC019091ED01A091EE01B091B3
:10035000EF0126B5A89B05C02F3F19F00196A11DFE
:10036000B11D3FBFBA2FA92F982F8827BC01CD01FF
:10037000620F711D811D911D42E0660F771F881F5E
:10038000991F4A95D1F708958F929F92AF92BF928D
:10039000CF92DF92EF92FF924B015C010E949F018E
:1003A0006B017C010E949F016C197D098E099F09D8
:1003B000683E734081059105A8F321E0821A9108F7
:1003C000A108B10888EEC80E83E0D81EE11CF11C1C
:1003D00081149104A104B10429F7FF90EF90DF90FC
:1003E000CF90BF90AF909F908F9008952FB7F894C3
:1003F0006091E8017091E9018091EA019091EB012F
:100400002FBF0895AF92BF92CF92DF92EF92FF92EB
:100410000F931F93CF93DF936C017B018B01040F2C
:10042000151FEB015E01AE18BF08C017D10759F0C8
:100430006991D601ED91FC910190F081E02DC6010A
:100440000995892B79F7C501DF91CF911F910F9104
:10045000FF90EF90DF90CF90BF90AF900895FC0198
:10046000538D448D252F30E0842F90E0821B930B19
:10047000541710F0CF96089501970895FC01918DBF
:10048000828D981761F0A28DAE0FBF2FB11D5D96C2
:100490008C91928D9F5F9F73928F90E008958FEF64
:1004A0009FEF0895FC01918D828D981731F0828D18
:1004B000E80FF11D858D90E008958FEF9FEF08956F
:1004C000FC01918D228D892F90E0805C9F4F821BD3
:1004D00091098F739927089584EF91E00E9460023B
:1004E00021E0892B09F420E0822F089580E090E03C
:1004F000892B29F00E946C0281110C940000089550
:10050000FC01A48DA80FB92FB11DA35ABF4F2C9188
:10051000848D90E001968F739927848FA689B7897F
:100520002C93A089B1898C91837080648C93938D76
:10053000848D981306C00288F389E02D80818F7D19
:1005400080830895EF92FF920F931F93CF93DF93D1
:10055000EC0181E0888F9B8D8C8D98131AC0E889FF
:10056000F989808185FF15C09FB7F894EE89FF89CE
:100570006083E889F98980818370806480839FBF6C
:1005800081E090E0DF91CF911F910F91FF90EF906C
:100590000895F62E0B8D10E00F5F1F4F0F7311277C
:1005A000E02E8C8D8E110CC00FB607FCFACFE889B7
:1005B000F989808185FFF5CFCE010E948002F1CFBD
:1005C000EB8DEC0FFD2FF11DE35AFF4FF0829FB72B
:1005D000F8940B8FEA89FB8980818062CFCF0F93DB
:1005E0001F93CF93DF938C01D0E0C0E0F801EC0FB4
:1005F000FD1F6491662341F084EF91E00E94A20206
:10060000892B11F02196F2CFCE01DF91CF911F916E
:100610000F910895CF93DF93EC01888D8823B9F073
:10062000AA89BB89E889F9898C9185FD03C08081FD
:1006300086FD0DC00FB607FCF7CF8C9185FFF2CF7A
:10064000808185FFEDCFCE010E948002E9CFDF914E
:10065000CF9108958091D0018823A9F020E030E067
:10066000A9016091020170910301809104019091B0
:1006700005010E94410D18162CF481E09091D101E2
:10068000923008F480E0089520E030E040EA50E441
:100690006091020170910301809104019091050124
:1006A0000E94410D18162CF481E09091DB019230EC
:1006B00008F480E008950F931F93CF93DF93082FE2
:1006C000162FD42FC22F60E087E00E94220160E045
:1006D00086E00E94220160E085E00E94220160E045
:1006E00084E00E942201602F87E00E942201612F96
:1006F00086E00E9422016D2F85E00E9422016C2F6E
:1007000084E0DF91CF911F910F910C94220121E0A1
:1007100040E060E080E00E945B0384E090E0909322
:10072000CF018093CE01089520E040E061E080E0B9
:100730000E945B0383E090E09093CF018093CE0111
:10074000089520E041E060E081E00E945B0382E0E8
:1007500090E09093CF018093CE01089520E040E097
:1007600060E080E00E945B031092CF011092CE0106
:1007700008951092DF011092DE011092DC011092B8
:10078000DB011092DD010C94AE03CF93DF93209137
:10079000CE013091CF0128173907F9F08330910548
:1007A00031F1EC018430910548F481309105C1F0BC
:1007B0000297C9F0DF91CF910C94AE03843091057C
:1007C000D1F020E041E00597A9F761E080E00E94C8
:1007D0005B03D093CF01C093CE01DF91CF910895F9
:1007E00021E040E0F2CFDF91CF910C94A103DF91A3
:1007F000CF910C949403DF91CF910C948703FC016B
:1008000001900020E9F73197AF01481B590BBC015B
:1008100084EF91E00C9402028F929F92AF92BF926C
:100820000F931F93CF93DF93CDB7DEB7A1970FB68A
:10083000F894DEBF0FBECDBF19A2423008F44AE0E3
:100840008E010F5D1F4F842E912CB12CA12CA50180
:1008500094010E94B80DE62FB901CA01EA30F4F400
:10086000E05DD801EE938D01232B242B252B79F706
:1008700090E080E0109719F0CD010E94FF03A1964F
:100880000FB6F894DEBF0FBECDBFDF91CF911F91A1
:100890000F91BF90AF909F908F900895E95CE1CF4A
:1008A000CF93DF930E94EF02EC0186E291E00E9479
:1008B000FF038C0F9D1FDF91CF910895CF93DF939E
:1008C000EC019093E1018093E0014093E2015093A9
:1008D000E3016093E4017093E50121E02093E601D8
:1008E0008091070190910801209739F4019711F444
:1008F000209309010E94B90305C0019719F0C23085
:10090000D105C1F38BE890E00E94EF0221978AEFB6
:1009100090E0C530D10530F4CC0FDD1FC65FDE4F4F
:1009200088819981DF91CF910C9450048F929F928E
:10093000AF92BF92CF92DF92EF92FF926093F0015D
:100940007093F1018093F2019093F3018FE391E0B2
:100950000E94EF026091070170E090E080E04AE0C1
:100960000E940C0488E391E00E94EF02C090020113
:10097000D0900301E0900401F090050120E030E008
:10098000A901C701B6010E94E90B87FF33C084E3C8
:1009900091E00E94EF028EE291E00E94EF028091CE
:1009A000CE019091CF0101978530910508F093C059
:1009B000880F991FFC01E65FFE4F808191810E94A4
:1009C000EF0286E291E00E94EF0280910901882304
:1009D00009F484C080E291E00E94EF0286E291E097
:1009E000FF90EF90DF90CF90BF90AF909F908F904F
:1009F0000C94FF03A7019601C701B6010E94B30D35
:100A0000882329F089E291E00E94FF03C4CF4601C8
:100A10005701E894B7F82FEF3FEF4FE75FE7C501C5
:100A2000B4010E94B30D81110DC02FEF3FEF4FE7CE
:100A30005FE7C501B4010E94E90B18161CF48DE2B2
:100A400091E0E2CF2FEF3FEF4FE75FE4C701B60140
:100A50000E94410D18161CF481E391E0D5CF2FEFD1
:100A60003FEF4FE75FECC701B6010E94E90B87FD3E
:100A7000F3CF2DEC3CEC4CE45DE3C701B6010E94E2
:100A80007D0B4B015C010E94600C6B017C010E949C
:100A90008F0C9B01AC01C501B4010E947C0B4B0182
:100AA0005C014AE0C701B6010E940C046EE284EFCB
:100AB00091E00E94A20220E030E040E251E4C50152
:100AC000B4010E94460D0E94600C90E080E04AE074
:100AD0000E940C0460CF8AEF90E071CF0E942A033D
:100AE000811103C084E191E077CF8091070190915B
:100AF00008018130910539F02091E601211103C0F0
:100B00008AE091E069CF2091DE013091DF01232B53
:100B100019F080E091E060CF8130910529F00297D3
:100B200031F083EE90E058CF81EF90E055CF8AEE20
:100B300090E052CFCF92DF92EF92FF920F931F93EC
:100B40000091F0011091F1012091F2013091F30137
:100B50006B017C01C01AD10AE20AF30A97018601EF
:100B60000A3F11052105310540F01F910F91FF90BB
:100B7000EF90DF90CF900C9496041F910F91FF900F
:100B8000EF90DF90CF900895CF93C82F90E090938F
:100B900008018093070181E090E0C13011F090E0FE
:100BA00080E09093E1018093E0014093E201509353
:100BB000E3016093E4017093E5010E94B90388E4C6
:100BC00091E00E94EF026C2F70E090E080E04AE03C
:100BD0000E940C0486E291E0CF910C94FF03CF9227
:100BE000DF92EF92FF92CF93DF936B017C01D1E311
:100BF000C1E084EF91E00E946002181619060CF023
:100C00000EC1D15009F40BC184EF91E00E943E0265
:100C10009091CD018A3019F08D3009F0E8C0992308
:100C200029F01092CD011092CC01E3CFE091CC01DC
:100C3000EE23F9F2F0E0E655FE4F108265E371E035
:100C40008AEA91E00E94E00D892B31F4B701A601F8
:100C500081E00E94C405E7CF6CE371E08AEA91E08D
:100C60000E94E00D892B21F4B701A60182E0F1CFAB
:100C700063E471E08AEA91E00E94E00D892B21F49F
:100C8000B701A60183E0E5CF6AE471E08AEA91E06A
:100C90000E94E00D892B39F4B701A60181E090E0B4
:100CA0000E945E04C0CF65E571E08AEA91E00E948F
:100CB000E00D892B29F4B701A60182E090E0F0CF86
:100CC0006EE571E08AEA91E00E94E00D892B29F43B
:100CD000B701A60183E090E0E3CF6AE671E08AEA1B
:100CE00091E00E94E00D892B29F4B701A60184E070
:100CF00090E0D6CF67E771E08AEA91E00E94E00DCC
:100D0000892B29F4B701A60190E080E0C9CF61E802
:100D100071E08AEA91E00E94E00D892B29F4B70185
:100D2000A60185E090E0BCCF61E971E08AEA91E03C
:100D30000E94E00D892B49F4C09309010E94B90378
:100D400089EC90E00E9450046ECF6BE871E08AEA73
:100D500091E00E94E00D892B21F51092090181E0BC
:100D600090E020910701309108012130310511F008
:100D700090E080E09093E1018093E001C092E20175
:100D8000D092E301E092E401F092E5011092E601D5
:100D9000C09306011092D1010E94B9038AEB90E042
:100DA000D1CF67E971E08AEA91E00E94E00D892BDA
:100DB00019F48EEA90E0C6CF6DE971E08AEA91E01D
:100DC0000E94E00D892B19F489EA90E0BBCF62EA1A
:100DD00071E08AEA91E00E94E00D892B29F4C701B5
:100DE000B6010E9496041FCF83E990E0ABCF91112A
:100DF00000CFE091CC01E13248F491E09E0F909356
:100E0000CC01F0E0E655FE4F8083F3CE1092CC018A
:100E1000C093CD0182ED90E00E945004EACEDF91B4
:100E2000CF91FF90EF90DF90CF9008951F920F9297
:100E30000FB60F9211242F933F938F939F93AF93ED
:100E4000BF938091E8019091E901A091EA01B091EE
:100E5000EB013091E70123E0230F2D3758F5019680
:100E6000A11DB11D2093E7018093E8019093E90152
:100E7000A093EA01B093EB018091EC019091ED0118
:100E8000A091EE01B091EF010196A11DB11D8093DB
:100E9000EC019093ED01A093EE01B093EF01BF91AF
:100EA000AF919F918F913F912F910F900FBE0F9017
:100EB0001F90189526E8230F0296A11DB11DD2CFD1
:100EC0001F920F920FB60F9211242F933F934F93BF
:100ED0005F936F937F938F939F93AF93BF93EF93A2
:100EE000FF9384EF91E00E948002FF91EF91BF9108
:100EF000AF919F918F917F916F915F914F913F91B2
:100F00002F910F900FBE0F901F9018951F920F9268
:100F10000FB60F9211242F938F939F93EF93FF930C
:100F2000E0910402F09105028081E0910A02F091C3
:100F30000B0282FD1BC0908180910D028F5F8F7329
:100F400020910E02821741F0E0910D02F0E0EC508A
:100F5000FE4F958F80930D02FF91EF919F918F919E
:100F60002F910F900FBE0F901F9018958081F4CF96
:100F7000CF92DF92EF92FF920F931F93E82FF92FFA
:100F800005C0015011092109310961F190819623B1
:100F90009417B9F305C0015011092109310911F164
:100FA000908196239413F7CFC12CD12CE12CF12CF6
:100FB0000AC08FEFC81AD80AE80AF80A0C151D05EE
:100FC0002E053F0579F080818623841791F36C2DDF
:100FD0007D2D8E2D9F2D1F910F91FF90EF90DF9013
:100FE000CF90089560E070E080E090E01F910F9155
:100FF000FF90EF90DF90CF900895789484B5826051
:1010000084BD84B5816084BD85B5826085BD85B5AC
:10101000816085BD80916E00816080936E0010922A
:1010200081008091810082608093810080918100A5
:101030008160809381008091800081608093800036
:101040008091B10084608093B1008091B000816094
:101050008093B00080917A00846080937A008091C0
:101060007A00826080937A0080917A008160809318
:101070007A0080917A00806880937A001092C10093
:1010800061E087E00E946E0161E086E00E946E01EF
:1010900061E085E00E946E0161E084E00E946E01E3
:1010A00061E083E00E946E0160E082E00E946E01D8
:1010B00060E083E00E9422010E94AE03E0910402FE
:1010C000F091050282E08083E0910002F09101023C
:1010D0001082E0910202F09103028FEC8083109263
:1010E0000C02E0910802F091090286E08083E09111
:1010F0000602F0910702808180618083E091060200
:10110000F0910702808188608083E0910602F0916F
:101110000702808180688083E0910602F0910702D7
:1011200080818F7D808360ED77E080E090E00E9499
:10113000C4010E94F6016093E2017093E301809381
:10114000E4019093E5018BE591E00E94500481E574
:1011500091E00E9450040E94F6016B017C010E9404
:10116000F6016C197D098E099F096E3E724081055A
:10117000910508F4ADC044E0E42EF12C22E0222ECB
:10118000312C33E0C32ED12C0E94F6014B015C01BF
:101190000E94EF058091D3019091D401A091D501D7
:1011A000B091D601A5019401281B390B4A0B5B0BAA
:1011B000DA01C90180359105A105B10508F480C0A7
:1011C0008092D3019092D401A092D501B092D60121
:1011D00060E083E00E9422018FE090E00197F1F748
:1011E00061E083E00E9422018BE290E00197F1F739
:1011F00060E083E00E942201E8ECF1E06491E4EB1E
:10120000F1E08491E82FF0E0EE0FFF1FE959FE4F67
:101210008591949100E315E720E030E0462F0E948D
:10122000B807611571058105910531F16F5F7F4F39
:101230008F4F9F4F9F706115710581059105E1F0FA
:101240000E948F0C20E030E048E652E40E94EE0B52
:101250002B013C0120E030E040E050E40E94E90B2B
:1012600087FD0AC020E030E048EC53E4C301B2013E
:101270000E94410D181634F4412C512C80E8682E40
:101280008FEB782E4092020150920301609204018C
:101290007092050120E030E0A901C301B2010E9473
:1012A000E90B87FF22C08091D2018F3F19F08F5F39
:1012B0008093D2011092D1011092DB011092DC01D7
:1012C00080910901882309F446C00E94AE036EC0D4
:1012D0000E94AE030E94F6010E94EF0561E070E0FB
:1012E00080E090E00E94C4013ACF81E08093D00179
:1012F0001092D2018091D101823018F48F5F8093D7
:10130000D1018091DE019091DF01049729F41092C0
:10131000DC011092DB01D4CF20E030E040EA50E461
:10132000C301B2010E94E90B181654F01092DB01C0
:101330008091DC018F3F21F28F5F8093DC01C0CF71
:101340001092DC018091DB01823008F0B9CF8F5F11
:101350008093DB01B5CF80910701909108019C013A
:10136000225031092230310590F58091E601882321
:10137000A9F08091E2019091E301A091E401B09184
:10138000E501A5019401281B390B4A0B5B0BDA011F
:10139000C9018D3D9540A105B105E8F01092E60127
:1013A0001092E1011092E0010E94B903C501B4015D
:1013B0000E949A0520E030E0232B09F4E5CE0E943C
:1013C0006C02882309F4DACE0E940000D7CE01E037
:1013D00010E0019721F00091E0011091E101C0912E
:1013E000DE01D091DF01209741F00E942A0388237B
:1013F000D9F20130110521F428C10130110529F07D
:10140000C8010397039708F01EC10E942A0388238E
:1014100009F45BCF209709F018C140900201509069
:10142000030160900401709005018091DD01882323
:1014300009F4ECC00E94AE0320E030E0A901C30132
:10144000B2010E94410D18162CF48091DC0182300B
:1014500008F0B4C00E944403882309F4A7CF109277
:10146000DD0181E080930601E7C0C430D10509F4B5
:101470005DC0259709F09ACF0E94AE030E944403F5
:10148000882309F468C081E0809306011092DF018F
:101490001092DE011092DC011092DB0187CF0E94D6
:1014A000AE0320E030E040EA50E460910201709128
:1014B000030180910401909105010E94410D1816CD
:1014C00034F40E94B90381E08093DD016FCF46E9D7
:1014D000441651046104710408F468CF10920601A7
:1014E0000E94A1033092DF012092DE018092D70199
:1014F0009092D801A092D901B092DA0157CF86E933
:10150000481651046104710408F450CF1092DC01B4
:1015100080910001882339F00E949403F092DF014A
:10152000E092DE01E3CF0E948703F8CF9AE84916E4
:1015300092E059066104710408F438CF0E94AE03AA
:10154000E5E0F0E0F093DF01E093DE011092DC01D2
:101550001092DB01CBCF20E030E0A90160910201C5
:101560007091030180910401909105010E94410D49
:1015700018160CF01BCF8091DC01823008F416CFD6
:101580001092DC011092DB0180910001882399F018
:101590000E949403F092DF01E092DE018092D70175
:1015A0009092D801A092D901B092DA0181E791E03E
:1015B0000E945004FBCE0E948703ECCF0E94AE0332
:1015C0001092DC011092DB011092DD018091060186
:1015D0008823C9F0809101018093000191E089275F
:1015E0008093010181E090E09093DF018093DE0120
:1015F0008092D7019092D801A092D901B092DA01DD
:1016000087E891E0D5CF83E090E0EECF20E030E0B6
:1016100040EA50E4C301B2010E94E90B181644F0FD
:1016200081E08093DD011092DC011092DB014DCE50
:101630000E944403811115CFC8010E94C503B6CE94
:101640001092DD01F9CF2097D9F38091D7019091C5
:10165000D801A091D901B091DA0124013501481ACD
:10166000590A6A0A7B0AC330D10509F448CF08F049
:10167000FCCEC130D10509F412CF229709F096CEE5
:1016800050E9451651E055066104710408F48ECE08
:101690000E94AE03D092DF01C092DE0127CFE4EFBB
:1016A000F1E01382128288EE93E0A0E0B0E0848340
:1016B0009583A683B78388E191E09183808385EC4D
:1016C00090E09587848784EC90E09787868780EC0C
:1016D00090E0918B808B81EC90E0938B828B82ECFD
:1016E00090E0958B848B86EC90E0978B868B118EA7
:1016F000128E138E148E08955058BB27AA270E946D
:10170000940B0C94070D0E94F90C38F00E94000D08
:1017100020F039F49F3F19F426F40C94F60C0EF4E3
:10172000E095E7FB0C94F00CE92F0E94180D58F39C
:10173000BA17620773078407950720F079F4A6F5B6
:101740000C943A0D0EF4E0950B2EBA2FA02D0B0140
:10175000B90190010C01CA01A0011124FF27591BF6
:1017600099F0593F50F4503E68F11A16F040A22FFC
:10177000232F342F4427585FF3CF4695379527956D
:10178000A795F0405395C9F77EF41F16BA0B620B6C
:10179000730B840BBAF09150A1F0FF0FBB1F661FB3
:1017A000771F881FC2F70EC0BA0F621F731F841FF6
:1017B00048F4879577956795B795F7959E3F08F01C
:1017C000B0CF9395880F08F09927EE0F97958795DE
:1017D00008950E94CC0C08F481E008950E94020C48
:1017E0000C94070D0E94000D58F00E94F90C40F077
:1017F00029F45F3F29F00C94F00C51110C943B0D2F
:101800000C94F60C0E94180D68F39923B1F355233C
:1018100091F3951B550BBB27AA2762177307840703
:1018200038F09F5F5F4F220F331F441FAA1FA9F399
:1018300035D00E2E3AF0E0E832D091505040E69587
:10184000001CCAF72BD0FE2F29D0660F771F881FE8
:10185000BB1F261737074807AB07B0E809F0BB0BDB
:10186000802DBF01FF2793585F4F3AF09E3F5105EF
:1018700078F00C94F00C0C943B0D5F3FE4F3983E31
:10188000D4F3869577956795B795F7959F5FC9F7D8
:10189000880F911D9695879597F90895E1E0660F59
:1018A000771F881FBB1F621773078407BA0720F0D2
:1018B000621B730B840BBA0BEE1F88F7E09508953B
:1018C0000E94200D88F09F5798F0B92F9927B751A3
:1018D000B0F0E1F0660F771F881F991F1AF0BA95D4
:1018E000C9F714C0B13091F00E943A0DB1E00895EB
:1018F0000C943A0D672F782F8827B85F39F0B93FDD
:10190000CCF3869577956795B395D9F73EF4909586
:101910008095709561957F4F8F4F9F4F0895E89404
:1019200009C097FB3EF490958095709561957F4F27
:101930008F4F9F4F9923A9F0F92F96E9BB279395D5
:10194000F695879577956795B795F111F8CFFAF4E5
:10195000BB0F11F460FF1BC06F5F7F4F8F4F9F4F16
:1019600016C0882311F096E911C0772321F09EE874
:10197000872F762F05C0662371F096E8862F70E0DA
:1019800060E02AF09A95660F771F881FDAF7880FB4
:101990009695879597F90895990F0008550FAA0B0A
:1019A000E0E8FEEF16161706E807F907C0F0121672
:1019B0001306E407F50798F0621B730B840B950B75
:1019C00039F40A2661F0232B242B252B21F40895CA
:1019D0000A2609F4A140A6958FEF811D811D089567
:1019E00097F99F6780E870E060E008959FEF80ECD2
:1019F000089500240A941616170618060906089575
:101A000000240A9412161306140605060895092EDA
:101A10000394000C11F4882352F0BB0F40F4BF2B49
:101A200011F460FF04C06F5F7F4F8F4F9F4F089589
:101A300057FD9058440F551F59F05F3F71F047957F
:101A4000880F97FB991F61F09F3F79F08795089564
:101A5000121613061406551FF2CF4695F1DF08C083
:101A6000161617061806991FF1CF869571056105A0
:101A700008940895E894BB2766277727CB0197F948
:101A800008950E94CC0C08F48FEF08950E94590D20
:101A90000C94070D0E94F90C38F00E94000D20F004
:101AA000952311F00C94F00C0C94F60C11240C946A
:101AB0003B0D0E94180D70F3959FC1F3950F50E0F8
:101AC000551F629FF001729FBB27F00DB11D639FF0
:101AD000AA27F00DB11DAA1F649F6627B00DA11D96
:101AE000661F829F2227B00DA11D621F739FB00D3C
:101AF000A11D621F839FA00D611D221F749F3327AC
:101B0000A00D611D231F849F600D211D822F762F44
:101B10006A2F11249F5750409AF0F1F088234AF021
:101B2000EE0FFF1FBB1F661F771F881F915050408D
:101B3000A9F79E3F510580F00C94F00C0C943B0DDE
:101B40005F3FE4F3983ED4F3869577956795B79514
:101B5000F795E7959F5FC1F7FE2B880F911D96952E
:101B6000879597F908950E94CC0C880B990B0895DE
:101B7000A1E21A2EAA1BBB1BFD010DC0AA1FBB1F91
:101B8000EE1FFF1FA217B307E407F50720F0A21B03
:101B9000B30BE40BF50B661F771F881F991F1A9470
:101BA00069F760957095809590959B01AC01BD019A
:101BB000CF010895EE0FFF1F0590F491E02D0994D9
:101BC000FB01DC018D91019080190110D9F3990B73
:061BD0000895F894FFCF18
:101BD6000101000080BF0101000184007F00770041
:101BE6006E00680000000000A20202022F020A0333
:101BF60060023E0252020D0A006E616E00696E6658
:101C0600006F7666004D4F44453A31004D4F4445CE
:101C16003A32004D4F44453A3300434D443A46521A
:101C2600454E544500434D443A5452415300434DAA
:101C3600443A4449524549544100434D443A455378
:101C460051554552444100434D443A504152415248
:101C560000434D443A474952415200524553455478
:101C66005F4553544F500048454C4C4F0050494E29
:0A1C76004700535441545553000039
:00000001FF
