:100000000C94F7000C941F010C941F010C941F0119
:100010000C941F010C941F010C941F010C941F01E0
:100020000C941F010C941F010C941F010C941F01D0
:100030000C941F010C941F010C941F010C941F01C0
:100040000C94B3060C941F010C9423070C94FD062A
:100050000C941F010C941F010C941F010C941F01A0
:100060000C941F010C941F01474952415200455303
:100070005155455244410044495245495441005468
:10008000524153004652454E5445004F4B3A434D62
:10009000443A004552524F3A434F4D414E444F5F10
:1000A000494E56414C49444F00504F4E4700515421
:1000B0003A52454144593A5635004F4B3A5245530E
:1000C00045545F4553544F50004F4B3A4553544F9E
:1000D00050004552524F3A4C494E48415F4C4F4EAA
:1000E000474100474553544F5300534547554952E4
:1000F000004155544F4E4F4D4F0050415241520018
:100100004445535649414E444F004C494E4B5F576E
:1001100041495400574149545F53454E534F520093
:100120004553544F50007C53544154453A007C434E
:100130004D443A00455252007C444953543A0051D0
:10014000547C4D4F44453A004F4B3A4D4F44453A4D
:10015000004F4B3A4D4F44453A310051543A5245C5
:100160004144593A5635000000000023002600297A
:10017000004556454E544F3A43555256415F4558F7
:10018000545241004556454E544F3A444553564902
:100190004F5F494E49434941444F0000000000244D
:1001A0000027002A0000000000250028002B000482
:1001B000040404040404040202020202020303030E
:1001C0000303030102040810204080010204081008
:1001D00020010204081020000000080002010000B5
:1001E000030407000000000000000000140B1124AD
:1001F0001FBECFEFD8E0DEBFCDBF11E0A0E0B1E081
:10020000E0E6FBE102C005900D92A83AB107D9F7EC
:1002100022E0A8EAB1E001C01D92A139B207E1F7DE
:1002200010E0C7EFD0E004C02197FE010E949F0DAF
:10023000C63FD107C9F70E949A070C94AE0D0C94E3
:10024000000090E0FC01E952FE4F2491FC01ED53C7
:10025000FE4F3491FC01E155FE4FE491EE23C9F0CD
:10026000222339F0233001F1A8F4213019F1223092
:1002700029F1F0E0EE0FFF1FEB55FE4FA591B49171
:100280008FB7F894EC91611126C030953E233C93D2
:100290008FBF08952730A9F02830C9F0243049F7DE
:1002A000809180008F7D03C0809180008F77809344
:1002B0008000DFCF84B58F7784BDDBCF84B58F7DA1
:1002C000FBCF8091B0008F778093B000D2CF809128
:1002D000B0008F7DF9CF3E2BDACFCF93DF9390E044
:1002E000FC01ED53FE4F249181559E4FFC018491FA
:1002F0008823D1F090E0880F991FFC01E556FE4F4E
:10030000A591B491FC01EB55FE4FC591D4916111BB
:100310000EC09FB7F8948C91E22FE0958E238C93BA
:100320002881E223E8839FBFDF91CF9108958FB7A3
:10033000F894EC91E22BEC938FBFF6CF3FB7F89493
:100340008091EC019091ED01A091EE01B091EF014F
:1003500026B5A89B05C02F3F19F00196A11DB11D20
:100360003FBFBA2FA92F982F8827BC01CD01620F5C
:10037000711D811D911D42E0660F771F881F991F17
:100380004A95D1F708958F929F92AF92BF92CF92E4
:10039000DF92EF92FF924B015C010E949E016B0184
:1003A0007C010E949E016C197D098E099F09683E9F
:1003B000734081059105A8F321E0821A9108A108F4
:1003C000B10888EEC80E83E0D81EE11CF11C811430
:1003D0009104A104B10429F7FF90EF90DF90CF9032
:1003E000BF90AF909F908F9008952FB7F894609131
:1003F000E8017091E9018091EA019091EB012FBF32
:100400000895AF92BF92CF92DF92EF92FF920F9337
:100410001F93CF93DF936C017B018B01040F151F9A
:10042000EB015E01AE18BF08C017D10759F0699102
:10043000D601ED91FC910190F081E02DC601099566
:10044000892B79F7C501DF91CF911F910F91FF9013
:10045000EF90DF90CF90BF90AF900895FC01538D47
:10046000448D252F30E0842F90E0821B930B54178E
:1004700010F0CF96089501970895FC01918D828D1B
:10048000981761F0A28DAE0FBF2FB11D5D968C91B4
:10049000928D9F5F9F73928F90E008958FEF9FEFF3
:1004A0000895FC01918D828D981731F0828DE80FAF
:1004B000F11D858D90E008958FEF9FEF0895FC0169
:1004C000918D228D892F90E0805C9F4F821B910936
:1004D0008F739927089584EF91E00E945F0221E0D5
:1004E000892B09F420E0822F089580E090E0892B89
:1004F00029F00E946B0281110C9400000895FC0108
:10050000A48DA80FB92FB11DA35ABF4F2C91848D74
:1005100090E001968F739927848FA689B7892C93D1
:10052000A089B1898C91837080648C93938D848D24
:10053000981306C00288F389E02D80818F7D808327
:100540000895EF92FF920F931F93CF93DF93EC01E7
:1005500081E0888F9B8D8C8D98131AC0E889F9896A
:10056000808185FF15C09FB7F894EE89FF8960836D
:10057000E889F98980818370806480839FBF81E0EE
:1005800090E0DF91CF911F910F91FF90EF90089530
:10059000F62E0B8D10E00F5F1F4F0F731127E02E0B
:1005A0008C8D8E110CC00FB607FCFACFE889F98943
:1005B000808185FFF5CFCE010E947F02F1CFEB8DC8
:1005C000EC0FFD2FF11DE35AFF4FF0829FB7F89417
:1005D0000B8FEA89FB8980818062CFCF0F931F93B5
:1005E000CF93DF938C01D0E0C0E0F801EC0FFD1F4A
:1005F0006491662341F084EF91E00E94A102892B6F
:1006000011F02196F2CFCE01DF91CF911F910F9182
:100610000895CF93DF93EC01888D8823B9F0AA89E0
:10062000BB89E889F9898C9185FD03C0808186FDAD
:100630000DC00FB607FCF7CF8C9185FFF2CF8081FC
:1006400085FFEDCFCE010E947F02E9CFDF91CF91F0
:10065000089561E087E00E94210160E086E00E9449
:10066000210160E085E00E94210161E084E00E94B8
:10067000210184E090E09093DC018093DB010895F8
:1006800060E087E00E94210161E086E00E94210194
:1006900061E085E00E94210160E084E00E94210188
:1006A00083E090E09093DC018093DB0108951F9339
:1006B000CF93DF93162FD42FC22F682F87E00E948D
:1006C0002101612F86E00E9421016D2F85E00E94AB
:1006D00021016C2F84E0DF91CF911F910C942101B7
:1006E00020E041E060E081E00E94570382E090E07A
:1006F0009093DC018093DB01089521E040E061E00C
:1007000080E00E94570381E090E09093DC018093A9
:10071000DB01089520E040E060E080E00E945703A4
:100720001092DC011092DB0108951092DE0110920C
:10073000DD011092D9010C948A03FC010190002084
:10074000E9F73197AF01481B590BBC0184EF91E0E9
:100750000C9401028F929F92AF92BF920F931F93BE
:10076000CF93DF93CDB7DEB7A1970FB6F894DEBF76
:100770000FBECDBF19A2423008F44AE08E010F5DD2
:100780001F4F842E912CB12CA12CA50194010E9405
:100790007D0DE62FB901CA01EA30F4F4E05DD8011D
:1007A000EE938D01232B242B252B79F790E080E00D
:1007B000109719F0CD010E949D03A1960FB6F894F1
:1007C000DEBF0FBECDBFDF91CF911F910F91BF90C4
:1007D000AF909F908F900895E95CE1CFCF93DF9326
:1007E0000E94EE02EC0184E291E00E949D038C0FD6
:1007F0009D1FDF91CF910895CF93DF93EC019093EC
:10080000E0018093DF014093E1015093E2016093A6
:10081000E3017093E40181E08093E501209749F0C2
:100820008091060190910701019729F0C230D1050E
:1008300011F40E9495038BE890E00E94EE0221974C
:100840008AEF90E0C530D10530F4CC0FDD1FC85FD2
:10085000DE4F88819981DF91CF910C94EE03CF9385
:10086000C82F90E0909307018093060181E090E00B
:10087000C13011F090E080E09093E0018093DF01BF
:100880004093E1015093E2016093E3017093E4012E
:100890000E94950388E491E00E94EE026C2F70E0C4
:1008A00090E080E04AE00E94AA0384E291E0CF91C8
:1008B0000C949D038F929F92AF92BF92CF92DF9242
:1008C000EF92FF926093F0017093F1018093F20137
:1008D0009093F3018FE391E00E94EE026091060194
:1008E00070E090E080E04AE00E94AA0388E391E093
:1008F0000E94EE02C0900001D0900101E090020140
:10090000F090030120E030E0A901C701B6010E9488
:10091000AE0B87FF33C084E391E00E94EE028EE2CB
:1009200091E00E94EE028091DB019091DC01019741
:100930008530910508F093C0880F991FFC01E85F8E
:10094000FE4F808191810E94EE0286E291E00E943A
:10095000EE028091E601882309F484C080E291E0F0
:100960000E94EE0284E291E0FF90EF90DF90CF9042
:10097000BF90AF909F908F900C949D03A70196011C
:10098000C701B6010E94780D882329F087E291E023
:100990000E949D03C4CF46015701E894B7F82FEF9A
:1009A0003FEF4FE75FE7C501B4010E94780D811169
:1009B0000DC02FEF3FEF4FE75FE7C501B4010E9485
:1009C000AE0B18161CF48BE291E0E2CF2FEF3FEF55
:1009D0004FE75FE4C701B6010E94060D18161CF42C
:1009E0008FE291E0D5CF2FEF3FEF4FE75FECC701EC
:1009F000B6010E94AE0B87FDF3CF2DEC3CEC4CE42E
:100A00005DE3C701B6010E94420B4B015C010E94ED
:100A1000250C6B017C010E94540C9B01AC01C501AB
:100A2000B4010E94410B4B015C014AE0C701B601D1
:100A30000E94AA036EE284EF91E00E94A10220E0EE
:100A400030E040E251E4C501B4010E940B0D0E9468
:100A5000250C90E080E04AE00E94AA0360CF8AEF74
:100A600090E071CFE090DD01F090DE0185E0E816C6
:100A7000F10491F420E030E0A9016091000170914F
:100A8000010180910201909103010E94AE0B87FF4A
:100A900003C084E191E064CF809106019091070149
:100AA00081309105A1F02091E501211103C08AE078
:100AB00091E056CFEF2819F080E091E051CF0297F6
:100AC00019F083EE90E04CCF8AEE90E049CF81EFB1
:100AD00090E0EF2889F744CFCF92DF92EF92FF9218
:100AE0000F931F930091F0011091F1012091F201F9
:100AF0003091F3016B017C01C01AD10AE20AF30ABA
:100B0000970186010A3F11052105310540F01F912B
:100B10000F91FF90EF90DF90CF900C945A041F91AB
:100B20000F91FF90EF90DF90CF900895CF92DF92DA
:100B3000EF92FF92CF936B017C01C1E084EF91E0D3
:100B40000E945F02181619060CF007C184EF91E0AD
:100B50000E943D029091CB018A3019F08D3009F04E
:100B6000E4C0992329F01092CB011092CA01E6CF7C
:100B7000E091CA01EE2311F3F0E0E855FE4F108238
:100B800063E371E088EA91E00E94A50D892B31F4BE
:100B9000B701A60181E00E942F04E7CF6AE371E06C
:100BA00088EA91E00E94A50D892B21F4B701A601E6
:100BB00082E0F1CF61E471E088EA91E00E94A50D46
:100BC000892B21F4B701A60183E0E5CF68E471E049
:100BD00088EA91E00E94A50D892B39F4B701A6019E
:100BE00081E090E00E94FC03C0CF63E571E088EAF9
:100BF00091E00E94A50D892B29F4B701A60182E09E
:100C000090E0F0CF6CE571E088EA91E00E94A50DDC
:100C1000892B29F4B701A60183E090E0E3CF68E6D1
:100C200071E088EA91E00E94A50D892B29F4B701B3
:100C3000A60184E090E0D6CF65E771E088EA91E014
:100C40000E94A50D892B29F4B701A60190E080E050
:100C5000C9CF6FE771E088EA91E00E94A50D892B6A
:100C600029F4B701A60185E090E0BCCF6FE871E000
:100C700088EA91E00E94A50D892B49F4C093E60112
:100C80000E94950389EC90E00E94EE036ECF69E824
:100C900071E088EA91E00E94A50D892B01F5109280
:100CA000E60181E090E020910601309107012130BA
:100CB000310511F090E080E09093E0018093DF0136
:100CC000C092E101D092E201E092E301F092E401EE
:100CD0001092E5010E9495038AEB90E0D5CF65E97B
:100CE00071E088EA91E00E94A50D892B19F48EEA43
:100CF00090E0CACF6BE971E088EA91E00E94A50D0F
:100D0000892B19F489EA90E0BFCF60EA71E088EAA4
:100D100091E00E94A50D892B29F4C701B6010E941C
:100D20005A0423CF83E990E0AFCF911107CFE09130
:100D3000CA01E13248F491E09E0F9093CA01F0E0BD
:100D4000E855FE4F8083FACE1092CA01C093CB01C2
:100D500082ED90E00E94EE03F1CECF91FF90EF90F4
:100D6000DF90CF9008951F920F920FB60F9211242B
:100D70002F933F938F939F93AF93BF938091E801FD
:100D80009091E901A091EA01B091EB013091E70166
:100D900023E0230F2D3758F50196A11DB11D209397
:100DA000E7018093E8019093E901A093EA01B093F1
:100DB000EB018091EC019091ED01A091EE01B091D9
:100DC000EF010196A11DB11D8093EC019093ED01FF
:100DD000A093EE01B093EF01BF91AF919F918F91DE
:100DE0003F912F910F900FBE0F901F90189526E8FE
:100DF000230F0296A11DB11DD2CF1F920F920FB6E5
:100E00000F9211242F933F934F935F936F937F9390
:100E10008F939F93AF93BF93EF93FF9384EF91E0F2
:100E20000E947F02FF91EF91BF91AF919F918F91AF
:100E30007F916F915F914F913F912F910F900FBED6
:100E40000F901F9018951F920F920FB60F921124BA
:100E50002F938F939F93EF93FF93E0910402F09170
:100E600005028081E0910A02F0910B0282FD1BC015
:100E7000908180910D028F5F8F7320910E028217F7
:100E800041F0E0910D02F0E0EC50FE4F958F809321
:100E90000D02FF91EF919F918F912F910F900FBEB7
:100EA0000F901F9018958081F4CFCF92DF92EF9230
:100EB000FF920F931F93E82FF92F05C001501109DE
:100EC0002109310961F1908196239417B9F305C086
:100ED000015011092109310911F1908196239413D0
:100EE000F7CFC12CD12CE12CF12C0AC08FEFC81AFE
:100EF000D80AE80AF80A0C151D052E053F0579F0F9
:100F000080818623841791F36C2D7D2D8E2D9F2D4E
:100F10001F910F91FF90EF90DF90CF90089560E0C8
:100F200070E080E090E01F910F91FF90EF90DF90D4
:100F3000CF900895789484B5826084BD84B5816033
:100F400084BD85B5826085BD85B5816085BD809194
:100F50006E00816080936E0010928100809181000C
:100F60008260809381008091810081608093810004
:100F7000809180008160809380008091B1008460C6
:100F80008093B1008091B00081608093B000809127
:100F90007A00846080937A0080917A0082608093E6
:100FA0007A0080917A00816080937A0080917A0043
:100FB000806880937A001092C10061E087E00E940F
:100FC0006D0161E086E00E946D0161E085E00E94B4
:100FD0006D0161E084E00E946D0161E083E00E94A8
:100FE0006D0160E082E00E946D0160E083E00E949C
:100FF00021010E948A03E0910402F091050282E03F
:101000008083E0910002F09101021082E0910202DF
:10101000F09103028FEC808310920C02E0910802A1
:10102000F091090286E08083E0910602F0910702C8
:10103000808180618083E0910602F09107028081C7
:1010400088608083E0910602F091070280818068C9
:101050008083E0910602F091070280818F7D80837A
:1010600060ED77E080E090E00E94C3010E94F5010E
:101070006093E1017093E2018093E3019093E401B6
:101080008BE591E00E94EE0381E591E00E94EE0382
:101090000E94F5016B017C010E94F5016C197D092C
:1010A0008E099F096E3E72408105910508F4C0C00B
:1010B000C4E0D0E023E0222E312C0E94F5016B0128
:1010C0007C010E9496058091CD019091CE01A09166
:1010D000CF01B091D001B701A601481B590B6A0B93
:1010E0007B0BDB01CA0180359105A105B10508F430
:1010F00097C0C092CD01D092CE01E092CF01F09284
:10110000D00160E083E00E9421018FE090E0019730
:10111000F1F761E083E00E9421018BE290E001970A
:10112000F1F760E083E00E942101E5ECF1E06491D9
:10113000E1EBF1E08491E82FF0E0EE0FFF1FE959B9
:10114000FE4F8591949100E315E720E030E0462FB3
:101150000E945507611571058105910531F16F5F99
:101160007F4F8F4F9F4F9F706115710581059105CE
:10117000E1F00E94540C20E030E048E652E40E9486
:10118000B30B4B015C0120E030E040E050E40E94F2
:10119000AE0B87FD0AC020E030E048EC53E4C50107
:1011A000B4010E94060D181634F4812C912C80E8AD
:1011B000A82E8FEBB82E8092000190920101A09290
:1011C0000201B092030120E030E0A901C501B401A1
:1011D0000E94AE0B87FF39C08091CC018F3F19F080
:1011E0008F5F8093CC018091CC018230A8F48091F4
:1011F000D1019091D201A091D301B091D401A70166
:101200009601281B390B4A0B5B0BDA01C901813FA0
:101210009105A105B10510F01092D9011092DA01E3
:101220008091E601882309F45EC00E948A0384C08D
:101230000E948A030E94F5010E94960561E070E019
:1012400080E090E00E94C30127CF1092CC01009172
:10125000DD011091DE010430110529F41092DA014C
:101260001092D901DDCF20E030E04CE052E4C5011E
:10127000B4010E94AE0B181654F01092D90180915F
:10128000DA018F3F69F28F5F8093DA01C9CF109244
:10129000DA010530110521F78091D1019091D20139
:1012A000A091D301B091D401B701A601481B590BFD
:1012B0006A0B7B0BDB01CA01813F9105A105B105DA
:1012C00010F01092D9018091D9018F3F19F08F5FF2
:1012D0008093D901C092D101D092D201E092D30182
:1012E000F092D4019DCF2091060130910701C901F0
:1012F0000297029790F58091E5018823A9F08091EB
:10130000E1019091E201A091E301B091E401B70104
:10131000A601481B590B6A0B7B0BDB01CA018D3DF3
:101320009540A105B105C8F01092E5011092E001C9
:101330001092DF010E949503C701B6010E946C055F
:1013400020E030E0232B09F4B8CE0E946B02882302
:1013500009F4B0CE0E940000ADCE8091DD019091E5
:10136000DE01009709F4F2C04091D5015091D601F9
:101370006091D7017091D80146015701841A950AEE
:10138000A60AB70A8330910509F446C098F4813063
:10139000910541F1029781F69EEE891692E0990639
:1013A000A104B10448F20E948A033092DE01209227
:1013B000DD0129C08530910509F458C008F443C007
:1013C000069709F0B9CF84EF881681E09806A1044A
:1013D000B10408F4B1CF1092DE011092DD01109239
:1013E000DA01AACF0E948A0368EC86169104A10450
:1013F000B10408F4A1CF0E94700382E090E09093C2
:10140000DE018093DD01C092D501D092D601E09239
:10141000D701F092D80190CFE6E98E169104A1048D
:10142000B10408F489CF1092DA0180910401882375
:1014300039F00E944003D093DE01C093DD01E3CF79
:101440000E942903F8CFFAE88F16F2E09F06A10464
:10145000B10408F471CF0E948A0325E030E0309394
:10146000DE012093DD011092D901CDCF3AEF831632
:101470009104A104B10408F45FCF409000015090A2
:101480000101609002017090030120E030E04CE027
:1014900052E4C301B2010E94060D181614F58091A2
:1014A000D1019091D201A091D301B091D401B701A3
:1014B000A601481B590B6A0B7B0BDB01CA01813F5C
:1014C0009105A105B10568F48091D901823048F0F9
:1014D0000E947D0366E070E07093DE016093DD01A1
:1014E00092CF7AE8871672E09706A104B10408F457
:1014F00023CF20E030E0A901C301B2010E94060D14
:1015000018160CF019CF8091DA01823008F414CF4C
:101510001092DA011092D90180910401882399F088
:101520000E944003D093DE01C093DD01C092D5013B
:10153000D092D601E092D701F092D80181E791E0F4
:101540000E94EE03F9CE0E942903ECCF2130310531
:1015500009F442C00091DF011091E0010130110552
:1015600049F00330110531F00430110519F0053050
:101570001105A9F520E030E0A9016091000170910A
:10158000010180910201909103010E94060D18163D
:1015900034F58091DA01823010F10E948A031092B2
:1015A000DA011092D901809105018093040191E044
:1015B000892780930501E1E0F0E0F093DE01E093FC
:1015C000DD01C092D501D092D601E092D701F09210
:1015D000D80184E891E0B4CF01E010E0CBCF033034
:1015E0001105E1F050F401301105A9F002301105A8
:1015F00009F01BCE0E9470039FCE0430110589F0C4
:101600000530110509F011CE0E9440031093DC0152
:101610000093DB0191CE0E947D038ECE0E94400399
:101620008BCE0E94290388CEE4EFF1E01382128270
:1016300088EE93E0A0E0B0E084839583A683B7832F
:1016400086E191E09183808385EC90E095878487A3
:1016500084EC90E09787868780EC90E0918B808B7C
:1016600081EC90E0938B828B82EC90E0958B848B65
:1016700086EC90E0978B868B118E128E138E148ED3
:1016800008955058BB27AA270E94590B0C94CC0CE4
:101690000E94BE0C38F00E94C50C20F039F49F3F28
:1016A00019F426F40C94BB0C0EF4E095E7FB0C94B3
:1016B000B50CE92F0E94DD0C58F3BA1762077307C7
:1016C0008407950720F079F4A6F50C94FF0C0EF42E
:1016D000E0950B2EBA2FA02D0B01B90190010C0142
:1016E000CA01A0011124FF27591B99F0593F50F45A
:1016F000503E68F11A16F040A22F232F342F4427B2
:10170000585FF3CF469537952795A795F0405395A9
:10171000C9F77EF41F16BA0B620B730B840BBAF079
:101720009150A1F0FF0FBB1F661F771F881FC2F7E4
:101730000EC0BA0F621F731F841F48F487957795F8
:101740006795B795F7959E3F08F0B0CF9395880FB2
:1017500008F09927EE0F9795879508950E94910CB0
:1017600008F481E008950E94C70B0C94CC0C0E94F1
:10177000C50C58F00E94BE0C40F029F45F3F29F0E0
:101780000C94B50C51110C94000D0C94BB0C0E94E0
:10179000DD0C68F39923B1F3552391F3951B550B99
:1017A000BB27AA2762177307840738F09F5F5F4F34
:1017B000220F331F441FAA1FA9F335D00E2E3AF073
:1017C000E0E832D091505040E695001CCAF72BD08B
:1017D000FE2F29D0660F771F881FBB1F26173707DC
:1017E0004807AB07B0E809F0BB0B802DBF01FF270E
:1017F00093585F4F3AF09E3F510578F00C94B50C2A
:101800000C94000D5F3FE4F3983ED4F386957795F2
:101810006795B795F7959F5FC9F7880F911D9695C6
:10182000879597F90895E1E0660F771F881FBB1F22
:10183000621773078407BA0720F0621B730B840BCF
:10184000BA0BEE1F88F7E09508950E94E50C88F02A
:101850009F5798F0B92F9927B751B0F0E1F0660F74
:10186000771F881F991F1AF0BA95C9F714C0B130B5
:1018700091F00E94FF0CB1E008950C94FF0C672FCB
:10188000782F8827B85F39F0B93FCCF386957795E4
:101890006795B395D9F73EF49095809570956195CD
:1018A0007F4F8F4F9F4F0895E89409C097FB3EF4F8
:1018B00090958095709561957F4F8F4F9F4F99239D
:1018C000A9F0F92F96E9BB279395F695879577951B
:1018D0006795B795F111F8CFFAF4BB0F11F460FFDB
:1018E0001BC06F5F7F4F8F4F9F4F16C0882311F033
:1018F00096E911C0772321F09EE8872F762F05C047
:10190000662371F096E8862F70E060E02AF09A95E1
:10191000660F771F881FDAF7880F9695879597F9D6
:101920000895990F0008550FAA0BE0E8FEEF161670
:101930001706E807F907C0F012161306E407F507C3
:1019400098F0621B730B840B950B39F40A2661F037
:10195000232B242B252B21F408950A2609F4A140DA
:10196000A6958FEF811D811D089597F99F6780E8E7
:1019700070E060E008959FEF80EC089500240A94E1
:101980001616170618060906089500240A9412165A
:101990001306140605060895092E0394000C11F48D
:1019A000882352F0BB0F40F4BF2B11F460FF04C03A
:1019B0006F5F7F4F8F4F9F4F089557FD9058440F93
:1019C000551F59F05F3F71F04795880F97FB991F9E
:1019D00061F09F3F79F0879508951216130614065B
:1019E000551FF2CF4695F1DF08C0161617061806E8
:1019F000991FF1CF86957105610508940895E894C3
:101A0000BB2766277727CB0197F908950E94910C91
:101A100008F48FEF08950E941E0D0C94CC0C0E94C8
:101A2000BE0C38F00E94C50C20F0952311F00C94E8
:101A3000B50C0C94BB0C11240C94000D0E94DD0C11
:101A400070F3959FC1F3950F50E0551F629FF00111
:101A5000729FBB27F00DB11D639FAA27F00DB11D2A
:101A6000AA1F649F6627B00DA11D661F829F2227B3
:101A7000B00DA11D621F739FB00DA11D621F839F3A
:101A8000A00D611D221F749F3327A00D611D231F10
:101A9000849F600D211D822F762F6A2F11249F575E
:101AA00050409AF0F1F088234AF0EE0FFF1FBB1F61
:101AB000661F771F881F91505040A9F79E3F510520
:101AC00080F00C94B50C0C94000D5F3FE4F3983E4D
:101AD000D4F3869577956795B795F795E7959F5FCA
:101AE000C1F7FE2B880F911D9695879597F908955C
:101AF0000E94910C880B990B0895A1E21A2EAA1B43
:101B0000BB1BFD010DC0AA1FBB1FEE1FFF1FA217AD
:101B1000B307E407F50720F0A21BB30BE40BF50BAA
:101B2000661F771F881F991F1A9469F76095709533
:101B3000809590959B01AC01BD01CF010895EE0FFA
:101B4000FF1F0590F491E02D0994FB01DC018D91BC
:101B5000019080190110D9F3990B0895F894FFCFE3
:101B6000000080BF0101010084007F0077006E004B
:101B7000680000000000A10201022E0209035F02BA
:101B80003D0251020D0A006E616E00696E66006FC3
:101B90007666004D4F44453A31004D4F44453A3248
:101BA000004D4F44453A3300434D443A4652454E6A
:101BB000544500434D443A5452415300434D443A36
:101BC0004449524549544100434D443A45535155C7
:101BD0004552444100434D443A5041524152004322
:101BE0004D443A47495241520052455345545F458E
:101BF00053544F500048454C4C4F0050494E4700FD
:081C00005354415455530000F8
:00000001FF
