:100000000C94F8000C9420010C9420010C94200115
:100010000C9420010C9420010C9420010C942001DC
:100020000C9420010C9420010C9420010C942001CC
:100030000C9420010C9420010C9420010C942001BC
:100040000C94F6060C9420010C9466070C9440075F
:100050000C9420010C9420010C9420010C9420019C
:100060000C9420010C942001474952415200455301
:100070005155455244410044495245495441005468
:10008000524153004652454E5445004F4B3A434D62
:10009000443A004552524F3A434F4D414E444F5F10
:1000A000494E56414C49444F00504F4E4700515421
:1000B0003A52454144593A5636004F4B3A5245530D
:1000C00045545F4553544F50004F4B3A4553544F9E
:1000D00050004552524F3A4C494E48415F4C4F4EAA
:1000E000474100474553544F5300534547554952E4
:1000F000004155544F4E4F4D4F0050415241520018
:100100004445535649414E444F004C494E4B5F576E
:100110004149540053454E534F525F4641494C00AC
:100120004553544F50007C53544154453A007C434E
:100130004D443A00455252007C444953543A0051D0
:10014000547C4D4F44453A004F4B3A4D4F44453A4D
:10015000004F4B3A4D4F44453A310051543A5245C5
:100160004144593A56360000000000230026002979
:10017000004556454E544F3A43555256415F434F02
:100180004E54494E5541004556454E544F3A44450C
:100190005356494F5F494E49434941444F0000007F
:1001A0000000240027002A0000000000250028008D
:1001B0002B000404040404040404020202020202E8
:1001C000030303030303010204081020408001021B
:1001D000040810200102040810200000000800029A
:1001E00001000003040700000000000000001C0BD9
:1001F00011241FBECFEFD8E0DEBFCDBF11E0A0E0DD
:10020000B1E0E0E7FBE102C005900D92A83AB1072A
:10021000D9F722E0A8EAB1E001C01D92A039B207E7
:10022000E1F710E0C8EFD0E004C02197FE010E9482
:10023000A70DC73FD107C9F70E94DD070C94B60D83
:100240000C94000090E0FC01E652FE4F2491FC016A
:10025000EA53FE4F3491FC01EE54FE4FE491EE233D
:10026000C9F0222339F0233001F1A8F4213019F12B
:10027000223029F1F0E0EE0FFF1FE855FE4FA59167
:10028000B4918FB7F894EC91611126C030953E235C
:100290003C938FBF08952730A9F02830C9F024304F
:1002A00049F7809180008F7D03C0809180008F7717
:1002B00080938000DFCF84B58F7784BDDBCF84B59A
:1002C0008F7DFBCF8091B0008F778093B000D2CF2D
:1002D0008091B0008F7DF9CF3E2BDACFCF93DF93A3
:1002E00090E0FC01EA53FE4F24918E549E4FFC0196
:1002F00084918823D1F090E0880F991FFC01E25689
:10030000FE4FA591B491FC01E855FE4FC591D491E3
:1003100061110EC09FB7F8948C91E22FE0958E2367
:100320008C932881E223E8839FBFDF91CF910895CA
:100330008FB7F894EC91E22BEC938FBFF6CF3FB7D9
:10034000F8948091EB019091EC01A091ED01B091B6
:10035000EE0126B5A89B05C02F3F19F00196A11DFF
:10036000B11D3FBFBA2FA92F982F8827BC01CD01FF
:10037000620F711D811D911D42E0660F771F881F5E
:10038000991F4A95D1F708958F929F92AF92BF928D
:10039000CF92DF92EF92FF924B015C010E949F018E
:1003A0006B017C010E949F016C197D098E099F09D8
:1003B000683E734081059105A8F321E0821A9108F7
:1003C000A108B10888EEC80E83E0D81EE11CF11C1C
:1003D00081149104A104B10429F7FF90EF90DF90FC
:1003E000CF90BF90AF909F908F9008952FB7F894C3
:1003F0006091E7017091E8018091E9019091EA0133
:100400002FBF0895AF92BF92CF92DF92EF92FF92EB
:100410000F931F93CF93DF936C017B018B01040F2C
:10042000151FEB015E01AE18BF08C017D10759F0C8
:100430006991D601ED91FC910190F081E02DC6010A
:100440000995892B79F7C501DF91CF911F910F9104
:10045000FF90EF90DF90CF90BF90AF900895FC0198
:10046000538D448D252F30E0842F90E0821B930B19
:10047000541710F0CF96089501970895FC01918DBF
:10048000828D981761F0A28DAE0FBF2FB11D5D96C2
:100490008C91928D9F5F9F73928F90E008958FEF64
:1004A0009FEF0895FC01918D828D981731F0828D18
:1004B000E80FF11D858D90E008958FEF9FEF08956F
:1004C000FC01918D228D892F90E0805C9F4F821BD3
:1004D00091098F739927089583EF91E00E9460023C
:1004E00021E0892B09F420E0822F089580E090E03C
:1004F000892B29F00E946C0281110C940000089550
:10050000FC01A48DA80FB92FB11DA35ABF4F2C9188
:10051000848D90E001968F739927848FA689B7897F
:100520002C93A089B1898C91837080648C93938D76
:10053000848D981306C00288F389E02D80818F7D19
:1005400080830895EF92FF920F931F93CF93DF93D1
:10055000EC0181E0888F9B8D8C8D98131AC0E889FF
:10056000F989808185FF15C09FB7F894EE89FF89CE
:100570006083E889F98980818370806480839FBF6C
:1005800081E090E0DF91CF911F910F91FF90EF906C
:100590000895F62E0B8D10E00F5F1F4F0F7311277C
:1005A000E02E8C8D8E110CC00FB607FCFACFE889B7
:1005B000F989808185FFF5CFCE010E948002F1CFBD
:1005C000EB8DEC0FFD2FF11DE35AFF4FF0829FB72B
:1005D000F8940B8FEA89FB8980818062CFCF0F93DB
:1005E0001F93CF93DF938C01D0E0C0E0F801EC0FB4
:1005F000FD1F6491662341F083EF91E00E94A20207
:10060000892B11F02196F2CFCE01DF91CF911F916E
:100610000F910895CF93DF93EC01888D8823B9F073
:10062000AA89BB89E889F9898C9185FD03C08081FD
:1006300086FD0DC00FB607FCF7CF8C9185FFF2CF7A
:10064000808185FFEDCFCE010E948002E9CFDF914E
:10065000CF9108958091CE018823A9F020E030E069
:10066000A9016091020170910301809104019091B0
:1006700005010E940E0D18162CF481E09091CF0117
:10068000923008F480E008950F931F93CF93DF9387
:10069000082F162FD42FC22F60E087E00E9422017E
:1006A00060E086E00E94220160E085E00E94220175
:1006B00060E084E00E942201602F87E00E94220116
:1006C000612F86E00E9422016D2F85E00E942201A9
:1006D0006C2F84E0DF91CF911F910F910C94220138
:1006E00021E040E060E080E00E94440384E090E08C
:1006F0009093CD018093CC01089520E040E061E02B
:1007000080E00E94440383E090E09093CD018093C9
:10071000CC01089520E041E060E081E00E944403C4
:1007200082E090E09093CD018093CC01089520E089
:1007300040E060E080E00E9444031092CD011092FE
:10074000CC0108951092DD011092DC011092DA01C3
:100750001092D9011092DB010C949703CF93DF9391
:100760002091CC013091CD0128173907F9F0833061
:10077000910531F1EC018430910548F48130910507
:10078000C1F00297C9F0DF91CF910C9497038430A8
:100790009105D1F020E041E00597A9F761E080E004
:1007A0000E944403D093CD01C093CC01DF91CF913F
:1007B000089521E040E0F2CFDF91CF910C948A03BD
:1007C000DF91CF910C947D03DF91CF910C94700356
:1007D000FC0101900020E9F73197AF01481B590B4C
:1007E000BC0183EF91E00C9402028F929F92AF9232
:1007F000BF920F931F93CF93DF93CDB7DEB7A1972F
:100800000FB6F894DEBF0FBECDBF19A2423008F478
:100810004AE08E010F5D1F4F842E912CB12CA12C2C
:10082000A50194010E94850DE62FB901CA01EA30A5
:10083000F4F4E05DD801EE938D01232B242B252BBE
:1008400079F790E080E0109719F0CD010E94E8035D
:10085000A1960FB6F894DEBF0FBECDBFDF91CF914A
:100860001F910F91BF90AF909F908F900895E95C7A
:10087000E1CFCF93DF930E94EF02EC0184E291E09D
:100880000E94E8038C0F9D1FDF91CF910895CF93B5
:10089000DF93EC019093DF018093DE014093E00150
:1008A0005093E1016093E2017093E30181E0809352
:1008B000E401209749F0809106019091070101978A
:1008C00029F0C230D10511F40E94A2038BE890E018
:1008D0000E94EF0221978AEF90E0C530D10530F4F5
:1008E000CC0FDD1FC85FDE4F88819981DF91CF91EA
:1008F0000C9439048F929F92AF92BF92CF92DF9265
:10090000EF92FF926093EF017093F0018093F101F9
:100910009093F2018FE391E00E94EF026091060153
:1009200070E090E080E04AE00E94F50388E391E007
:100930000E94EF02C0900201D0900301E0900401F8
:10094000F090050120E030E0A901C701B6010E9446
:10095000B60B87FF33C084E391E00E94EF028EE282
:1009600091E00E94EF028091CC019091CD0101971E
:100970008530910508F093C0880F991FFC01E85F4E
:10098000FE4F808191810E94EF0286E291E00E94F9
:10099000EF028091E501882309F484C080E291E0B0
:1009A0000E94EF0284E291E0FF90EF90DF90CF9001
:1009B000BF90AF909F908F900C94E803A701960191
:1009C000C701B6010E94800D882329F087E291E0DB
:1009D0000E94E803C4CF46015701E894B7F82FEF0F
:1009E0003FEF4FE75FE7C501B4010E94800D811121
:1009F0000DC02FEF3FEF4FE75FE7C501B4010E9445
:100A0000B60B18161CF48BE291E0E2CF2FEF3FEF0C
:100A10004FE75FE4C701B6010E940E0D18161CF4E3
:100A20008FE291E0D5CF2FEF3FEF4FE75FECC701AB
:100A3000B6010E94B60B87FDF3CF2DEC3CEC4CE4E5
:100A40005DE3C701B6010E944A0B4B015C010E94A5
:100A50002D0C6B017C010E945C0C9B01AC01C5015B
:100A6000B4010E94490B4B015C014AE0C701B60189
:100A70000E94F5036EE283EF91E00E94A20220E063
:100A800030E040E251E4C501B4010E94130D0E9420
:100A90002D0C90E080E04AE00E94F50360CF8AEFE1
:100AA00090E071CF0E942A03811103C084E191E09C
:100AB00077CF80910601909107018130910539F03F
:100AC0002091E401211103C08AE091E069CF2091D7
:100AD000DC013091DD01232B19F080E091E060CF43
:100AE0008130910529F0029731F083EE90E058CFE4
:100AF00081EF90E055CF8AEE90E052CFCF92DF9217
:100B0000EF92FF920F931F930091EF011091F0016C
:100B10002091F1013091F2016B017C01C01AD10AE0
:100B2000E20AF30A970186010A3F11052105310502
:100B300040F01F910F91FF90EF90DF90CF900C94B9
:100B40007A041F910F91FF90EF90DF90CF9008955E
:100B5000CF93C82F90E0909307018093060181E026
:100B600090E0C13011F090E080E09093DF0180933D
:100B7000DE014093E0015093E1016093E201709344
:100B8000E3010E94A20388E491E00E94EF026C2F2F
:100B900070E090E080E04AE00E94F50384E291E09A
:100BA000CF910C94E803CF92DF92EF92FF92CF9314
:100BB000DF936B017C01C1E3D1E083EF91E00E9400
:100BC0006002181619060CF00AC1C15009F407C1D9
:100BD00083EF91E00E943E029091CB018A3019F0A0
:100BE0008D3009F0E4C0992329F01092CB011092C6
:100BF000CA01E3CFE091CA01EE23F9F2F0E0E85533
:100C0000FE4F108263E371E088EA91E00E94AD0D2F
:100C1000892B31F4B701A60181E00E94A805E7CF36
:100C20006AE371E088EA91E00E94AD0D892B21F41E
:100C3000B701A60182E0F1CF61E471E088EA91E0BA
:100C40000E94AD0D892B21F4B701A60183E0E5CF09
:100C500068E471E088EA91E00E94AD0D892B39F4D7
:100C6000B701A60181E090E00E944704C0CF63E590
:100C700071E088EA91E00E94AD0D892B29F4B7015B
:100C8000A60182E090E0F0CF6CE571E088EA91E0A7
:100C90000E94AD0D892B29F4B701A60183E090E0F5
:100CA000E3CF68E671E088EA91E00E94AD0D892B00
:100CB00029F4B701A60184E090E0D6CF65E771E0A2
:100CC00088EA91E00E94AD0D892B29F4B701A601B5
:100CD00090E080E0C9CF6FE771E088EA91E00E9480
:100CE000AD0D892B29F4B701A60185E090E0BCCFBA
:100CF0006FE871E088EA91E00E94AD0D892B49F41C
:100D0000D093E5010E94A20389EC90E00E9439048F
:100D10006ECF69E871E088EA91E00E94AD0D892B01
:100D200001F51092E50181E090E0209106013091FB
:100D300007012130310511F090E080E09093DF0150
:100D40008093DE01C092E001D092E101E092E201E5
:100D5000F092E3011092E4010E94A2038AEB90E07A
:100D6000D5CF65E971E088EA91E00E94AD0D892B4D
:100D700019F48EEA90E0CACF6BE971E088EA91E05D
:100D80000E94AD0D892B19F489EA90E0BFCF60EA8B
:100D900071E088EA91E00E94AD0D892B29F4C7012A
:100DA000B6010E947A0423CF83E990E0AFCF91117E
:100DB00004CFE091CA01E13248F491E09E0F909394
:100DC000CA01F0E0E855FE4F8083F7CE1092CA01C9
:100DD000D093CB0182ED90E00E943904EECEDF91FA
:100DE000CF91FF90EF90DF90CF9008951F920F92D8
:100DF0000FB60F9211242F933F938F939F93AF932E
:100E0000BF938091E7019091E801A091E901B09131
:100E1000EA013091E60123E0230F2D3758F50196C2
:100E2000A11DB11D2093E6018093E7019093E80195
:100E3000A093E901B093EA018091EB019091EC015C
:100E4000A091ED01B091EE010196A11DB11D80931D
:100E5000EB019093EC01A093ED01B093EE01BF91F3
:100E6000AF919F918F913F912F910F900FBE0F9057
:100E70001F90189526E8230F0296A11DB11DD2CF11
:100E80001F920F920FB60F9211242F933F934F93FF
:100E90005F936F937F938F939F93AF93BF93EF93E2
:100EA000FF9383EF91E00E948002FF91EF91BF9149
:100EB000AF919F918F917F916F915F914F913F91F2
:100EC0002F910F900FBE0F901F9018951F920F92A9
:100ED0000FB60F9211242F938F939F93EF93FF934D
:100EE000E0910302F09104028081E0910902F09107
:100EF0000A0282FD1BC0908180910C028F5F8F736C
:100F000020910D02821741F0E0910C02F0E0ED50CB
:100F1000FE4F958F80930C02FF91EF919F918F91DF
:100F20002F910F900FBE0F901F9018958081F4CFD6
:100F3000CF92DF92EF92FF920F931F93E82FF92F3A
:100F400005C0015011092109310961F190819623F1
:100F50009417B9F305C0015011092109310911F1A4
:100F6000908196239413F7CFC12CD12CE12CF12C36
:100F70000AC08FEFC81AD80AE80AF80A0C151D052E
:100F80002E053F0579F080818623841791F36C2D1F
:100F90007D2D8E2D9F2D1F910F91FF90EF90DF9053
:100FA000CF90089560E070E080E090E01F910F9195
:100FB000FF90EF90DF90CF900895789484B5826091
:100FC00084BD84B5816084BD85B5826085BD85B5ED
:100FD000816085BD80916E00816080936E0010926B
:100FE00081008091810082608093810080918100E6
:100FF0008160809381008091800081608093800077
:101000008091B10084608093B1008091B0008160D4
:101010008093B00080917A00846080937A00809100
:101020007A00826080937A0080917A008160809358
:101030007A0080917A00806880937A001092C100D3
:1010400061E087E00E946E0161E086E00E946E012F
:1010500061E085E00E946E0161E084E00E946E0123
:1010600061E083E00E946E0160E082E00E946E0118
:1010700060E083E00E9422010E949703E091030256
:10108000F091040282E08083E091FF01F091000280
:101090001082E0910102F09102028FEC80831092A5
:1010A0000B02E0910702F091080286E08083E09154
:1010B0000502F0910602808180618083E091050243
:1010C000F0910602808188608083E0910502F091B2
:1010D0000602808180688083E0910502F09106021B
:1010E00080818F7D808360ED77E080E090E00E94DA
:1010F000C4010E94F6016093E0017093E1018093C6
:10110000E2019093E3018BE591E00E94390481E5CF
:1011100091E00E9439040E94F6016B017C010E945B
:10112000F6016C197D098E099F096E3E724081059A
:10113000910508F4ADC044E0E42EF12C23E0222E0A
:10114000312CCC24C394D12C0E94F6014B015C01BC
:101150000E94D3058091D1019091D201A091D30139
:10116000B091D401A5019401281B390B4A0B5B0BEC
:10117000DA01C90180359105A105B10508F480C0E7
:101180008092D1019092D201A092D301B092D40169
:1011900060E083E00E9422018FE090E00197F1F788
:1011A00061E083E00E9422018BE290E00197F1F779
:1011B00060E083E00E942201E8ECF1E06491E4EB5E
:1011C000F1E08491E82FF0E0EE0FFF1FE959FE4FA8
:1011D0008591949100E315E720E030E0462F0E94CE
:1011E0009807611571058105910531F16F5F7F4F9A
:1011F0008F4F9F4F9F706115710581059105E1F03B
:101200000E945C0C20E030E048E652E40E94BB0BF8
:101210002B013C0120E030E040E050E40E94B60B9E
:1012200087FD0AC020E030E048EC53E4C301B2017E
:101230000E940E0D181634F4412C512C80E8682EB3
:101240008FEB782E409202015092030160920401CC
:101250007092050120E030E0A901C301B2010E94B3
:10126000B60B87FF22C08091D0018F3F19F08F5FAE
:101270008093D0011092CF011092D9011092DA011F
:101280008091E501882309F446C00E9497036EC04F
:101290000E9497030E94F6010E94D30561E070E06E
:1012A00080E090E00E94C4013ACF81E08093CE01BB
:1012B0001092D0018091CF01823018F48F5F80931B
:1012C000CF018091DC019091DD01049729F4109207
:1012D000DA011092D901D4CF20E030E040EA50E4A6
:1012E000C301B2010E94B60B181654F01092D90136
:1012F0008091DA018F3F21F28F5F8093DA01C0CFB6
:101300001092DA018091D901823008F0B9CF8F5F55
:101310008093D901B5CF80910601909107019C017E
:10132000225031092230310590F58091E401882363
:10133000A9F08091E0019091E101A091E201B091CA
:10134000E301A5019401281B390B4A0B5B0BDA0161
:10135000C9018D3D9540A105B105E8F01092E40169
:101360001092DF011092DE010E94A203C501B401B8
:101370000E947E0540E050E0452B09F4E5CE0E9436
:101380006C02882309F4DACE0E940000D7CE01E077
:1013900010E0019721F00091DE011091DF01C09172
:1013A000DC01D091DD01209741F00E942A038823BF
:1013B000D9F20130110521F415C10130110529F0D0
:1013C000C8010397039708F00AC10E942A038823E3
:1013D00009F45BCF209709F005C1409002015090BD
:1013E000030160900401709005018091DB01882366
:1013F00009F4E2C00E94970320E030E0A901C30194
:10140000B2010E940E0D18162CF48091DA01823080
:1014100008F0B3C020E030E040EA50E4C301B2017C
:101420000E940E0D18160CF0A1CF8091D9018230C8
:1014300008F49CCF1092DB01C8010E94AE0396CF46
:10144000C430D10509F478C0259709F08FCF0E94E8
:101450009703409002015090030160900401709046
:10146000050120E030E040EA50E4C301B2010E94EF
:101470000E0D18162CF48091D901823008F071C03D
:1014800020E030E0A901C301B2010E940E0D181640
:101490000CF06CCF8091DA01823008F467CF1092A3
:1014A000DA011092D90180910001882309F462C009
:1014B0000E947D03F092DD01E092DC018092D50173
:1014C0009092D601A092D701B092D80181E791E025
:1014D0000E9439044BCF0E94970346E944165104F9
:1014E0006104710408F442CF0E948A0382E090E014
:1014F0009093DD018093DC018092D5019092D6011A
:10150000A092D701B092D80131CFE6E94E1651042E
:101510006104710408F42ACF1092DA01809100016D
:10152000882339F00E947D03F092DD01E092DC0116
:10153000E3CF0E947003F8CFFAE84F16F2E05F069F
:101540006104710408F412CF0E94970325E030E093
:101550003093DD012093DC011092DA011092D90161
:10156000CBCF1092DD011092DC011092DA011092C3
:10157000D901FCCE0E9470039DCF0E949703109268
:10158000DA011092D9011092DB0180910101809360
:10159000000191E0892780930101D092DD01C09282
:1015A000DC018092D5019092D601A092D701B09231
:1015B000D80187E891E08CCF20E030E040EA50E4A9
:1015C000C301B2010E94B60B18160CF435CF81E0AE
:1015D0008093DB011092DA011092D90156CE209748
:1015E00009F428CF8091D5019091D601A091D7011F
:1015F000B091D80124013501481A590A6A0A7B0AB8
:10160000C330D10509F481CF08F01ACFC130D1051C
:1016100009F461CF229709F0A9CE90E9491691E02B
:1016200059066104710408F4A1CE0E949703309218
:10163000DD012092DC0160CFE3EFF1E01382128242
:1016400088EE93E0A0E0B0E084839583A683B7831F
:1016500086E191E09183808385EC90E09587848793
:1016600084EC90E09787868780EC90E0918B808B6C
:1016700081EC90E0938B828B82EC90E0958B848B55
:1016800086EC90E0978B868B118E128E138E148EC3
:1016900008955058BB27AA270E94610B0C94D40CC4
:1016A0000E94C60C38F00E94CD0C20F039F49F3F08
:1016B00019F426F40C94C30C0EF4E095E7FB0C949B
:1016C000BD0CE92F0E94E50C58F3BA1762077307A7
:1016D0008407950720F079F4A6F50C94070D0EF415
:1016E000E0950B2EBA2FA02D0B01B90190010C0132
:1016F000CA01A0011124FF27591B99F0593F50F44A
:10170000503E68F11A16F040A22F232F342F4427A1
:10171000585FF3CF469537952795A795F040539599
:10172000C9F77EF41F16BA0B620B730B840BBAF069
:101730009150A1F0FF0FBB1F661F771F881FC2F7D4
:101740000EC0BA0F621F731F841F48F487957795E8
:101750006795B795F7959E3F08F0B0CF9395880FA2
:1017600008F09927EE0F9795879508950E94990C98
:1017700008F481E008950E94CF0B0C94D40C0E94D1
:10178000CD0C58F00E94C60C40F029F45F3F29F0C0
:101790000C94BD0C51110C94080D0C94C30C0E94B8
:1017A000E50C68F39923B1F3552391F3951B550B81
:1017B000BB27AA2762177307840738F09F5F5F4F24
:1017C000220F331F441FAA1FA9F335D00E2E3AF063
:1017D000E0E832D091505040E695001CCAF72BD07B
:1017E000FE2F29D0660F771F881FBB1F26173707CC
:1017F0004807AB07B0E809F0BB0B802DBF01FF27FE
:1018000093585F4F3AF09E3F510578F00C94BD0C11
:101810000C94080D5F3FE4F3983ED4F386957795DA
:101820006795B795F7959F5FC9F7880F911D9695B6
:10183000879597F90895E1E0660F771F881FBB1F12
:10184000621773078407BA0720F0621B730B840BBF
:10185000BA0BEE1F88F7E09508950E94ED0C88F012
:101860009F5798F0B92F9927B751B0F0E1F0660F64
:10187000771F881F991F1AF0BA95C9F714C0B130A5
:1018800091F00E94070DB1E008950C94070D672FA9
:10189000782F8827B85F39F0B93FCCF386957795D4
:1018A0006795B395D9F73EF49095809570956195BD
:1018B0007F4F8F4F9F4F0895E89409C097FB3EF4E8
:1018C00090958095709561957F4F8F4F9F4F99238D
:1018D000A9F0F92F96E9BB279395F695879577950B
:1018E0006795B795F111F8CFFAF4BB0F11F460FFCB
:1018F0001BC06F5F7F4F8F4F9F4F16C0882311F023
:1019000096E911C0772321F09EE8872F762F05C036
:10191000662371F096E8862F70E060E02AF09A95D1
:10192000660F771F881FDAF7880F9695879597F9C6
:101930000895990F0008550FAA0BE0E8FEEF161660
:101940001706E807F907C0F012161306E407F507B3
:1019500098F0621B730B840B950B39F40A2661F027
:10196000232B242B252B21F408950A2609F4A140CA
:10197000A6958FEF811D811D089597F99F6780E8D7
:1019800070E060E008959FEF80EC089500240A94D1
:101990001616170618060906089500240A9412164A
:1019A0001306140605060895092E0394000C11F47D
:1019B000882352F0BB0F40F4BF2B11F460FF04C02A
:1019C0006F5F7F4F8F4F9F4F089557FD9058440F83
:1019D000551F59F05F3F71F04795880F97FB991F8E
:1019E00061F09F3F79F0879508951216130614064B
:1019F000551FF2CF4695F1DF08C0161617061806D8
:101A0000991FF1CF86957105610508940895E894B2
:101A1000BB2766277727CB0197F908950E94990C79
:101A200008F48FEF08950E94260D0C94D40C0E94A8
:101A3000C60C38F00E94CD0C20F0952311F00C94C8
:101A4000BD0C0C94C30C11240C94080D0E94E50CE1
:101A500070F3959FC1F3950F50E0551F629FF00101
:101A6000729FBB27F00DB11D639FAA27F00DB11D1A
:101A7000AA1F649F6627B00DA11D661F829F2227A3
:101A8000B00DA11D621F739FB00DA11D621F839F2A
:101A9000A00D611D221F749F3327A00D611D231F00
:101AA000849F600D211D822F762F6A2F11249F574E
:101AB00050409AF0F1F088234AF0EE0FFF1FBB1F51
:101AC000661F771F881F91505040A9F79E3F510510
:101AD00080F00C94BD0C0C94080D5F3FE4F3983E2D
:101AE000D4F3869577956795B795F795E7959F5FBA
:101AF000C1F7FE2B880F911D9695879597F908954C
:101B00000E94990C880B990B0895A1E21A2EAA1B2A
:101B1000BB1BFD010DC0AA1FBB1FEE1FFF1FA2179D
:101B2000B307E407F50720F0A21BB30BE40BF50B9A
:101B3000661F771F881F991F1A9469F76095709523
:101B4000809590959B01AC01BD01CF010895EE0FEA
:101B5000FF1F0590F491E02D0994FB01DC018D91AC
:101B6000019080190110D9F3990B0895F894FFCFD3
:101B70000101000080BF010084007F0077006E003B
:101B8000680000000000A20202022F020A036002A5
:101B90003E0252020D0A006E616E00696E66006FB1
:101BA0007666004D4F44453A31004D4F44453A3238
:101BB000004D4F44453A3300434D443A4652454E5A
:101BC000544500434D443A5452415300434D443A26
:101BD0004449524549544100434D443A45535155B7
:101BE0004552444100434D443A5041524152004312
:101BF0004D443A47495241520052455345545F457E
:101C000053544F500048454C4C4F0050494E4700EC
:081C10005354415455530000E8
:00000001FF
